{
  "contractName": "ERC20",
  "abi": [
    {
      "inputs": [
        {
          "internalType": "string",
          "name": "name",
          "type": "string"
        },
        {
          "internalType": "string",
          "name": "symbol",
          "type": "string"
        }
      ],
      "stateMutability": "nonpayable",
      "type": "constructor"
    },
    {
      "anonymous": false,
      "inputs": [
        {
          "indexed": true,
          "internalType": "address",
          "name": "previousOwner",
          "type": "address"
        },
        {
          "indexed": true,
          "internalType": "address",
          "name": "newOwner",
          "type": "address"
        }
      ],
      "name": "OwnershipTransferred",
      "type": "event"
    },
    {
      "anonymous": false,
      "inputs": [
        {
          "indexed": true,
          "internalType": "address",
          "name": "from",
          "type": "address"
        },
        {
          "indexed": true,
          "internalType": "address",
          "name": "to",
          "type": "address"
        },
        {
          "indexed": false,
          "internalType": "uint8",
          "name": "_market_id",
          "type": "uint8"
        },
        {
          "indexed": false,
          "internalType": "uint256",
          "name": "value",
          "type": "uint256"
        }
      ],
      "name": "Transfer",
      "type": "event"
    },
    {
      "inputs": [],
      "name": "owner",
      "outputs": [
        {
          "internalType": "address",
          "name": "",
          "type": "address"
        }
      ],
      "stateMutability": "view",
      "type": "function"
    },
    {
      "inputs": [
        {
          "internalType": "address",
          "name": "newOwner",
          "type": "address"
        }
      ],
      "name": "transferOwnership",
      "outputs": [],
      "stateMutability": "nonpayable",
      "type": "function"
    },
    {
      "inputs": [
        {
          "internalType": "uint8",
          "name": "_market_id",
          "type": "uint8"
        }
      ],
      "name": "totalSupplyOf",
      "outputs": [
        {
          "internalType": "uint256",
          "name": "",
          "type": "uint256"
        }
      ],
      "stateMutability": "view",
      "type": "function"
    },
    {
      "inputs": [
        {
          "internalType": "address",
          "name": "account",
          "type": "address"
        },
        {
          "internalType": "uint8",
          "name": "_market_id",
          "type": "uint8"
        }
      ],
      "name": "balanceOf",
      "outputs": [
        {
          "internalType": "uint256",
          "name": "",
          "type": "uint256"
        }
      ],
      "stateMutability": "view",
      "type": "function"
    }
  ],
  "bytecode": "0x608060405234801561001057600080fd5b5060405161048c38038061048c8339818101604052604081101561003357600080fd5b810190808051604051939291908464010000000082111561005357600080fd5b90830190602082018581111561006857600080fd5b825164010000000081118282018810171561008257600080fd5b82525081516020918201929091019080838360005b838110156100af578181015183820152602001610097565b50505050905090810190601f1680156100dc5780820380516001836020036101000a031916815260200191505b50604052602001805160405193929190846401000000008211156100ff57600080fd5b90830190602082018581111561011457600080fd5b825164010000000081118282018810171561012e57600080fd5b82525081516020918201929091019080838360005b8381101561015b578181015183820152602001610143565b50505050905090810190601f1680156101885780820380516001836020036101000a031916815260200191505b50604052505060008054600160a060020a031916331790555081516101b49060069060208501906101dd565b5080516101c89060079060208401906101dd565b50506008805460ff1916601217905550610270565b828054600181600116156101000203166002900490600052602060002090601f016020900481019282601f1061021e57805160ff191683800117855561024b565b8280016001018555821561024b579182015b8281111561024b578251825591602001919060010190610230565b5061025792915061025b565b5090565b5b80821115610257576000815560010161025c565b61020d8061027f6000396000f3fe608060405234801561001057600080fd5b506004361061004f5760e060020a60003504636741204581146100545780638da5cb5b14610095578063d53b6392146100b9578063f2fde38b146100d9575b600080fd5b6100836004803603604081101561006a57600080fd5b508035600160a060020a0316906020013560ff16610101565b60408051918252519081900360200190f35b61009d61012e565b60408051600160a060020a039092168252519081900360200190f35b610083600480360360208110156100cf57600080fd5b503560ff1661013d565b6100ff600480360360208110156100ef57600080fd5b5035600160a060020a0316610152565b005b600160a060020a038216600090815260016020908152604080832060ff8516845290915290205492915050565b600054600160a060020a031681565b60ff1660009081526003602052604090205490565b600054600160a060020a0316331461016957600080fd5b600160a060020a03811661017c57600080fd5b60008054604051600160a060020a03808516939216917f8be0079c531659141344cd1fd0a4f28419497f9722a3daafe3b4186f6b6457e091a360008054600160a060020a031916600160a060020a039290921691909117905556fea264697066735822122078cb16dde2c2fe65897e44d5a36bb0dc529d190a231c53a52cea24ac85be048c64736f6c63430007000033",
  "immutableReferences": {},
  "source": "//we revise some codes from openzeppeline/erc20.sol.\n// SPDX-License-Identifier: MIT\n\npragma solidity ^0.7.0;\n\nimport \"./owner.sol\";\nimport \"./safeMath.sol\";\n\n/**\n * @dev Implementation of the {IERC20} interface.\n *\n * This implementation is agnostic to the way tokens are created. This means\n * that a supply mechanism has to be added in a derived contract using {_mint}.\n * For a generic mechanism see {ERC20PresetMinterPauser}.\n *\n * TIP: For a detailed writeup see our guide\n * https://forum.zeppelin.solutions/t/how-to-implement-erc20-supply-mechanisms/226[How\n * to implement supply mechanisms].\n *\n * We have followed general OpenZeppelin guidelines: functions revert instead\n * of returning `false` on failure. This behavior is nonetheless conventional\n * and does not conflict with the expectations of ERC20 applications.\n *\n * Additionally, an {Approval} event is emitted on calls to {transferFrom}.\n * This allows applications to reconstruct the allowance for all accounts just\n * by listening to said events. Other implementations of the EIP may not emit\n * these events, as it isn't required by the specification.\n *\n * Finally, the non-standard {decreaseAllowance} and {increaseAllowance}\n * functions have been added to mitigate the well-known issues around setting\n * allowances. See {IERC20-approve}.\n */\ncontract ERC20 is Ownable {\n    using SafeMath for uint256;\n\n    mapping (address => mapping (uint8 => uint256)) private _balances;\n    // mapping (address => mapping (address => mapping (uint8 => uint256))) private _allowances;\n\n    mapping (uint8 => bool) internal is_over_distribute;  // market_id 당 distribute끝났는지 기록.\n    mapping (uint8 => uint256) internal _totalSupply;\n    mapping (uint8 => uint256) internal _expirationDateOf;\n    mapping (uint8 => string) internal _questionsOf;\n    string private _name;\n    string private _symbol;\n    uint8 private _decimals;\n    uint8[] internal _market_ids;\n\n     /**\n     * @dev Emitted when `value` tokens are moved from one account (`from`) to\n     * another (`to`).\n     *\n     * Note that `value` may be zero.\n     */\n    event Transfer(address indexed from, address indexed to, uint8 _market_id, uint256 value);\n\n    /**\n     * @dev Emitted when the allowance of a `spender` for an `owner` is set by\n     * a call to {approve}. `value` is the new allowance.\n     */\n    // event Approval(address indexed owner, address indexed spender, uint8 _market_id, uint256 value);\n    \n    /**\n     * @dev Sets the values for {name} and {symbol}, initializes {decimals} with\n     * a default value of 18.\n     *\n     * To select a different value for {decimals}, use {_setupDecimals}.\n     *\n     * All three of these values are immutable: they can only be set once during\n     * construction.\n     */\n    constructor (string memory name, string memory symbol) {\n        _name = name;\n        _symbol = symbol;\n        _decimals = 18;\n    }\n    \n      //market_ids 안에 이미 존재하는지 체크;\n    function _already_market_id(uint8 _market_id) internal view returns (bool) {\n        for (uint i = 0; i < _market_ids.length; i++) {\n            if (_market_ids[i] == _market_id) {\n                return true;\n            }\n        }\n        return false;\n    }\n    \n\n    /**\n     * @dev Returns the name of the token.\n     */\n    // function name() public view returns (string memory) {\n    //     return _name;\n    // }\n\n    // /**\n    //  * @dev Returns the symbol of the token, usually a shorter version of the\n    //  * name.\n    //  */\n    // function symbol() public view returns (string memory) {\n    //     return _symbol;\n    // }\n\n    // /**\n    //  * @dev Returns the number of decimals used to get its user representation.\n    //  * For example, if `decimals` equals `2`, a balance of `505` tokens should\n    //  * be displayed to a user as `5,05` (`505 / 10 ** 2`).\n    //  *\n    //  * Tokens usually opt for a value of 18, imitating the relationship between\n    //  * Ether and Wei. This is the value {ERC20} uses, unless {_setupDecimals} is\n    //  * called.\n    //  *\n    //  * NOTE: This information is only used for _display_ purposes: it in\n    //  * no way affects any of the arithmetic of the contract, including\n    //  * {IERC20-balanceOf} and {IERC20-transfer}.\n    //  */\n    // function decimals() public view returns (uint8) {\n    //     return _decimals;\n    // }\n\n    /**\n     * @dev See {IERC20-totalSupply}.\n     */\n    function totalSupplyOf(uint8 _market_id) public view returns (uint256) {\n        return _totalSupply[_market_id];\n    }\n\n    /**\n     * @dev See {IERC20-balanceOf}.\n     */\n    function balanceOf(address account, uint8 _market_id) public view returns (uint256) {\n        return _balances[account][_market_id];\n    }\n    \n    // function questionOf(uint8 _market_id) public view returns (string memory){\n    //     string memory result = _questionsOf[_market_id];\n    //     return result;\n    // }\n\n    // function expirationDateOf(uint8 _market_id) public view returns (uint256){\n    //     return _expirationDateOf[_market_id];\n    // }\n\n    /**\n     * @dev See {IERC20-transfer}.\n     *\n     * Requirements:\n     *\n     * - `recipient` cannot be the zero address.\n     * - the caller must have a balance of at least `amount`.\n     */\n    // function transfer(address recipient, uint8 _market_id, uint256 amount) public returns (bool) {\n    //     _transfer(_msgSender(), recipient, _market_id, amount);\n    //     return true;\n    // }\n\n    // /**\n    //  * @dev See {IERC20-allowance}.\n    //  */\n    // function allowance(address owner, address spender, uint8 _market_id) public view returns (uint256) {\n    //     return _allowances[owner][spender][_market_id];\n    // }\n\n    /**\n     * @dev See {IERC20-approve}.\n     *\n     * Requirements:\n     *\n     * - `spender` cannot be the zero address.\n     */\n    // function approve(address spender, uint256 amount, uint8 _market_id) public returns (bool) {\n    //     _approve(_msgSender(), spender, _market_id, amount);\n    //     return true;\n    // }\n\n    // /**\n    //  * @dev See {IERC20-transferFrom}.\n    //  *\n    //  * Emits an {Approval} event indicating the updated allowance. This is not\n    //  * required by the EIP. See the note at the beginning of {ERC20}.\n    //  *\n    //  * Requirements:\n    //  *\n    //  * - `sender` and `recipient` cannot be the zero address.\n    //  * - `sender` must have a balance of at least `amount`.\n    //  * - the caller must have allowance for ``sender``'s tokens of at least\n    //  * `amount`.\n    //  */\n    // function transferFrom(address sender, address recipient, uint8 _market_id, uint256 amount) public returns (bool) {\n    //     _transfer(sender, recipient, _market_id, amount);\n    //     _approve(sender, _msgSender(), _market_id, _allowances[sender][_msgSender()][_market_id].sub(amount, \"ERC20: transfer amount exceeds allowance\"));\n    //     return true;\n    // }\n\n    // /**\n    //  * @dev Atomically increases the allowance granted to `spender` by the caller.\n    //  *\n    //  * This is an alternative to {approve} that can be used as a mitigation for\n    //  * problems described in {IERC20-approve}.\n    //  *\n    //  * Emits an {Approval} event indicating the updated allowance.\n    //  *\n    //  * Requirements:\n    //  *\n    //  * - `spender` cannot be the zero address.\n    //  */\n    // function increaseAllowance(address spender, uint8 _market_id, uint256 addedValue) public returns (bool) {\n    //     _approve(_msgSender(), spender, _market_id, _allowances[_msgSender()][spender][_market_id].add(addedValue));\n    //     return true;\n    // }\n\n    // /**\n    //  * @dev Atomically decreases the allowance granted to `spender` by the caller.\n    //  *\n    //  * This is an alternative to {approve} that can be used as a mitigation for\n    //  * problems described in {IERC20-approve}.\n    //  *\n    //  * Emits an {Approval} event indicating the updated allowance.\n    //  *\n    //  * Requirements:\n    //  *\n    //  * - `spender` cannot be the zero address.\n    //  * - `spender` must have allowance for the caller of at least\n    //  * `subtractedValue`.\n    //  */\n    // function decreaseAllowance(address spender, uint8 _market_id, uint256 subtractedValue) public returns (bool) {\n    //     _approve(_msgSender(), spender, _market_id, _allowances[_msgSender()][spender][_market_id].sub(subtractedValue, \"ERC20: decreased allowance below zero\"));\n    //     return true;\n    // }\n\n    // /**\n    //  * @dev Moves tokens `amount` from `sender` to `recipient`.\n    //  *\n    //  * This is internal function is equivalent to {transfer}, and can be used to\n    //  * e.g. implement automatic token fees, slashing mechanisms, etc.\n    //  *\n    //  * Emits a {Transfer} event.\n    //  *\n    //  * Requirements:\n    //  *\n    //  * - `sender` cannot be the zero address.\n    //  * - `recipient` cannot be the zero address.\n    //  * - `sender` must have a balance of at least `amount`.\n    //  */\n    function _transfer(address sender, address recipient, uint8 _market_id, uint256 amount) internal {\n        require(sender != address(0), \"ERC20: transfer from the zero address\");\n        require(recipient != address(0), \"ERC20: transfer to the zero address\");\n\n        // _beforeTokenTransfer(sender, recipient, amount);\n\n        _balances[sender][_market_id] = _balances[sender][_market_id].sub(amount, \"ERC20: transfer amount exceeds balance\");\n        _balances[recipient][_market_id] = _balances[recipient][_market_id].add(amount);\n        emit Transfer(sender, recipient, _market_id, amount);\n    }\n\n    /** @dev Creates `amount` tokens and assigns them to `account`, increasing\n     * the total supply.\n     *\n     * Emits a {Transfer} event with `from` set to the zero address.\n     *\n     * Requirements:\n     *\n     * - `to` cannot be the zero address.\n     */\n    function _mint(address account, uint8 _market_id, uint256 amount) internal {\n        require(account != address(0), \"ERC20: mint to the zero address\");\n\n        // _beforeTokenTransfer(address(0), account, amount);\n\n        _totalSupply[_market_id] = _totalSupply[_market_id].add(amount);\n        _balances[account][_market_id] = _balances[account][_market_id].add(amount);\n        emit Transfer(address(0), account, _market_id, amount);\n    }\n\n    /**\n     * @dev Destroys `amount` tokens from `account`, reducing the\n     * total supply.\n     *\n     * Emits a {Transfer} event with `to` set to the zero address.\n     *\n     * Requirements:\n     *\n     * - `account` cannot be the zero address.\n     * - `account` must have at least `amount` tokens.\n     */\n    function _burn(address account, uint8 _market_id, uint256 amount) internal {\n        require(account != address(0), \"ERC20: burn from the zero address\");\n\n        // _beforeTokenTransfer(account, address(0), amount);\n\n        _balances[account][_market_id] = _balances[account][_market_id].sub(amount, \"ERC20: burn amount exceeds balance\");\n        _totalSupply[_market_id] = _totalSupply[_market_id].sub(amount);\n        emit Transfer(account, address(0), _market_id, amount);\n    }\n\n    /**\n     * @dev Sets `amount` as the allowance of `spender` over the `owner` s tokens.\n     *\n     * This internal function is equivalent to `approve`, and can be used to\n     * e.g. set automatic allowances for certain subsystems, etc.\n     *\n     * Emits an {Approval} event.\n     *\n     * Requirements:\n     *\n     * - `owner` cannot be the zero address.\n     * - `spender` cannot be the zero address.\n     */\n    // function _approve(address owner, address spender, uint8 _market_id, uint256 amount) internal {\n    //     require(owner != address(0), \"ERC20: approve from the zero address\");\n    //     require(spender != address(0), \"ERC20: approve to the zero address\");\n\n    //     _allowances[owner][spender][_market_id] = amount;\n    //     emit Approval(owner, spender, _market_id, amount);\n    // }\n\n    // /**\n    //  * @dev Sets {decimals} to a value other than the default one of 18.\n    //  *\n    //  * WARNING: This function should only be called from the constructor. Most\n    //  * applications that interact with token contracts will not expect\n    //  * {decimals} to ever change, and may work incorrectly if it does.\n    //  */\n    // function _setupDecimals(uint8 decimals_) internal {\n    //     _decimals = decimals_;\n    // }\n\n    // /**\n    //  * @dev Hook that is called before any transfer of tokens. This includes\n    //  * minting and burning.\n    //  *\n    //  * Calling conditions:\n    //  *\n    //  * - when `from` and `to` are both non-zero, `amount` of ``from``'s tokens\n    //  * will be to transferred to `to`.\n    //  * - when `from` is zero, `amount` tokens will be minted for `to`.\n    //  * - when `to` is zero, `amount` of ``from``'s tokens will be burned.\n    //  * - `from` and `to` are never both zero.\n    //  *\n    //  * To learn more about hooks, head to xref:ROOT:extending-contracts.adoc#using-hooks[Using Hooks].\n    //  */\n    // // function _beforeTokenTransfer(address from, address to, uint256 amount) internal virtual { }\n\n   \n}\n",
  "sourcePath": "/home/jisoo/pet-projects/Prediction_market/back/contracts/erc20.sol",
  "compiler": {
    "name": "solc",
    "version": "0.7.0+commit.9e61f92b.Emscripten.clang"
  },
  "schemaVersion": "3.3.1",
  "updatedAt": "2020-11-27T15:06:43.939Z",
  "devdoc": {
    "details": "Implementation of the {IERC20} interface. This implementation is agnostic to the way tokens are created. This means that a supply mechanism has to be added in a derived contract using {_mint}. For a generic mechanism see {ERC20PresetMinterPauser}. TIP: For a detailed writeup see our guide https://forum.zeppelin.solutions/t/how-to-implement-erc20-supply-mechanisms/226[How to implement supply mechanisms]. We have followed general OpenZeppelin guidelines: functions revert instead of returning `false` on failure. This behavior is nonetheless conventional and does not conflict with the expectations of ERC20 applications. Additionally, an {Approval} event is emitted on calls to {transferFrom}. This allows applications to reconstruct the allowance for all accounts just by listening to said events. Other implementations of the EIP may not emit these events, as it isn't required by the specification. Finally, the non-standard {decreaseAllowance} and {increaseAllowance} functions have been added to mitigate the well-known issues around setting allowances. See {IERC20-approve}.",
    "events": {
      "Transfer(address,address,uint8,uint256)": {
        "details": "Emitted when `value` tokens are moved from one account (`from`) to another (`to`). Note that `value` may be zero."
      }
    },
    "kind": "dev",
    "methods": {
      "balanceOf(address,uint8)": {
        "details": "See {IERC20-balanceOf}."
      },
      "constructor": {
        "details": "Sets the values for {name} and {symbol}, initializes {decimals} with a default value of 18. To select a different value for {decimals}, use {_setupDecimals}. All three of these values are immutable: they can only be set once during construction."
      },
      "totalSupplyOf(uint8)": {
        "details": "See {IERC20-totalSupply}."
      },
      "transferOwnership(address)": {
        "details": "Allows the current owner to transfer control of the contract to a newOwner.",
        "params": {
          "newOwner": "The address to transfer ownership to."
        }
      }
    },
    "version": 1
  },
  "userdoc": {
    "kind": "user",
    "methods": {},
    "version": 1
  }
}