{
  "contractName": "ERC20Distribution",
  "abi": [
    {
      "anonymous": false,
      "inputs": [
        {
          "indexed": true,
          "internalType": "address",
          "name": "previousOwner",
          "type": "address"
        },
        {
          "indexed": true,
          "internalType": "address",
          "name": "newOwner",
          "type": "address"
        }
      ],
      "name": "OwnershipTransferred",
      "type": "event"
    },
    {
      "anonymous": false,
      "inputs": [
        {
          "indexed": true,
          "internalType": "address",
          "name": "from",
          "type": "address"
        },
        {
          "indexed": true,
          "internalType": "address",
          "name": "to",
          "type": "address"
        },
        {
          "indexed": false,
          "internalType": "uint8",
          "name": "_market_id",
          "type": "uint8"
        },
        {
          "indexed": false,
          "internalType": "uint256",
          "name": "value",
          "type": "uint256"
        }
      ],
      "name": "Transfer",
      "type": "event"
    },
    {
      "anonymous": false,
      "inputs": [
        {
          "indexed": true,
          "internalType": "address",
          "name": "from",
          "type": "address"
        },
        {
          "indexed": true,
          "internalType": "address",
          "name": "to",
          "type": "address"
        },
        {
          "indexed": false,
          "internalType": "uint8",
          "name": "_market_id",
          "type": "uint8"
        },
        {
          "indexed": false,
          "internalType": "uint256",
          "name": "value",
          "type": "uint256"
        }
      ],
      "name": "Transfer1",
      "type": "event"
    },
    {
      "inputs": [],
      "name": "addToBalance",
      "outputs": [
        {
          "internalType": "bool",
          "name": "",
          "type": "bool"
        }
      ],
      "stateMutability": "payable",
      "type": "function"
    },
    {
      "inputs": [],
      "name": "addToOwnerPW",
      "outputs": [
        {
          "internalType": "bool",
          "name": "",
          "type": "bool"
        }
      ],
      "stateMutability": "payable",
      "type": "function"
    },
    {
      "inputs": [
        {
          "internalType": "address",
          "name": "account",
          "type": "address"
        },
        {
          "internalType": "uint8",
          "name": "_market_id",
          "type": "uint8"
        }
      ],
      "name": "balanceOf",
      "outputs": [
        {
          "internalType": "uint256",
          "name": "",
          "type": "uint256"
        }
      ],
      "stateMutability": "view",
      "type": "function"
    },
    {
      "inputs": [
        {
          "internalType": "address",
          "name": "account",
          "type": "address"
        },
        {
          "internalType": "uint8",
          "name": "_market_id",
          "type": "uint8"
        }
      ],
      "name": "balanceOf1",
      "outputs": [
        {
          "internalType": "uint256",
          "name": "",
          "type": "uint256"
        }
      ],
      "stateMutability": "view",
      "type": "function"
    },
    {
      "inputs": [],
      "name": "cap",
      "outputs": [
        {
          "internalType": "uint256",
          "name": "",
          "type": "uint256"
        }
      ],
      "stateMutability": "view",
      "type": "function"
    },
    {
      "inputs": [],
      "name": "cap1",
      "outputs": [
        {
          "internalType": "uint256",
          "name": "",
          "type": "uint256"
        }
      ],
      "stateMutability": "view",
      "type": "function"
    },
    {
      "inputs": [],
      "name": "getOwnerPW",
      "outputs": [
        {
          "internalType": "uint256",
          "name": "",
          "type": "uint256"
        }
      ],
      "stateMutability": "view",
      "type": "function"
    },
    {
      "inputs": [],
      "name": "getPW",
      "outputs": [
        {
          "internalType": "uint256",
          "name": "",
          "type": "uint256"
        }
      ],
      "stateMutability": "view",
      "type": "function"
    },
    {
      "inputs": [],
      "name": "owner",
      "outputs": [
        {
          "internalType": "address",
          "name": "",
          "type": "address"
        }
      ],
      "stateMutability": "view",
      "type": "function"
    },
    {
      "inputs": [],
      "name": "ownerWithdraw",
      "outputs": [],
      "stateMutability": "nonpayable",
      "type": "function"
    },
    {
      "inputs": [
        {
          "internalType": "uint8",
          "name": "_market_id",
          "type": "uint8"
        }
      ],
      "name": "totalSupplyOf",
      "outputs": [
        {
          "internalType": "uint256",
          "name": "",
          "type": "uint256"
        }
      ],
      "stateMutability": "view",
      "type": "function"
    },
    {
      "inputs": [
        {
          "internalType": "uint8",
          "name": "_market_id",
          "type": "uint8"
        }
      ],
      "name": "totalSupplyOf1",
      "outputs": [
        {
          "internalType": "uint256",
          "name": "",
          "type": "uint256"
        }
      ],
      "stateMutability": "view",
      "type": "function"
    },
    {
      "inputs": [
        {
          "internalType": "address",
          "name": "newOwner",
          "type": "address"
        }
      ],
      "name": "transferOwnership",
      "outputs": [],
      "stateMutability": "nonpayable",
      "type": "function"
    },
    {
      "inputs": [],
      "name": "withdraw",
      "outputs": [],
      "stateMutability": "nonpayable",
      "type": "function"
    },
    {
      "inputs": [
        {
          "internalType": "uint8",
          "name": "_market_id",
          "type": "uint8"
        },
        {
          "internalType": "uint8",
          "name": "_tokenKind",
          "type": "uint8"
        },
        {
          "internalType": "uint256",
          "name": "_price",
          "type": "uint256"
        }
      ],
      "name": "request",
      "outputs": [
        {
          "internalType": "bool",
          "name": "",
          "type": "bool"
        }
      ],
      "stateMutability": "nonpayable",
      "type": "function"
    },
    {
      "inputs": [
        {
          "internalType": "uint8",
          "name": "_market_id",
          "type": "uint8"
        },
        {
          "internalType": "uint8",
          "name": "_tokenKind",
          "type": "uint8"
        }
      ],
      "name": "showRequest",
      "outputs": [
        {
          "internalType": "uint256[]",
          "name": "",
          "type": "uint256[]"
        }
      ],
      "stateMutability": "view",
      "type": "function"
    }
  ],
  "bytecode": "0x60806040523480156200001157600080fd5b5060408051808201825260068082527f4e6f436f696e000000000000000000000000000000000000000000000000000060208084019190915283518085018552600281527f4e6f0000000000000000000000000000000000000000000000000000000000008183015284518086018652600781527f596573436f696e000000000000000000000000000000000000000000000000008184019081528651808801909752600387527f59657300000000000000000000000000000000000000000000000000000000009387019390935260008054600160a060020a0319163317905580516103e896929487949293926200010a9262000250565b5080516200012090600790602084019062000250565b50506008805460ff1916601217905550806200019d57604080517f08c379a000000000000000000000000000000000000000000000000000000000815260206004820152601560248201527f45524332304361707065643a2063617020697320300000000000000000000000604482015290519081900360640190fd5b600a558151620001b590601090602085019062000250565b508051620001cb90601190602084019062000250565b50506012805460ff19168117905550806200024757604080517f08c379a000000000000000000000000000000000000000000000000000000000815260206004820152601560248201527f45524332304361707065643a2063617020697320300000000000000000000000604482015290519081900360640190fd5b601455620002ec565b828054600181600116156101000203166002900490600052602060002090601f016020900481019282601f106200029357805160ff1916838001178555620002c3565b82800160010185558215620002c3579182015b82811115620002c3578251825591602001919060010190620002a6565b50620002d1929150620002d5565b5090565b5b80821115620002d15760008155600101620002d6565b610bf380620002fc6000396000f3fe6080604052600436106100c65760e060020a60003504632a0f6fc581146100cb5780632c9c85ca1461010a578063355274ea1461011f5780633ccfd60b146101345780634311de8f1461014b5780635065036e146101605780636741204514610175578063898871c9146101b15780638da5cb5b146101c6578063aff74368146101f7578063c0e317fb1461027c578063d1b2d67d14610298578063d53b6392146102d5578063de562a9714610302578063f0e43baf1461030a578063f2fde38b14610346575b600080fd5b3480156100d757600080fd5b506100f8600480360360208110156100ee57600080fd5b503560ff16610379565b60408051918252519081900360200190f35b34801561011657600080fd5b506100f861038e565b34801561012b57600080fd5b506100f86103ad565b34801561014057600080fd5b506101496103b3565b005b34801561015757600080fd5b506101496103f8565b34801561016c57600080fd5b506100f8610447565b34801561018157600080fd5b506100f86004803603604081101561019857600080fd5b508035600160a060020a0316906020013560ff1661045a565b3480156101bd57600080fd5b506100f8610487565b3480156101d257600080fd5b506101db61048d565b60408051600160a060020a039092168252519081900360200190f35b34801561020357600080fd5b5061022c6004803603604081101561021a57600080fd5b5060ff8135811691602001351661049c565b60408051602080825283518183015283519192839290830191858101910280838360005b83811015610268578181015183820152602001610250565b505050509050019250505060405180910390f35b6102846106dd565b604080519115158252519081900360200190f35b3480156102a457600080fd5b50610284600480360360608110156102bb57600080fd5b5060ff81358116916020810135909116906040013561070d565b3480156102e157600080fd5b506100f8600480360360208110156102f857600080fd5b503560ff16610a64565b610284610a79565b34801561031657600080fd5b506100f86004803603604081101561032d57600080fd5b508035600160a060020a0316906020013560ff16610aa7565b34801561035257600080fd5b506101496004803603602081101561036957600080fd5b5035600160a060020a0316610ad4565b60ff166000908152600d602052604090205490565b60008054600160a060020a031633146103a657600080fd5b5060165490565b600a5490565b33600081815260156020526040808220805490839055905190929183156108fc02918491818181858888f193505050501580156103f4573d6000803e3d6000fd5b5050565b600054600160a060020a0316331461040f57600080fd5b601680546000918290556040519091339183156108fc0291849190818181858888f193505050501580156103f4573d6000803e3d6000fd5b3360009081526015602052604090205490565b600160a060020a038216600090815260016020908152604080832060ff8516845290915290205492915050565b60145490565b600054600160a060020a031681565b60ff8083166000908152600260205260409020546060918491161561050b576040805160e560020a62461bcd02815260206004820152601b60248201527f4d61726b657420446973747269627574696f6e206973206f7665720000000000604482015290519081900360640190fd5b60ff841660009081526017602052604090205460609067ffffffffffffffff8111801561053757600080fd5b50604051908082528060200260200182016040528015610561578160200160208202803683370190505b5090506000808560ff166001141561057b5750600261058b565b8560ff166002141561058b575060015b60005b60ff88166000908152601760205260409020548110156106d15760ff881660008181526017602052604090208054839081106105c657fe5b600091825260209091206003909102015460ff16148015610627575060ff8816600090815260176020526040902080548290811061060057fe5b906000526020600020906003020160020160149054906101000a900460ff16151560011515145b801561066c575060ff88811660009081526017602052604090208054918416918390811061065157fe5b6000918252602090912060039091020154610100900460ff16145b156106c95760ff8816600090815260176020526040902080548290811061068f57fe5b906000526020600020906003020160010154670de0b6b3a7640000038484815181106106b757fe5b60209081029190910101526001909201915b60010161058e565b50919695505050505050565b336000908152601560205260408120546106f79034610b59565b3360009081526015602052604090205550600190565b60ff80841660009081526002602052604081205490918591161561077b576040805160e560020a62461bcd02815260206004820152601b60248201527f4d61726b657420446973747269627574696f6e206973206f7665720000000000604482015290519081900360640190fd5b33600090815260196020908152604080832060ff808a168552925282205416610896575060ff8086166000818152601760209081526040808320815160a0810183528581528a87168185019081528184018b8152336060840181815260016080860181815287548083018955888c528a8c2097516003909102909701805496518e166101000261ff001998909e1660ff1990971696909617969096169b909b1784559151838b01559051600290920180549351151560a060020a0260a060020a60ff0219600160a060020a0394909416600160a060020a031990951694909417929092169290921790559054818552601884528285208686528452828520600019919091019055835260198252822092909152529150610a5c565b5033600090815260186020908152604080832060ff89168452825280832054601790925282208054919291839081106108cb57fe5b906000526020600020906003020160020160146101000a81548160ff02191690831515021790555085601760008860ff1660ff168152602001908152602001600020828154811061091857fe5b60009182526020808320600392909202909101805460ff191660ff948516179055918816815260179091526040902080548691908390811061095657fe5b60009182526020808320600392909202909101805461ff00191661010060ff95861602179055918816815260179091526040902080548591908390811061099957fe5b90600052602060002090600302016001018190555033601760008860ff1660ff16815260200190815260200160002082815481106109d357fe5b906000526020600020906003020160020160006101000a815481600160a060020a030219169083600160a060020a031602179055506001601760008860ff1660ff1681526020019081526020016000208281548110610a2e57fe5b906000526020600020906003020160020160146101000a81548160ff02191690831515021790555060019250505b509392505050565b60ff1660009081526003602052604090205490565b60008054600160a060020a03163314610a9157600080fd5b601654610a9e9034610b59565b60165550600190565b600160a060020a0382166000908152600b6020908152604080832060ff8516845290915290205492915050565b600054600160a060020a03163314610aeb57600080fd5b600160a060020a038116610afe57600080fd5b60008054604051600160a060020a03808516939216917f8be0079c531659141344cd1fd0a4f28419497f9722a3daafe3b4186f6b6457e091a360008054600160a060020a031916600160a060020a0392909216919091179055565b600082820183811015610bb6576040805160e560020a62461bcd02815260206004820152601b60248201527f536166654d6174683a206164646974696f6e206f766572666c6f770000000000604482015290519081900360640190fd5b939250505056fea2646970667358221220609839cb9558abdbf29387705e91b90273a67db391783c82700fe250a3419c0764736f6c63430007000033",
  "immutableReferences": {},
  "source": "pragma solidity ^0.7.0;\n\nimport \"./etherTransfer.sol\";\nimport \"./yescoin.sol\";\nimport \"./nocoin.sol\";\n\ncontract ERC20Distribution is YesCoin, NoCoin, WithdrawalContract{\n    struct Request {\n        uint8 market_id;\n        uint8 tokenKind;                          //tokenKind가 0이면 yescoin, 1이면 nocoin.                \n        uint256 requestPrice;\n        address requester;\n        bool is_valid;\n    }\n\n    mapping (uint8 => Request[]) internal requests;\n\n    \n    mapping (address => mapping (uint8 => uint256)) internal requestIdOf;\n    mapping (address => mapping (uint8 => bool)) internal alreadyRequest;\n    \n    //market이 끝났는지 확인.\n    modifier marketCheck(uint8 _market_id){\n        require(is_over_distribute[_market_id] == false, \"Market Distribution is over\");\n        _;\n    }\n\n    //요구하기 // 한시장당 1번.\n    function request(uint8 _market_id, uint8 _tokenKind, uint256 _price) external marketCheck(_market_id) returns (bool){\n        uint256 id;\n        if (alreadyRequest[msg.sender][_market_id] == false){\n            requests[_market_id].push(Request(_market_id, _tokenKind, _price, msg.sender, true));\n            id = requests[_market_id].length - 1;\n            requestIdOf[msg.sender][_market_id] = id;\n            alreadyRequest[msg.sender][_market_id] == true;\n            return true;\n        }\n        else {   \n            id = requestIdOf[msg.sender][_market_id];\n            requests[_market_id][id].is_valid = false;\n            requests[_market_id][id].market_id = _market_id;\n            requests[_market_id][id].tokenKind = _tokenKind;\n            requests[_market_id][id].requestPrice = _price;\n            requests[_market_id][id].requester = msg.sender;\n            requests[_market_id][id].is_valid = true;\n            return true;\n        }\n    }\n\n    //요청 보여주기. \n    function showRequest(uint8 _market_id, uint8 _tokenKind) external view marketCheck(_market_id) returns (uint256[] memory) {\n        uint256[] memory result = new uint256[](requests[_market_id].length);\n        uint idx;\n        uint8 searchKind;\n        if (_tokenKind == 1) {\n            searchKind = 2;\n        }\n        else if (_tokenKind == 2){\n            searchKind = 1;\n        }\n\n        for (uint i = 0; i < requests[_market_id].length; i++){\n            if (requests[_market_id][i].market_id == _market_id && requests[_market_id][i].is_valid == true && requests[_market_id][i].tokenKind == searchKind) {\n                result[idx] = 1*10**18 - (requests[_market_id][i].requestPrice);\n                idx++;    \n            }\n        }\n        return result;\n    }\n\n    \n\n    \n}\n\n",
  "sourcePath": "/home/jisoo/pet-projects/Prediction_market/back/contracts/erc20Distribution.sol",
  "compiler": {
    "name": "solc",
    "version": "0.7.0+commit.9e61f92b.Emscripten.clang"
  },
  "schemaVersion": "3.3.1",
  "updatedAt": "2020-11-28T04:29:20.806Z",
  "devdoc": {
    "kind": "dev",
    "methods": {
      "balanceOf(address,uint8)": {
        "details": "See {IERC20-balanceOf}."
      },
      "balanceOf1(address,uint8)": {
        "details": "See {IERC20-balanceOf}."
      },
      "cap()": {
        "details": "Returns the cap on the token's total supply."
      },
      "cap1()": {
        "details": "Returns the cap on the token's total supply."
      },
      "totalSupplyOf(uint8)": {
        "details": "See {IERC20-totalSupply}."
      },
      "totalSupplyOf1(uint8)": {
        "details": "See {IERC20-totalSupply}."
      },
      "transferOwnership(address)": {
        "details": "Allows the current owner to transfer control of the contract to a newOwner.",
        "params": {
          "newOwner": "The address to transfer ownership to."
        }
      }
    },
    "version": 1
  },
  "userdoc": {
    "kind": "user",
    "methods": {},
    "version": 1
  }
}