{
  "contractName": "Exchange",
  "abi": [
    {
      "anonymous": false,
      "inputs": [
        {
          "indexed": false,
          "internalType": "bool",
          "name": "a",
          "type": "bool"
        },
        {
          "indexed": false,
          "internalType": "bool",
          "name": "b",
          "type": "bool"
        },
        {
          "indexed": false,
          "internalType": "bool",
          "name": "c",
          "type": "bool"
        },
        {
          "indexed": false,
          "internalType": "bool",
          "name": "d",
          "type": "bool"
        }
      ],
      "name": "DistributeEmit",
      "type": "event"
    },
    {
      "anonymous": false,
      "inputs": [
        {
          "indexed": false,
          "internalType": "uint8",
          "name": "_del_market_id",
          "type": "uint8"
        },
        {
          "indexed": false,
          "internalType": "uint8",
          "name": "_del_tokenKind",
          "type": "uint8"
        },
        {
          "indexed": false,
          "internalType": "uint256",
          "name": "_del_price",
          "type": "uint256"
        }
      ],
      "name": "NoFound",
      "type": "event"
    },
    {
      "anonymous": false,
      "inputs": [],
      "name": "NoIndex",
      "type": "event"
    },
    {
      "anonymous": false,
      "inputs": [
        {
          "indexed": true,
          "internalType": "address",
          "name": "previousOwner",
          "type": "address"
        },
        {
          "indexed": true,
          "internalType": "address",
          "name": "newOwner",
          "type": "address"
        }
      ],
      "name": "OwnershipTransferred",
      "type": "event"
    },
    {
      "anonymous": false,
      "inputs": [
        {
          "indexed": false,
          "internalType": "uint256",
          "name": "id",
          "type": "uint256"
        },
        {
          "indexed": false,
          "internalType": "bool",
          "name": "comp",
          "type": "bool"
        },
        {
          "indexed": false,
          "internalType": "string",
          "name": "log",
          "type": "string"
        }
      ],
      "name": "RequestEmit",
      "type": "event"
    },
    {
      "anonymous": false,
      "inputs": [
        {
          "indexed": false,
          "internalType": "uint8",
          "name": "_del_market_id",
          "type": "uint8"
        },
        {
          "indexed": false,
          "internalType": "uint8",
          "name": "_del",
          "type": "uint8"
        },
        {
          "indexed": false,
          "internalType": "uint256",
          "name": "_del_price",
          "type": "uint256"
        }
      ],
      "name": "SuggestRemove",
      "type": "event"
    },
    {
      "anonymous": false,
      "inputs": [
        {
          "indexed": true,
          "internalType": "address",
          "name": "from",
          "type": "address"
        },
        {
          "indexed": true,
          "internalType": "address",
          "name": "to",
          "type": "address"
        },
        {
          "indexed": false,
          "internalType": "uint8",
          "name": "_market_id",
          "type": "uint8"
        },
        {
          "indexed": false,
          "internalType": "uint256",
          "name": "value",
          "type": "uint256"
        }
      ],
      "name": "Transfer",
      "type": "event"
    },
    {
      "anonymous": false,
      "inputs": [
        {
          "indexed": true,
          "internalType": "address",
          "name": "from",
          "type": "address"
        },
        {
          "indexed": true,
          "internalType": "address",
          "name": "to",
          "type": "address"
        },
        {
          "indexed": false,
          "internalType": "uint8",
          "name": "_market_id",
          "type": "uint8"
        },
        {
          "indexed": false,
          "internalType": "uint256",
          "name": "value",
          "type": "uint256"
        }
      ],
      "name": "Transfer1",
      "type": "event"
    },
    {
      "inputs": [],
      "name": "addToBalance",
      "outputs": [
        {
          "internalType": "bool",
          "name": "",
          "type": "bool"
        }
      ],
      "stateMutability": "payable",
      "type": "function"
    },
    {
      "inputs": [],
      "name": "addToOwnerPW",
      "outputs": [
        {
          "internalType": "bool",
          "name": "",
          "type": "bool"
        }
      ],
      "stateMutability": "payable",
      "type": "function"
    },
    {
      "inputs": [
        {
          "internalType": "address",
          "name": "account",
          "type": "address"
        },
        {
          "internalType": "uint8",
          "name": "_market_id",
          "type": "uint8"
        }
      ],
      "name": "balanceOf",
      "outputs": [
        {
          "internalType": "uint256",
          "name": "",
          "type": "uint256"
        }
      ],
      "stateMutability": "view",
      "type": "function"
    },
    {
      "inputs": [
        {
          "internalType": "address",
          "name": "account",
          "type": "address"
        },
        {
          "internalType": "uint8",
          "name": "_market_id",
          "type": "uint8"
        }
      ],
      "name": "balanceOf1",
      "outputs": [
        {
          "internalType": "uint256",
          "name": "",
          "type": "uint256"
        }
      ],
      "stateMutability": "view",
      "type": "function"
    },
    {
      "inputs": [],
      "name": "cap",
      "outputs": [
        {
          "internalType": "uint256",
          "name": "",
          "type": "uint256"
        }
      ],
      "stateMutability": "view",
      "type": "function"
    },
    {
      "inputs": [],
      "name": "cap1",
      "outputs": [
        {
          "internalType": "uint256",
          "name": "",
          "type": "uint256"
        }
      ],
      "stateMutability": "view",
      "type": "function"
    },
    {
      "inputs": [
        {
          "internalType": "uint8",
          "name": "_market_id",
          "type": "uint8"
        },
        {
          "internalType": "uint8",
          "name": "_tokenKind",
          "type": "uint8"
        },
        {
          "internalType": "uint256",
          "name": "_acceptedPrice",
          "type": "uint256"
        }
      ],
      "name": "distribute",
      "outputs": [
        {
          "internalType": "bool",
          "name": "",
          "type": "bool"
        }
      ],
      "stateMutability": "nonpayable",
      "type": "function"
    },
    {
      "inputs": [],
      "name": "getOwnerPW",
      "outputs": [
        {
          "internalType": "uint256",
          "name": "",
          "type": "uint256"
        }
      ],
      "stateMutability": "view",
      "type": "function"
    },
    {
      "inputs": [],
      "name": "getPW",
      "outputs": [
        {
          "internalType": "uint256",
          "name": "",
          "type": "uint256"
        }
      ],
      "stateMutability": "view",
      "type": "function"
    },
    {
      "inputs": [],
      "name": "owner",
      "outputs": [
        {
          "internalType": "address",
          "name": "",
          "type": "address"
        }
      ],
      "stateMutability": "view",
      "type": "function"
    },
    {
      "inputs": [],
      "name": "ownerWithdraw",
      "outputs": [],
      "stateMutability": "nonpayable",
      "type": "function"
    },
    {
      "inputs": [
        {
          "internalType": "uint8",
          "name": "_market_id",
          "type": "uint8"
        },
        {
          "internalType": "uint8",
          "name": "_tokenKind",
          "type": "uint8"
        },
        {
          "internalType": "uint256",
          "name": "_price",
          "type": "uint256"
        }
      ],
      "name": "request",
      "outputs": [
        {
          "internalType": "bool",
          "name": "",
          "type": "bool"
        }
      ],
      "stateMutability": "nonpayable",
      "type": "function"
    },
    {
      "inputs": [
        {
          "internalType": "uint8",
          "name": "_market_id",
          "type": "uint8"
        },
        {
          "internalType": "uint256",
          "name": "_i",
          "type": "uint256"
        }
      ],
      "name": "showCurrent",
      "outputs": [
        {
          "internalType": "uint256[]",
          "name": "priceYes",
          "type": "uint256[]"
        },
        {
          "internalType": "uint256[]",
          "name": "timeYes",
          "type": "uint256[]"
        },
        {
          "internalType": "uint256[]",
          "name": "priceNo",
          "type": "uint256[]"
        },
        {
          "internalType": "uint256[]",
          "name": "timeNo",
          "type": "uint256[]"
        }
      ],
      "stateMutability": "view",
      "type": "function"
    },
    {
      "inputs": [
        {
          "internalType": "uint8",
          "name": "_market_id",
          "type": "uint8"
        },
        {
          "internalType": "uint8",
          "name": "_tokenKind",
          "type": "uint8"
        }
      ],
      "name": "showRequest",
      "outputs": [
        {
          "internalType": "uint256[]",
          "name": "",
          "type": "uint256[]"
        }
      ],
      "stateMutability": "view",
      "type": "function"
    },
    {
      "inputs": [
        {
          "internalType": "uint8",
          "name": "_market_id",
          "type": "uint8"
        },
        {
          "internalType": "uint8",
          "name": "_tokenKind",
          "type": "uint8"
        }
      ],
      "name": "showSuggest",
      "outputs": [
        {
          "internalType": "uint256[]",
          "name": "",
          "type": "uint256[]"
        }
      ],
      "stateMutability": "view",
      "type": "function"
    },
    {
      "inputs": [
        {
          "internalType": "uint8",
          "name": "_market_id",
          "type": "uint8"
        },
        {
          "internalType": "uint8",
          "name": "_tokenKind",
          "type": "uint8"
        },
        {
          "internalType": "uint256",
          "name": "_price",
          "type": "uint256"
        }
      ],
      "name": "suggest",
      "outputs": [
        {
          "internalType": "bool",
          "name": "",
          "type": "bool"
        }
      ],
      "stateMutability": "nonpayable",
      "type": "function"
    },
    {
      "inputs": [
        {
          "internalType": "uint8",
          "name": "_market_id",
          "type": "uint8"
        },
        {
          "internalType": "uint8",
          "name": "_del_tokenKind",
          "type": "uint8"
        },
        {
          "internalType": "uint256",
          "name": "_del_price",
          "type": "uint256"
        },
        {
          "internalType": "uint8",
          "name": "_tokenKind",
          "type": "uint8"
        },
        {
          "internalType": "uint256",
          "name": "_price",
          "type": "uint256"
        }
      ],
      "name": "suggestChange",
      "outputs": [
        {
          "internalType": "bool",
          "name": "",
          "type": "bool"
        }
      ],
      "stateMutability": "nonpayable",
      "type": "function"
    },
    {
      "inputs": [
        {
          "internalType": "uint8",
          "name": "_market_id",
          "type": "uint8"
        }
      ],
      "name": "totalSupplyOf",
      "outputs": [
        {
          "internalType": "uint256",
          "name": "",
          "type": "uint256"
        }
      ],
      "stateMutability": "view",
      "type": "function"
    },
    {
      "inputs": [
        {
          "internalType": "uint8",
          "name": "_market_id",
          "type": "uint8"
        }
      ],
      "name": "totalSupplyOf1",
      "outputs": [
        {
          "internalType": "uint256",
          "name": "",
          "type": "uint256"
        }
      ],
      "stateMutability": "view",
      "type": "function"
    },
    {
      "inputs": [
        {
          "internalType": "uint8",
          "name": "_market_id",
          "type": "uint8"
        },
        {
          "internalType": "uint8",
          "name": "_tokenKind",
          "type": "uint8"
        },
        {
          "internalType": "uint256",
          "name": "_price",
          "type": "uint256"
        }
      ],
      "name": "tradeWant",
      "outputs": [
        {
          "internalType": "bool",
          "name": "",
          "type": "bool"
        }
      ],
      "stateMutability": "nonpayable",
      "type": "function"
    },
    {
      "inputs": [
        {
          "internalType": "address",
          "name": "newOwner",
          "type": "address"
        }
      ],
      "name": "transferOwnership",
      "outputs": [],
      "stateMutability": "nonpayable",
      "type": "function"
    },
    {
      "inputs": [],
      "name": "withdraw",
      "outputs": [],
      "stateMutability": "nonpayable",
      "type": "function"
    },
    {
      "inputs": [
        {
          "internalType": "uint8",
          "name": "_market_id",
          "type": "uint8"
        }
      ],
      "name": "winnerTokenOf",
      "outputs": [
        {
          "internalType": "uint8",
          "name": "",
          "type": "uint8"
        }
      ],
      "stateMutability": "view",
      "type": "function"
    },
    {
      "inputs": [
        {
          "internalType": "uint8",
          "name": "_market_id",
          "type": "uint8"
        }
      ],
      "name": "exchange",
      "outputs": [
        {
          "internalType": "bool",
          "name": "",
          "type": "bool"
        }
      ],
      "stateMutability": "nonpayable",
      "type": "function"
    }
  ],
  "bytecode": "0x60806040523480156200001157600080fd5b5060408051808201825260068082527f4e6f436f696e000000000000000000000000000000000000000000000000000060208084019190915283518085018552600281527f4e6f0000000000000000000000000000000000000000000000000000000000008183015284518086018652600781527f596573436f696e000000000000000000000000000000000000000000000000008184019081528651808801909752600387527f59657300000000000000000000000000000000000000000000000000000000009387019390935260008054600160a060020a0319163317905580516103e896929487949293926200010a9262000250565b5080516200012090600790602084019062000250565b50506008805460ff1916601217905550806200019d57604080517f08c379a000000000000000000000000000000000000000000000000000000000815260206004820152601560248201527f45524332304361707065643a2063617020697320300000000000000000000000604482015290519081900360640190fd5b600a558151620001b590601090602085019062000250565b508051620001cb90601190602084019062000250565b50506012805460ff19168117905550806200024757604080517f08c379a000000000000000000000000000000000000000000000000000000000815260206004820152601560248201527f45524332304361707065643a2063617020697320300000000000000000000000604482015290519081900360640190fd5b601455620002ec565b828054600181600116156101000203166002900490600052602060002090601f016020900481019282601f106200029357805160ff1916838001178555620002c3565b82800160010185558215620002c3579182015b82811115620002c3578251825591602001919060010190620002a6565b50620002d1929150620002d5565b5090565b5b80821115620002d15760008155600101620002d6565b61374f80620002fc6000396000f3fe60806040526004361061011e5760e060020a600035046312e85cc1811461012357806315f42ce9146101665780632104ef4a146101a75780632a0f6fc51461022c5780632c9c85ca1461026b578063355274ea146102805780633ccfd60b146102955780634311de8f146102ac5780635065036e146102c157806367412045146102d6578063898871c9146103125780638da5cb5b14610327578063913d20be1461035857806393f01ae814610395578063aff74368146103e0578063baad7ac814610415578063c0e317fb1461056b578063c593017f14610573578063d1b2d67d146105b0578063d53b6392146105ed578063de562a971461061a578063f0e43baf14610622578063f2fde38b1461065e578063f8f29b0714610691575b600080fd5b34801561012f57600080fd5b506101506004803603602081101561014657600080fd5b503560ff166106ce565b6040805160ff9092168252519081900360200190f35b34801561017257600080fd5b506101936004803603602081101561018957600080fd5b503560ff166106e6565b604080519115158252519081900360200190f35b3480156101b357600080fd5b506101dc600480360360408110156101ca57600080fd5b5060ff813581169160200135166107ea565b60408051602080825283518183015283519192839290830191858101910280838360005b83811015610218578181015183820152602001610200565b505050509050019250505060405180910390f35b34801561023857600080fd5b506102596004803603602081101561024f57600080fd5b503560ff16610982565b60408051918252519081900360200190f35b34801561027757600080fd5b50610259610997565b34801561028c57600080fd5b506102596109b6565b3480156102a157600080fd5b506102aa6109bc565b005b3480156102b857600080fd5b506102aa610a01565b3480156102cd57600080fd5b50610259610a50565b3480156102e257600080fd5b50610259600480360360408110156102f957600080fd5b508035600160a060020a0316906020013560ff16610a63565b34801561031e57600080fd5b50610259610a90565b34801561033357600080fd5b5061033c610a96565b60408051600160a060020a039092168252519081900360200190f35b34801561036457600080fd5b506101936004803603606081101561037b57600080fd5b5060ff813581169160208101359091169060400135610aa5565b3480156103a157600080fd5b50610193600480360360a08110156103b857600080fd5b5060ff8135811691602081013582169160408201359160608101359091169060800135610c9f565b3480156103ec57600080fd5b506101dc6004803603604081101561040357600080fd5b5060ff813581169160200135166112bf565b34801561042157600080fd5b506104486004803603604081101561043857600080fd5b5060ff81351690602001356114ee565b6040518080602001806020018060200180602001858103855289818151815260200191508051906020019060200280838360005b8381101561049457818101518382015260200161047c565b50505050905001858103845288818151815260200191508051906020019060200280838360005b838110156104d35781810151838201526020016104bb565b50505050905001858103835287818151815260200191508051906020019060200280838360005b838110156105125781810151838201526020016104fa565b50505050905001858103825286818151815260200191508051906020019060200280838360005b83811015610551578181015183820152602001610539565b505050509050019850505050505050505060405180910390f35b6101936117e1565b34801561057f57600080fd5b506101936004803603606081101561059657600080fd5b5060ff813581169160208101359091169060400135611811565b3480156105bc57600080fd5b50610193600480360360608110156105d357600080fd5b5060ff813581169160208101359091169060400135611e49565b3480156105f957600080fd5b506102596004803603602081101561061057600080fd5b503560ff16612356565b61019361236b565b34801561062e57600080fd5b506102596004803603604081101561064557600080fd5b508035600160a060020a0316906020013560ff16612399565b34801561066a57600080fd5b506102aa6004803603602081101561068157600080fd5b5035600160a060020a03166123c6565b34801561069d57600080fd5b50610193600480360360608110156106b457600080fd5b5060ff81358116916020810135909116906040013561244b565b60ff9081166000908152601f60205260409020541690565b60ff811660009081526004602052604081205482904211610751576040805160e560020a62461bcd02815260206004820152601d60248201527f74686520726573756c74206973206e6f742068617070656e6420796574000000604482015290519081900360640190fd5b600061075c846106ce565b60ff1660011415610778576107713385610a63565b9050610799565b610781846106ce565b60ff1660021415610799576107963385612399565b90505b6107ad33670de0b6b3a764000083026127f8565b15156001146107bb57600080fd5b6107cf33856107ca3388610a63565b6128a9565b6107e333856107de3388612399565b6129c6565b5050919050565b60ff82166000908152601c6020526040902054606090819067ffffffffffffffff8111801561081857600080fd5b50604051908082528060200260200182016040528015610842578160200160208202803683370190505b5090506000805b60ff86166000908152601c60205260409020548110156109785760ff86166000908152601c6020526040902080548290811061088157fe5b600091825260209091206002600390920201015460ff16151560011480156108d8575060ff86166000818152601c602052604090208054839081106108c257fe5b600091825260209091206003909102015460ff16145b801561091d575060ff8681166000908152601c602052604090208054918716918390811061090257fe5b6000918252602090912060039091020154610100900460ff16145b156109705760ff86166000908152601c6020526040902080548290811061094057fe5b90600052602060002090600302016001015483838151811061095e57fe5b60209081029190910101526001909101905b600101610849565b5090949350505050565b60ff166000908152600d602052604090205490565b60008054600160a060020a031633146109af57600080fd5b5060165490565b600a5490565b33600081815260156020526040808220805490839055905190929183156108fc02918491818181858888f193505050501580156109fd573d6000803e3d6000fd5b5050565b600054600160a060020a03163314610a1857600080fd5b601680546000918290556040519091339183156108fc0291849190818181858888f193505050501580156109fd573d6000803e3d6000fd5b3360009081526015602052604090205490565b600160a060020a038216600090815260016020908152604080832060ff8516845290915290205492915050565b60145490565b600054600160a060020a031681565b600083838060ff1660011415610b0d5760ff8216600090815260046020526040902054421115610b0d576040805160e560020a62461bcd0281526020600482015260176024820152600080516020613674833981519152604482015290519081900360640190fd5b8060ff1660021415610b715760ff82166000908152600e6020526040902054421115610b71576040805160e560020a62461bcd0281526020600482015260176024820152600080516020613674833981519152604482015290519081900360640190fd5b6000610b7e878787612ae3565b9050600160a060020a03811615610c9057610b9a338287612cb2565b1515600114610ba857600080fd5b8560ff1660011415610c1757600054610bcd90600160a060020a031633896001612d91565b60ff87166000908152601a60209081526040808320815180830190925288825242828401908152815460018181018455928652939094209151600290930290910191825591519101555b8560ff1660021415610c8657600054610c3c90600160a060020a031633896001612f15565b60ff87166000908152601b60209081526040808320815180830190925288825242828401908152815460018181018455928652939094209151600290930290910191825591519101555b6001935050610c96565b60009350505b50509392505050565b600085838060ff1660011415610d075760ff8216600090815260046020526040902054421115610d07576040805160e560020a62461bcd0281526020600482015260176024820152600080516020613674833981519152604482015290519081900360640190fd5b8060ff1660021415610d6b5760ff82166000908152600e6020526040902054421115610d6b576040805160e560020a62461bcd0281526020600482015260176024820152600080516020613674833981519152604482015290519081900360640190fd5b60008060005b336000908152601e6020908152604080832060ff8f16845290915290205481101561126857336000908152601e6020908152604080832060ff8f1684529091529020805482908110610dbf57fe5b9060005260206000200154925088601c60008d60ff1660ff1681526020019081526020016000208481548110610df157fe5b906000526020600020906003020160010154148015610e3f575060ff8b166000818152601c60205260409020805485908110610e2957fe5b600091825260209091206003909102015460ff16145b8015610e84575060ff8b81166000908152601c602052604090208054918c169185908110610e6957fe5b6000918252602090912060039091020154610100900460ff16145b156112265760ff8b166000908152601c60205260408120805485908110610ea757fe5b906000526020600020906003020160020160006101000a81548160ff021916908315150217905550601d600033600160a060020a0316600160a060020a0316815260200190815260200160002060008c60ff1660ff168152602001908152602001600020600081819054906101000a900460ff16809291906001900391906101000a81548160ff021916908360ff160217905550508760ff1660011415610f6657600054610f6190600160a060020a0316338d6001612d91565b610f8b565b8760ff1660021415610f8b57600054610f8b90600160a060020a0316338d6001612f15565b6040805160ff808e1682528c1660208201528082018b905290517fde0197d7a686632e0283613ea86f8fd1d2c8bbce9e2d8e4cd657d9220d12b2e79181900360600190a18760ff1660011415610ffa57600054610ff5903390600160a060020a03168d6001612d91565b611020565b8760ff166002141561102057600054611020903390600160a060020a03168d6001612f15565b601c60008c60ff1660ff1681526020019081526020016000206040518060a001604052808d60ff1681526020018a60ff16815260200133600160a060020a0316815260200189815260200160011515815250908060018154018082558091505060019003906000526020600020906003020160009091909190915060008201518160000160006101000a81548160ff021916908360ff16021790555060208201518160000160016101000a81548160ff021916908360ff16021790555060408201518160000160026101000a815481600160a060020a030219169083600160a060020a031602179055506060820151816001015560808201518160020160006101000a81548160ff02191690831515021790555050506001601c60008d60ff1660ff16815260200190815260200160002080549050039150601d600033600160a060020a0316600160a060020a0316815260200190815260200160002060008c60ff1660ff168152602001908152602001600020600081819054906101000a900460ff168092919060010191906101000a81548160ff021916908360ff1602179055505081601e600033600160a060020a0316600160a060020a0316815260200190815260200160002060008d60ff1660ff168152602001908152602001600020848154811061120c57fe5b9060005260206000200181905550600195505050506112b4565b82611260576040517f1f4ac37a6b99091b4eaf5d1b74c150c6aaf9b354c2cc2d5587c1502df00ff86f90600090a1600095505050506112b4565b600101610d71565b506040805160ff808d1682528b1660208201528082018a905290517f5490fcdd3ff1f84f7a0ea2495363b207849cbc20deb81dc1c7cf3cd84d0844a29181900360600190a16000945050505b505095945050505050565b60ff8083166000908152600260205260409020546060918491161561131c576040805160e560020a62461bcd02815260206004820152601b60248201526000805160206136fa833981519152604482015290519081900360640190fd5b60ff841660009081526017602052604090205460609067ffffffffffffffff8111801561134857600080fd5b50604051908082528060200260200182016040528015611372578160200160208202803683370190505b5090506000808560ff166001141561138c5750600261139c565b8560ff166002141561139c575060015b60005b60ff88166000908152601760205260409020548110156114e25760ff881660008181526017602052604090208054839081106113d757fe5b600091825260209091206003909102015460ff16148015611438575060ff8816600090815260176020526040902080548290811061141157fe5b906000526020600020906003020160020160149054906101000a900460ff16151560011515145b801561147d575060ff88811660009081526017602052604090208054918416918390811061146257fe5b6000918252602090912060039091020154610100900460ff16145b156114da5760ff881660009081526017602052604090208054829081106114a057fe5b906000526020600020906003020160010154670de0b6b3a7640000038484815181106114c857fe5b60209081029190910101526001909201915b60010161139f565b50919695505050505050565b60ff82166000908152601a6020526040902054606090819081908190819067ffffffffffffffff8111801561152257600080fd5b5060405190808252806020026020018201604052801561154c578160200160208202803683370190505b5060ff88166000908152601a602052604090205490915060609067ffffffffffffffff8111801561157c57600080fd5b506040519080825280602002602001820160405280156115a6578160200160208202803683370190505b5060ff89166000908152601b602052604090205490915060609067ffffffffffffffff811180156115d657600080fd5b50604051908082528060200260200182016040528015611600578160200160208202803683370190505b5060ff8a166000908152601b602052604090205490915060609067ffffffffffffffff8111801561163057600080fd5b5060405190808252806020026020018201604052801561165a578160200160208202803683370190505b509050885b60ff8b166000908152601a60205260409020548110156117165760ff8b166000908152601a6020526040902080548290811061169757fe5b9060005260206000209060020201600001548582815181106116b557fe5b602002602001018181525050601a60008c60ff1660ff16815260200190815260200160002081815481106116e557fe5b90600052602060002090600202016001015484828151811061170357fe5b602090810291909101015260010161165f565b50885b60ff8b166000908152601b60205260409020548110156117d05760ff8b166000908152601b6020526040902080548290811061175157fe5b90600052602060002090600202016000015483828151811061176f57fe5b602002602001018181525050601b60008c60ff1660ff168152602001908152602001600020818154811061179f57fe5b9060005260206000209060020201600101548282815181106117bd57fe5b6020908102919091010152600101611719565b509299919850965090945092505050565b336000908152601560205260408120546117fb9034613099565b3360009081526015602052604090205550600190565b60ff80841660009081526002602052604081205490918591161561186d576040805160e560020a62461bcd02815260206004820152601b60248201526000805160206136fa833981519152604482015290519081900360640190fd5b84848060ff16600114156118d35760ff82166000908152600460205260409020544211156118d3576040805160e560020a62461bcd0281526020600482015260176024820152600080516020613674833981519152604482015290519081900360640190fd5b8060ff16600214156119375760ff82166000908152600e6020526040902054421115611937576040805160e560020a62461bcd0281526020600482015260176024820152600080516020613674833981519152604482015290519081900360640190fd5b600080808860ff166001141561194f5750600261195f565b8860ff166002141561195f575060015b60005b60ff8b16600090815260176020526040902054811015611ad75760ff8b16600081815260176020526040902080548390811061199a57fe5b600091825260209091206003909102015460ff161480156119fb575060ff8b1660009081526017602052604090208054829081106119d457fe5b906000526020600020906003020160020160149054906101000a900460ff16151560011515145b8015611a42575060ff8b1660009081526017602052604090208054670de0b6b3a76400008b9003919083908110611a2e57fe5b906000526020600020906003020160010154145b8015611a87575060ff8b8116600090815260176020526040902080549184169183908110611a6c57fe5b6000918252602090912060039091020154610100900460ff16145b15611acf5760ff8b1660009081526017602052604090208054919350839182908110611aaf57fe5b6000918252602090912060026003909202010154600160a060020a031693505b600101611962565b50600160a060020a038316611af25760009650505050611e3f565b611afc33896130f6565b1515600114611b47576040805160e560020a62461bcd02815260206004820152600c602482015260a260020a6b1c185e5b595b9d0819985a5b02604482015290519081900360640190fd5b611b5b8389670de0b6b3a7640000036130f6565b1515600114611ba6576040805160e560020a62461bcd02815260206004820152600c602482015260a260020a6b1c185e5b595b9d0819985a5b02604482015290519081900360640190fd5b8860ff1660011415611c455760ff8a166000818152601a60209081526040808320815180830183528d81524281850181815283546001818101865594885286882093516002918202909401938455905192840192909255958552601b84528285208351808501909452670de0b6b3a76400008f900384528385019687528054808401825590865293909420915192909302019081559151910155611ce0565b8860ff1660021415611ce05760ff8a166000818152601b60209081526040808320815180830183528d81524281850181815283546001818101865594885286882093516002918202909401938455905192840192909255958552601a84528285208351808501909452670de0b6b3a76400008f9003845283850196875280548084018255908652939094209151929093020190815591519101555b8860ff1660011415611d4557611cf8338b60016131b5565b60ff8a1660009081526017602052604090208054611d40919084908110611d1b57fe5b6000918252602090912060026003909202010154600160a060020a03168b60016131d1565b611da5565b8860ff1660021415611da557611d5d338b60016131d1565b60ff8a1660009081526017602052604090208054611da5919084908110611d8057fe5b6000918252602090912060026003909202010154600160a060020a03168b60016131b5565b60ff8a166000908152601760205260408120805484908110611dc357fe5b60009182526020808320600260039093020191909101805493151560a060020a0260a060020a60ff021990941693909317909255600160a060020a0390941680855260198252604080862060ff8e16808852908452818720805460ff191690559186526018835280862091865291528320929092555060019450505b5050509392505050565b60ff808416600090815260026020526040812054909185911615611ea5576040805160e560020a62461bcd02815260206004820152601b60248201526000805160206136fa833981519152604482015290519081900360640190fd5b84848060ff1660011415611f0b5760ff8216600090815260046020526040902054421115611f0b576040805160e560020a62461bcd0281526020600482015260176024820152600080516020613674833981519152604482015290519081900360640190fd5b8060ff1660021415611f6f5760ff82166000908152600e6020526040902054421115611f6f576040805160e560020a62461bcd0281526020600482015260176024820152600080516020613674833981519152604482015290519081900360640190fd5b33600090815260196020908152604080832060ff808c1685529252822054166121105733600090815260196020908152604080832060ff808d1685529083529281902054815185815293161591830191909152606082820181905260059083015260d960020a6434b71034b3026080830152517f9ae936e1da821355cc5da848e823135a04d310da41f4c37395073420f9be5d399181900360a00190a15060ff8088166000818152601760209081526040808320815160a0810183528581528c87168185019081528184018d8152336060840181815260016080860181815287548083018955888c528a8c2097516003909102909701805496518e166101000261ff001998909e1660ff1997881617979097169c909c17865592518584015551600290940180549a51151560a060020a0260a060020a60ff0219600160a060020a0396909616600160a060020a0319909c169b909b1794909416999099179092559154878652601885528386208787528552838620600019919091019055958452601983528184209484529390915290208054909116821790559350611e3f565b33600090815260196020908152604080832060ff808d1685529083529281902054815185815293161591830191909152606082820181905260079083015260c860020a66696e20656c7365026080830152517f9ae936e1da821355cc5da848e823135a04d310da41f4c37395073420f9be5d399181900360a00190a15033600090815260186020908152604080832060ff8b168452825280832054601790925282208054919291839081106121c157fe5b906000526020600020906003020160020160146101000a81548160ff02191690831515021790555087601760008a60ff1660ff168152602001908152602001600020828154811061220e57fe5b60009182526020808320600392909202909101805460ff191660ff948516179055918a16815260179091526040902080548891908390811061224c57fe5b60009182526020808320600392909202909101805461ff00191661010060ff95861602179055918a16815260179091526040902080548791908390811061228f57fe5b90600052602060002090600302016001018190555033601760008a60ff1660ff16815260200190815260200160002082815481106122c957fe5b906000526020600020906003020160020160006101000a815481600160a060020a030219169083600160a060020a031602179055506001601760008a60ff1660ff168152602001908152602001600020828154811061232457fe5b906000526020600020906003020160020160146101000a81548160ff0219169083151502179055506001945050611e3f565b60ff1660009081526003602052604090205490565b60008054600160a060020a0316331461238357600080fd5b6016546123909034613099565b60165550600190565b600160a060020a0382166000908152600b6020908152604080832060ff8516845290915290205492915050565b600054600160a060020a031633146123dd57600080fd5b600160a060020a0381166123f057600080fd5b60008054604051600160a060020a03808516939216917f8be0079c531659141344cd1fd0a4f28419497f9722a3daafe3b4186f6b6457e091a360008054600160a060020a031916600160a060020a0392909216919091179055565b600083838060ff16600114156124b35760ff82166000908152600460205260409020544211156124b3576040805160e560020a62461bcd0281526020600482015260176024820152600080516020613674833981519152604482015290519081900360640190fd5b8060ff16600214156125175760ff82166000908152600e6020526040902054421115612517576040805160e560020a62461bcd0281526020600482015260176024820152600080516020613674833981519152604482015290519081900360640190fd5b336000908152601d6020908152604080832060ff808b168552925290912054600a91161115612590576040805160e560020a62461bcd02815260206004820152601660248201527f596f75722073756767657374732069732066756c6c2e00000000000000000000604482015290519081900360640190fd5b60008560ff16600114156125bd576000546125b8903390600160a060020a0316896001612d91565b6125e3565b8560ff16600214156125e3576000546125e3903390600160a060020a0316896001612f15565b601c60008860ff1660ff1681526020019081526020016000206040518060a001604052808960ff1681526020018860ff16815260200133600160a060020a0316815260200187815260200160011515815250908060018154018082558091505060019003906000526020600020906003020160009091909190915060008201518160000160006101000a81548160ff021916908360ff16021790555060208201518160000160016101000a81548160ff021916908360ff16021790555060408201518160000160026101000a815481600160a060020a030219169083600160a060020a031602179055506060820151816001015560808201518160020160006101000a81548160ff02191690831515021790555050506001601c60008960ff1660ff16815260200190815260200160002080549050039050601d600033600160a060020a0316600160a060020a0316815260200190815260200160002060008860ff1660ff168152602001908152602001600020600081819054906101000a900460ff168092919060010191906101000a81548160ff021916908360ff16021790555050601e600033600160a060020a0316600160a060020a0316815260200190815260200160002060008860ff1660ff168152602001908152602001600020819080600181540180825580915050600190039060005260206000200160009091909190915055600193505050509392505050565b6000816016541015612854576040805160e560020a62461bcd02815260206004820152601f60248201527f4f776e657220646f65736e2774206861766520656e6f756768206d6f6e657900604482015290519081900360640190fd5b60165461286190836131e8565b601655600160a060020a0383166000908152601560205260409020546128879083613099565b600160a060020a03841660009081526015602052604090205550600192915050565b600160a060020a0383166128f15760405160e560020a62461bcd0281526004018080602001828103825260218152602001806136b46021913960400191505060405180910390fd5b61293c8160405180606001604052806022815260200161360c60229139600160a060020a038616600090815260016020908152604080832060ff891684529091529020549190613226565b600160a060020a038416600090815260016020908152604080832060ff8716845282528083209390935560039052205461297690826131e8565b60ff83166000818152600360209081526040808320949094558351928352820184905282519092600160a060020a03871692600080516020613694833981519152929081900390910190a3505050565b600160a060020a038316612a0e5760405160e560020a62461bcd0281526004018080602001828103825260218152602001806136b46021913960400191505060405180910390fd5b612a598160405180606001604052806022815260200161360c60229139600160a060020a0386166000908152600b6020908152604080832060ff891684529091529020549190613226565b600160a060020a0384166000908152600b6020908152604080832060ff87168452825280832093909355600d90522054612a9390826131e8565b60ff83166000818152600d60209081526040808320949094558351928352820184905282519092600160a060020a03871692600080516020613654833981519152929081900390910190a3505050565b60008060005b60ff86166000908152601c6020526040902054811015612ca45760ff86166000908152601c60205260409020805482908110612b2157fe5b600091825260209091206002600390920201015460ff16151560011415612c9c5760ff86166000818152601c60205260409020805483908110612b6057fe5b600091825260209091206003909102015460ff16148015612bba575060ff8681166000908152601c6020526040902080549187169183908110612b9f57fe5b6000918252602090912060039091020154610100900460ff16145b8015612bf6575060ff86166000908152601c60205260409020805485919083908110612be257fe5b906000526020600020906003020160010154145b15612c9c5760ff86166000908152601c60205260409020805482908110612c1957fe5b906000526020600020906003020160000160029054906101000a9004600160a060020a03169150601c60008760ff1660ff1681526020019081526020016000208181548110612c6457fe5b6000918252602082206003909102018054600160b060020a03191681556001810191909155600201805460ff19169055509050612cab565b600101612ae9565b5060009150505b9392505050565b600160a060020a038316600090815260156020526040812054821115612d1c576040805160e560020a62461bcd0281526020600482015260146024820152606060020a73496e73756666696369656e742062616c616e636502604482015290519081900360640190fd5b600160a060020a038416600090815260156020526040902054612d3f90836131e8565b600160a060020a038086166000908152601560205260408082209390935590851681522054612d6e9083613099565b600160a060020a0384166000908152601560205260409020555060019392505050565b600160a060020a038416612dd95760405160e560020a62461bcd0281526004018080602001828103825260258152602001806136d56025913960400191505060405180910390fd5b600160a060020a038316612e215760405160e560020a62461bcd0281526004018080602001828103825260238152602001806135e96023913960400191505060405180910390fd5b612e6c8160405180606001604052806026815260200161362e60269139600160a060020a038716600090815260016020908152604080832060ff891684529091529020549190613226565b600160a060020a03808616600090815260016020818152604080842060ff891680865290835281852096909655938816835290815282822093825292909252902054612eb89082613099565b600160a060020a03808516600081815260016020908152604080832060ff8916808552908352928190209590955584519182528101859052835191939288169260008051602061369483398151915292918290030190a350505050565b600160a060020a038416612f5d5760405160e560020a62461bcd0281526004018080602001828103825260258152602001806136d56025913960400191505060405180910390fd5b600160a060020a038316612fa55760405160e560020a62461bcd0281526004018080602001828103825260238152602001806135e96023913960400191505060405180910390fd5b612ff08160405180606001604052806026815260200161362e60269139600160a060020a0387166000908152600b6020908152604080832060ff891684529091529020549190613226565b600160a060020a038086166000908152600b6020818152604080842060ff89168086529083528185209690965593881683529081528282209382529290925290205461303c9082613099565b600160a060020a038085166000818152600b6020908152604080832060ff8916808552908352928190209590955584519182528101859052835191939288169260008051602061365483398151915292918290030190a350505050565b600082820183811015612cab576040805160e560020a62461bcd02815260206004820152601b60248201527f536166654d6174683a206164646974696f6e206f766572666c6f770000000000604482015290519081900360640190fd5b600160a060020a038216600090815260156020526040812054821115613160576040805160e560020a62461bcd0281526020600482015260146024820152606060020a73496e73756666696369656e742062616c616e636502604482015290519081900360640190fd5b600160a060020a03831660009081526015602052604090205461318390836131e8565b600160a060020a0384166000908152601560205260409020556016546131a99083613099565b60165550600192915050565b6131c1600083836132c0565b6131cc83838361336e565b505050565b6131dd60008383613482565b6131cc8383836134d4565b6000612cab83836040518060400160405280601e81526020017f536166654d6174683a207375627472616374696f6e206f766572666c6f7700008152505b600081848411156132b85760405160e560020a62461bcd0281526004018080602001828103825283818151815260200191508051906020019080838360005b8381101561327d578181015183820152602001613265565b50505050905090810190601f1680156132aa5780820380516001836020036101000a031916815260200191505b509250505060405180910390fd5b505050900390565b600160a060020a0383166131cc57600a546132e4826132de85612356565b90613099565b14156133085760ff82166000908152600260205260409020805460ff191660011790555b600a54613318826132de85612356565b11156131cc576040805160e560020a62461bcd02815260206004820152601960248201527f45524332304361707065643a2063617020657863656564656400000000000000604482015290519081900360640190fd5b600160a060020a0383166133cc576040805160e560020a62461bcd02815260206004820152601f60248201527f45524332303a206d696e7420746f20746865207a65726f206164647265737300604482015290519081900360640190fd5b60ff82166000908152600360205260409020546133e99082613099565b60ff8316600081815260036020908152604080832094909455600160a060020a0387168252600181528382209282529190915220546134289082613099565b600160a060020a038416600081815260016020908152604080832060ff88168085529083528184209590955580519485529084018590528051929391926000805160206136948339815191529281900390910190a3505050565b600160a060020a0383166131cc576014546134a0826132de85610982565b14156134c45760ff82166000908152600c60205260409020805460ff191660011790555b601454613318826132de85610982565b600160a060020a038316613532576040805160e560020a62461bcd02815260206004820152601f60248201527f45524332303a206d696e7420746f20746865207a65726f206164647265737300604482015290519081900360640190fd5b60ff82166000908152600d602052604090205461354f9082613099565b60ff83166000818152600d6020908152604080832094909455600160a060020a0387168252600b815283822092825291909152205461358e9082613099565b600160a060020a0384166000818152600b6020908152604080832060ff88168085529083528184209590955580519485529084018590528051929391926000805160206136548339815191529281900390910190a350505056fe45524332303a207472616e7366657220746f20746865207a65726f206164647265737345524332303a206275726e20616d6f756e7420657863656564732062616c616e636545524332303a207472616e7366657220616d6f756e7420657863656564732062616c616e6365e900273c6695685a9e29e1549993f395f73358da833b17b4075fde68c584f28165787069726174696f6e2064617465206973206f7665720000000000000000000f684af25f5a740d6a8524c3449595054ae99c1a794cdb7cc0a7cac8542155aa45524332303a206275726e2066726f6d20746865207a65726f206164647265737345524332303a207472616e736665722066726f6d20746865207a65726f20616464726573734d61726b657420446973747269627574696f6e206973206f7665720000000000a2646970667358221220c76b73fb6d25ac95d54d4fc081087f5d74ad588b801295893b4b4d70236b6ea264736f6c63430007000033",
  "immutableReferences": {},
  "source": "pragma solidity ^0.7.0;\nimport \"./tokenTrade.sol\";\n\ncontract Exchange is TokenTrade {\n    uint256 constant private REWARD = 1*10**18;\n    mapping (uint8 => uint8) internal _winnerTokenOf;\n\n    modifier expirationCheck(uint8 _market_id){\n        require (block.timestamp > _expirationDateOf[_market_id], \"the result is not happend yet\");\n        _;\n    }\n\n    function winnerTokenOf(uint8 _market_id) public view returns(uint8){\n        return _winnerTokenOf[_market_id];\n    }\n    //exchange token for eth.\n    function exchange(uint8 _market_id) external expirationCheck(_market_id) returns (bool){\n        uint256 tokenCount;\n        if (1 == winnerTokenOf(_market_id)){\n            tokenCount = balanceOf(msg.sender, _market_id);\n        }\n        else if (2 == winnerTokenOf(_market_id)){\n            tokenCount = balanceOf1(msg.sender, _market_id);\n        }\n        require(rewardTransfer(msg.sender, tokenCount*REWARD)==true);\n        _burn(msg.sender, _market_id, balanceOf(msg.sender, _market_id));\n        _burn1(msg.sender, _market_id, balanceOf1(msg.sender, _market_id));\n    }\n\n}\n\n",
  "sourcePath": "/home/jisoo/pet-projects/Prediction_market/back/contracts/exchange.sol",
  "compiler": {
    "name": "solc",
    "version": "0.7.0+commit.9e61f92b.Emscripten.clang"
  },
  "schemaVersion": "3.3.1",
  "updatedAt": "2020-12-07T00:43:27.590Z",
  "devdoc": {
    "kind": "dev",
    "methods": {
      "balanceOf(address,uint8)": {
        "details": "See {IERC20-balanceOf}."
      },
      "balanceOf1(address,uint8)": {
        "details": "See {IERC20-balanceOf}."
      },
      "cap()": {
        "details": "Returns the cap on the token's total supply."
      },
      "cap1()": {
        "details": "Returns the cap on the token's total supply."
      },
      "totalSupplyOf(uint8)": {
        "details": "See {IERC20-totalSupply}."
      },
      "totalSupplyOf1(uint8)": {
        "details": "See {IERC20-totalSupply}."
      },
      "transferOwnership(address)": {
        "details": "Allows the current owner to transfer control of the contract to a newOwner.",
        "params": {
          "newOwner": "The address to transfer ownership to."
        }
      }
    },
    "version": 1
  },
  "userdoc": {
    "kind": "user",
    "methods": {},
    "version": 1
  }
}