{
  "contractName": "Exchange",
  "abi": [
    {
      "anonymous": false,
      "inputs": [
        {
          "indexed": false,
          "internalType": "uint8",
          "name": "_del_market_id",
          "type": "uint8"
        },
        {
          "indexed": false,
          "internalType": "uint8",
          "name": "_del_tokenKind",
          "type": "uint8"
        },
        {
          "indexed": false,
          "internalType": "uint256",
          "name": "_del_price",
          "type": "uint256"
        }
      ],
      "name": "NoFound",
      "type": "event"
    },
    {
      "anonymous": false,
      "inputs": [],
      "name": "NoIndex",
      "type": "event"
    },
    {
      "anonymous": false,
      "inputs": [
        {
          "indexed": true,
          "internalType": "address",
          "name": "previousOwner",
          "type": "address"
        },
        {
          "indexed": true,
          "internalType": "address",
          "name": "newOwner",
          "type": "address"
        }
      ],
      "name": "OwnershipTransferred",
      "type": "event"
    },
    {
      "anonymous": false,
      "inputs": [
        {
          "indexed": false,
          "internalType": "uint8",
          "name": "_del_market_id",
          "type": "uint8"
        },
        {
          "indexed": false,
          "internalType": "uint8",
          "name": "_del",
          "type": "uint8"
        },
        {
          "indexed": false,
          "internalType": "uint256",
          "name": "_del_price",
          "type": "uint256"
        }
      ],
      "name": "SuggestRemove",
      "type": "event"
    },
    {
      "anonymous": false,
      "inputs": [
        {
          "indexed": true,
          "internalType": "address",
          "name": "from",
          "type": "address"
        },
        {
          "indexed": true,
          "internalType": "address",
          "name": "to",
          "type": "address"
        },
        {
          "indexed": false,
          "internalType": "uint8",
          "name": "_market_id",
          "type": "uint8"
        },
        {
          "indexed": false,
          "internalType": "uint256",
          "name": "value",
          "type": "uint256"
        }
      ],
      "name": "Transfer",
      "type": "event"
    },
    {
      "anonymous": false,
      "inputs": [
        {
          "indexed": true,
          "internalType": "address",
          "name": "from",
          "type": "address"
        },
        {
          "indexed": true,
          "internalType": "address",
          "name": "to",
          "type": "address"
        },
        {
          "indexed": false,
          "internalType": "uint8",
          "name": "_market_id",
          "type": "uint8"
        },
        {
          "indexed": false,
          "internalType": "uint256",
          "name": "value",
          "type": "uint256"
        }
      ],
      "name": "Transfer1",
      "type": "event"
    },
    {
      "inputs": [],
      "name": "addToBalance",
      "outputs": [
        {
          "internalType": "bool",
          "name": "",
          "type": "bool"
        }
      ],
      "stateMutability": "payable",
      "type": "function"
    },
    {
      "inputs": [],
      "name": "addToOwnerPW",
      "outputs": [
        {
          "internalType": "bool",
          "name": "",
          "type": "bool"
        }
      ],
      "stateMutability": "payable",
      "type": "function"
    },
    {
      "inputs": [
        {
          "internalType": "address",
          "name": "account",
          "type": "address"
        },
        {
          "internalType": "uint8",
          "name": "_market_id",
          "type": "uint8"
        }
      ],
      "name": "balanceOf",
      "outputs": [
        {
          "internalType": "uint256",
          "name": "",
          "type": "uint256"
        }
      ],
      "stateMutability": "view",
      "type": "function"
    },
    {
      "inputs": [
        {
          "internalType": "address",
          "name": "account",
          "type": "address"
        },
        {
          "internalType": "uint8",
          "name": "_market_id",
          "type": "uint8"
        }
      ],
      "name": "balanceOf1",
      "outputs": [
        {
          "internalType": "uint256",
          "name": "",
          "type": "uint256"
        }
      ],
      "stateMutability": "view",
      "type": "function"
    },
    {
      "inputs": [],
      "name": "cap",
      "outputs": [
        {
          "internalType": "uint256",
          "name": "",
          "type": "uint256"
        }
      ],
      "stateMutability": "view",
      "type": "function"
    },
    {
      "inputs": [],
      "name": "cap1",
      "outputs": [
        {
          "internalType": "uint256",
          "name": "",
          "type": "uint256"
        }
      ],
      "stateMutability": "view",
      "type": "function"
    },
    {
      "inputs": [
        {
          "internalType": "uint8",
          "name": "_market_id",
          "type": "uint8"
        },
        {
          "internalType": "uint8",
          "name": "_tokenKind",
          "type": "uint8"
        },
        {
          "internalType": "uint256",
          "name": "_acceptedPrice",
          "type": "uint256"
        }
      ],
      "name": "distribute",
      "outputs": [
        {
          "internalType": "bool",
          "name": "",
          "type": "bool"
        }
      ],
      "stateMutability": "nonpayable",
      "type": "function"
    },
    {
      "inputs": [],
      "name": "getOwnerPW",
      "outputs": [
        {
          "internalType": "uint256",
          "name": "",
          "type": "uint256"
        }
      ],
      "stateMutability": "view",
      "type": "function"
    },
    {
      "inputs": [],
      "name": "getPW",
      "outputs": [
        {
          "internalType": "uint256",
          "name": "",
          "type": "uint256"
        }
      ],
      "stateMutability": "view",
      "type": "function"
    },
    {
      "inputs": [],
      "name": "owner",
      "outputs": [
        {
          "internalType": "address",
          "name": "",
          "type": "address"
        }
      ],
      "stateMutability": "view",
      "type": "function"
    },
    {
      "inputs": [],
      "name": "ownerWithdraw",
      "outputs": [],
      "stateMutability": "nonpayable",
      "type": "function"
    },
    {
      "inputs": [
        {
          "internalType": "uint8",
          "name": "_market_id",
          "type": "uint8"
        },
        {
          "internalType": "uint8",
          "name": "_tokenKind",
          "type": "uint8"
        },
        {
          "internalType": "uint256",
          "name": "_price",
          "type": "uint256"
        }
      ],
      "name": "request",
      "outputs": [
        {
          "internalType": "bool",
          "name": "",
          "type": "bool"
        }
      ],
      "stateMutability": "nonpayable",
      "type": "function"
    },
    {
      "inputs": [
        {
          "internalType": "uint8",
          "name": "_market_id",
          "type": "uint8"
        },
        {
          "internalType": "uint256",
          "name": "_i",
          "type": "uint256"
        }
      ],
      "name": "showCurrent",
      "outputs": [
        {
          "internalType": "uint256[]",
          "name": "priceYes",
          "type": "uint256[]"
        },
        {
          "internalType": "uint256[]",
          "name": "timeYes",
          "type": "uint256[]"
        },
        {
          "internalType": "uint256[]",
          "name": "priceNo",
          "type": "uint256[]"
        },
        {
          "internalType": "uint256[]",
          "name": "timeNo",
          "type": "uint256[]"
        }
      ],
      "stateMutability": "view",
      "type": "function"
    },
    {
      "inputs": [
        {
          "internalType": "uint8",
          "name": "_market_id",
          "type": "uint8"
        },
        {
          "internalType": "uint8",
          "name": "_tokenKind",
          "type": "uint8"
        }
      ],
      "name": "showRequest",
      "outputs": [
        {
          "internalType": "uint256[]",
          "name": "",
          "type": "uint256[]"
        }
      ],
      "stateMutability": "view",
      "type": "function"
    },
    {
      "inputs": [
        {
          "internalType": "uint8",
          "name": "_market_id",
          "type": "uint8"
        },
        {
          "internalType": "uint8",
          "name": "_tokenKind",
          "type": "uint8"
        }
      ],
      "name": "showSuggest",
      "outputs": [
        {
          "internalType": "uint256[]",
          "name": "",
          "type": "uint256[]"
        }
      ],
      "stateMutability": "view",
      "type": "function"
    },
    {
      "inputs": [
        {
          "internalType": "uint8",
          "name": "_market_id",
          "type": "uint8"
        },
        {
          "internalType": "uint8",
          "name": "_tokenKind",
          "type": "uint8"
        },
        {
          "internalType": "uint256",
          "name": "_price",
          "type": "uint256"
        }
      ],
      "name": "suggest",
      "outputs": [
        {
          "internalType": "bool",
          "name": "",
          "type": "bool"
        }
      ],
      "stateMutability": "nonpayable",
      "type": "function"
    },
    {
      "inputs": [
        {
          "internalType": "uint8",
          "name": "_market_id",
          "type": "uint8"
        },
        {
          "internalType": "uint8",
          "name": "_del_tokenKind",
          "type": "uint8"
        },
        {
          "internalType": "uint256",
          "name": "_del_price",
          "type": "uint256"
        },
        {
          "internalType": "uint8",
          "name": "_tokenKind",
          "type": "uint8"
        },
        {
          "internalType": "uint256",
          "name": "_price",
          "type": "uint256"
        }
      ],
      "name": "suggestChange",
      "outputs": [
        {
          "internalType": "bool",
          "name": "",
          "type": "bool"
        }
      ],
      "stateMutability": "nonpayable",
      "type": "function"
    },
    {
      "inputs": [
        {
          "internalType": "uint8",
          "name": "_market_id",
          "type": "uint8"
        }
      ],
      "name": "totalSupplyOf",
      "outputs": [
        {
          "internalType": "uint256",
          "name": "",
          "type": "uint256"
        }
      ],
      "stateMutability": "view",
      "type": "function"
    },
    {
      "inputs": [
        {
          "internalType": "uint8",
          "name": "_market_id",
          "type": "uint8"
        }
      ],
      "name": "totalSupplyOf1",
      "outputs": [
        {
          "internalType": "uint256",
          "name": "",
          "type": "uint256"
        }
      ],
      "stateMutability": "view",
      "type": "function"
    },
    {
      "inputs": [
        {
          "internalType": "uint8",
          "name": "_market_id",
          "type": "uint8"
        },
        {
          "internalType": "uint8",
          "name": "_tokenKind",
          "type": "uint8"
        },
        {
          "internalType": "uint256",
          "name": "_price",
          "type": "uint256"
        }
      ],
      "name": "tradeWant",
      "outputs": [
        {
          "internalType": "bool",
          "name": "",
          "type": "bool"
        }
      ],
      "stateMutability": "nonpayable",
      "type": "function"
    },
    {
      "inputs": [
        {
          "internalType": "address",
          "name": "newOwner",
          "type": "address"
        }
      ],
      "name": "transferOwnership",
      "outputs": [],
      "stateMutability": "nonpayable",
      "type": "function"
    },
    {
      "inputs": [],
      "name": "withdraw",
      "outputs": [],
      "stateMutability": "nonpayable",
      "type": "function"
    },
    {
      "inputs": [
        {
          "internalType": "uint8",
          "name": "_market_id",
          "type": "uint8"
        }
      ],
      "name": "winnerTokenOf",
      "outputs": [
        {
          "internalType": "uint8",
          "name": "",
          "type": "uint8"
        }
      ],
      "stateMutability": "view",
      "type": "function"
    },
    {
      "inputs": [
        {
          "internalType": "uint8",
          "name": "_market_id",
          "type": "uint8"
        },
        {
          "internalType": "uint8",
          "name": "_tokenKind",
          "type": "uint8"
        }
      ],
      "name": "exchange",
      "outputs": [
        {
          "internalType": "bool",
          "name": "",
          "type": "bool"
        }
      ],
      "stateMutability": "nonpayable",
      "type": "function"
    }
  ],
  "bytecode": "0x60806040523480156200001157600080fd5b5060408051808201825260068082527f4e6f436f696e000000000000000000000000000000000000000000000000000060208084019190915283518085018552600281527f4e6f0000000000000000000000000000000000000000000000000000000000008183015284518086018652600781527f596573436f696e000000000000000000000000000000000000000000000000008184019081528651808801909752600387527f59657300000000000000000000000000000000000000000000000000000000009387019390935260008054600160a060020a0319163317905580516103e896929487949293926200010a9262000250565b5080516200012090600790602084019062000250565b50506008805460ff1916601217905550806200019d57604080517f08c379a000000000000000000000000000000000000000000000000000000000815260206004820152601560248201527f45524332304361707065643a2063617020697320300000000000000000000000604482015290519081900360640190fd5b600a558151620001b590601090602085019062000250565b508051620001cb90601190602084019062000250565b50506012805460ff19168117905550806200024757604080517f08c379a000000000000000000000000000000000000000000000000000000000815260206004820152601560248201527f45524332304361707065643a2063617020697320300000000000000000000000604482015290519081900360640190fd5b601455620002ec565b828054600181600116156101000203166002900490600052602060002090601f016020900481019282601f106200029357805160ff1916838001178555620002c3565b82800160010185558215620002c3579182015b82811115620002c3578251825591602001919060010190620002a6565b50620002d1929150620002d5565b5090565b5b80821115620002d15760008155600101620002d6565b61359d80620002fc6000396000f3fe60806040526004361061011e5760e060020a600035046312e85cc181146101235780632104ef4a146101665780632a0f6fc5146101eb5780632c9c85ca1461022a578063355274ea1461023f5780633af9fc6f146102545780633ccfd60b1461029d5780634311de8f146102b45780635065036e146102c957806367412045146102de578063898871c91461031a5780638da5cb5b1461032f578063913d20be1461036057806393f01ae81461039d578063aff74368146103e8578063baad7ac81461041d578063c0e317fb14610573578063c593017f1461057b578063d1b2d67d146105b8578063d53b6392146105f5578063de562a9714610622578063f0e43baf1461062a578063f2fde38b14610666578063f8f29b0714610699575b600080fd5b34801561012f57600080fd5b506101506004803603602081101561014657600080fd5b503560ff166106d6565b6040805160ff9092168252519081900360200190f35b34801561017257600080fd5b5061019b6004803603604081101561018957600080fd5b5060ff813581169160200135166106ee565b60408051602080825283518183015283519192839290830191858101910280838360005b838110156101d75781810151838201526020016101bf565b505050509050019250505060405180910390f35b3480156101f757600080fd5b506102186004803603602081101561020e57600080fd5b503560ff16610952565b60408051918252519081900360200190f35b34801561023657600080fd5b50610218610967565b34801561024b57600080fd5b50610218610986565b34801561026057600080fd5b506102896004803603604081101561027757600080fd5b5060ff8135811691602001351661098c565b604080519115158252519081900360200190f35b3480156102a957600080fd5b506102b2610aae565b005b3480156102c057600080fd5b506102b2610af3565b3480156102d557600080fd5b50610218610b42565b3480156102ea57600080fd5b506102186004803603604081101561030157600080fd5b508035600160a060020a0316906020013560ff16610b55565b34801561032657600080fd5b50610218610b82565b34801561033b57600080fd5b50610344610b88565b60408051600160a060020a039092168252519081900360200190f35b34801561036c57600080fd5b506102896004803603606081101561038357600080fd5b5060ff813581169160208101359091169060400135610b97565b3480156103a957600080fd5b50610289600480360360a08110156103c057600080fd5b5060ff8135811691602081013582169160408201359160608101359091169060800135610d91565b3480156103f457600080fd5b5061019b6004803603604081101561040b57600080fd5b5060ff813581169160200135166113b1565b34801561042957600080fd5b506104506004803603604081101561044057600080fd5b5060ff81351690602001356115e0565b6040518080602001806020018060200180602001858103855289818151815260200191508051906020019060200280838360005b8381101561049c578181015183820152602001610484565b50505050905001858103845288818151815260200191508051906020019060200280838360005b838110156104db5781810151838201526020016104c3565b50505050905001858103835287818151815260200191508051906020019060200280838360005b8381101561051a578181015183820152602001610502565b50505050905001858103825286818151815260200191508051906020019060200280838360005b83811015610559578181015183820152602001610541565b505050509050019850505050505050505060405180910390f35b6102896118d3565b34801561058757600080fd5b506102896004803603606081101561059e57600080fd5b5060ff813581169160208101359091169060400135611903565b3480156105c457600080fd5b50610289600480360360608110156105db57600080fd5b5060ff813581169160208101359091169060400135611e63565b34801561060157600080fd5b506102186004803603602081101561061857600080fd5b503560ff166121a4565b6102896121b9565b34801561063657600080fd5b506102186004803603604081101561064d57600080fd5b508035600160a060020a0316906020013560ff166121e7565b34801561067257600080fd5b506102b26004803603602081101561068957600080fd5b5035600160a060020a0316612214565b3480156106a557600080fd5b50610289600480360360608110156106bc57600080fd5b5060ff813581169160208101359091169060400135612299565b60ff9081166000908152601f60205260409020541690565b606082828060ff16600114156107565760ff8216600090815260046020526040902054421115610756576040805160e560020a62461bcd02815260206004820152601760248201526000805160206134c2833981519152604482015290519081900360640190fd5b8060ff16600214156107ba5760ff82166000908152600e60205260409020544211156107ba576040805160e560020a62461bcd02815260206004820152601760248201526000805160206134c2833981519152604482015290519081900360640190fd5b60ff85166000908152601c602052604090205460609067ffffffffffffffff811180156107e657600080fd5b50604051908082528060200260200182016040528015610810578160200160208202803683370190505b5090506000805b60ff88166000908152601c60205260409020548110156109465760ff88166000908152601c6020526040902080548290811061084f57fe5b600091825260209091206002600390920201015460ff16151560011480156108a6575060ff88166000818152601c6020526040902080548390811061089057fe5b600091825260209091206003909102015460ff16145b80156108eb575060ff8881166000908152601c60205260409020805491891691839081106108d057fe5b6000918252602090912060039091020154610100900460ff16145b1561093e5760ff88166000908152601c6020526040902080548290811061090e57fe5b90600052602060002090600302016001015483838151811061092c57fe5b60209081029190910101526001909101905b600101610817565b50909695505050505050565b60ff166000908152600d602052604090205490565b60008054600160a060020a0316331461097f57600080fd5b5060165490565b600a5490565b60ff8216600090815260046020526040812054839042116109f7576040805160e560020a62461bcd02815260206004820152601d60248201527f74686520726573756c74206973206e6f742068617070656e6420796574000000604482015290519081900360640190fd5b600080610a03866106d6565b60ff168560ff161415610a2d57610a1a3387610b55565b9150610a2633876121e7565b9050610a5b565b610a36866106d6565b60ff168560ff1614610a5b57610a4c33876121e7565b9150610a583387610b55565b90505b610a6f33670de0b6b3a76400008402612646565b1515600114610a7d57600080fd5b610a913387610a8c338a610b55565b6126f7565b610aa53387610aa0338a6121e7565b612814565b50505092915050565b33600081815260156020526040808220805490839055905190929183156108fc02918491818181858888f19350505050158015610aef573d6000803e3d6000fd5b5050565b600054600160a060020a03163314610b0a57600080fd5b601680546000918290556040519091339183156108fc0291849190818181858888f19350505050158015610aef573d6000803e3d6000fd5b3360009081526015602052604090205490565b600160a060020a038216600090815260016020908152604080832060ff8516845290915290205492915050565b60145490565b600054600160a060020a031681565b600083838060ff1660011415610bff5760ff8216600090815260046020526040902054421115610bff576040805160e560020a62461bcd02815260206004820152601760248201526000805160206134c2833981519152604482015290519081900360640190fd5b8060ff1660021415610c635760ff82166000908152600e6020526040902054421115610c63576040805160e560020a62461bcd02815260206004820152601760248201526000805160206134c2833981519152604482015290519081900360640190fd5b6000610c70878787612931565b9050600160a060020a03811615610d8257610c8c338287612b00565b1515600114610c9a57600080fd5b8560ff1660011415610d0957600054610cbf90600160a060020a031633896001612bdf565b60ff87166000908152601a60209081526040808320815180830190925288825242828401908152815460018181018455928652939094209151600290930290910191825591519101555b8560ff1660021415610d7857600054610d2e90600160a060020a031633896001612d63565b60ff87166000908152601b60209081526040808320815180830190925288825242828401908152815460018181018455928652939094209151600290930290910191825591519101555b6001935050610d88565b60009350505b50509392505050565b600085838060ff1660011415610df95760ff8216600090815260046020526040902054421115610df9576040805160e560020a62461bcd02815260206004820152601760248201526000805160206134c2833981519152604482015290519081900360640190fd5b8060ff1660021415610e5d5760ff82166000908152600e6020526040902054421115610e5d576040805160e560020a62461bcd02815260206004820152601760248201526000805160206134c2833981519152604482015290519081900360640190fd5b60008060005b336000908152601e6020908152604080832060ff8f16845290915290205481101561135a57336000908152601e6020908152604080832060ff8f1684529091529020805482908110610eb157fe5b9060005260206000200154925088601c60008d60ff1660ff1681526020019081526020016000208481548110610ee357fe5b906000526020600020906003020160010154148015610f31575060ff8b166000818152601c60205260409020805485908110610f1b57fe5b600091825260209091206003909102015460ff16145b8015610f76575060ff8b81166000908152601c602052604090208054918c169185908110610f5b57fe5b6000918252602090912060039091020154610100900460ff16145b156113185760ff8b166000908152601c60205260408120805485908110610f9957fe5b906000526020600020906003020160020160006101000a81548160ff021916908315150217905550601d600033600160a060020a0316600160a060020a0316815260200190815260200160002060008c60ff1660ff168152602001908152602001600020600081819054906101000a900460ff16809291906001900391906101000a81548160ff021916908360ff160217905550508760ff16600114156110585760005461105390600160a060020a0316338d6001612bdf565b61107d565b8760ff166002141561107d5760005461107d90600160a060020a0316338d6001612d63565b6040805160ff808e1682528c1660208201528082018b905290517fde0197d7a686632e0283613ea86f8fd1d2c8bbce9e2d8e4cd657d9220d12b2e79181900360600190a18760ff16600114156110ec576000546110e7903390600160a060020a03168d6001612bdf565b611112565b8760ff166002141561111257600054611112903390600160a060020a03168d6001612d63565b601c60008c60ff1660ff1681526020019081526020016000206040518060a001604052808d60ff1681526020018a60ff16815260200133600160a060020a0316815260200189815260200160011515815250908060018154018082558091505060019003906000526020600020906003020160009091909190915060008201518160000160006101000a81548160ff021916908360ff16021790555060208201518160000160016101000a81548160ff021916908360ff16021790555060408201518160000160026101000a815481600160a060020a030219169083600160a060020a031602179055506060820151816001015560808201518160020160006101000a81548160ff02191690831515021790555050506001601c60008d60ff1660ff16815260200190815260200160002080549050039150601d600033600160a060020a0316600160a060020a0316815260200190815260200160002060008c60ff1660ff168152602001908152602001600020600081819054906101000a900460ff168092919060010191906101000a81548160ff021916908360ff1602179055505081601e600033600160a060020a0316600160a060020a0316815260200190815260200160002060008d60ff1660ff16815260200190815260200160002084815481106112fe57fe5b9060005260206000200181905550600195505050506113a6565b82611352576040517f1f4ac37a6b99091b4eaf5d1b74c150c6aaf9b354c2cc2d5587c1502df00ff86f90600090a1600095505050506113a6565b600101610e63565b506040805160ff808d1682528b1660208201528082018a905290517f5490fcdd3ff1f84f7a0ea2495363b207849cbc20deb81dc1c7cf3cd84d0844a29181900360600190a16000945050505b505095945050505050565b60ff8083166000908152600260205260409020546060918491161561140e576040805160e560020a62461bcd02815260206004820152601b6024820152600080516020613548833981519152604482015290519081900360640190fd5b60ff841660009081526017602052604090205460609067ffffffffffffffff8111801561143a57600080fd5b50604051908082528060200260200182016040528015611464578160200160208202803683370190505b5090506000808560ff166001141561147e5750600261148e565b8560ff166002141561148e575060015b60005b60ff88166000908152601760205260409020548110156115d45760ff881660008181526017602052604090208054839081106114c957fe5b600091825260209091206003909102015460ff1614801561152a575060ff8816600090815260176020526040902080548290811061150357fe5b906000526020600020906003020160020160149054906101000a900460ff16151560011515145b801561156f575060ff88811660009081526017602052604090208054918416918390811061155457fe5b6000918252602090912060039091020154610100900460ff16145b156115cc5760ff8816600090815260176020526040902080548290811061159257fe5b906000526020600020906003020160010154670de0b6b3a7640000038484815181106115ba57fe5b60209081029190910101526001909201915b600101611491565b50919695505050505050565b60ff82166000908152601a6020526040902054606090819081908190819067ffffffffffffffff8111801561161457600080fd5b5060405190808252806020026020018201604052801561163e578160200160208202803683370190505b5060ff88166000908152601a602052604090205490915060609067ffffffffffffffff8111801561166e57600080fd5b50604051908082528060200260200182016040528015611698578160200160208202803683370190505b5060ff89166000908152601a602052604090205490915060609067ffffffffffffffff811180156116c857600080fd5b506040519080825280602002602001820160405280156116f2578160200160208202803683370190505b5060ff8a166000908152601b602052604090205490915060609067ffffffffffffffff8111801561172257600080fd5b5060405190808252806020026020018201604052801561174c578160200160208202803683370190505b509050885b60ff8b166000908152601a60205260409020548110156118085760ff8b166000908152601a6020526040902080548290811061178957fe5b9060005260206000209060020201600001548582815181106117a757fe5b602002602001018181525050601a60008c60ff1660ff16815260200190815260200160002081815481106117d757fe5b9060005260206000209060020201600101548482815181106117f557fe5b6020908102919091010152600101611751565b50885b60ff8b166000908152601b60205260409020548110156118c25760ff8b166000908152601a6020526040902080548290811061184357fe5b90600052602060002090600202016000015483828151811061186157fe5b602002602001018181525050601a60008c60ff1660ff168152602001908152602001600020818154811061189157fe5b9060005260206000209060020201600101548282815181106118af57fe5b602090810291909101015260010161180b565b509299919850965090945092505050565b336000908152601560205260408120546118ed9034612ee7565b3360009081526015602052604090205550600190565b60ff80841660009081526002602052604081205490918591161561195f576040805160e560020a62461bcd02815260206004820152601b6024820152600080516020613548833981519152604482015290519081900360640190fd5b60008060008660ff166001141561197857506002611988565b8660ff1660021415611988575060015b60005b60ff8916600090815260176020526040902054811015611b115760ff891660008181526017602052604090208054839081106119c357fe5b600091825260209091206003909102015460ff16148015611a24575060ff891660009081526017602052604090208054829081106119fd57fe5b906000526020600020906003020160020160149054906101000a900460ff16151560011515145b8015611a6b575060ff891660009081526017602052604090208054670de0b6b3a7640000899003919083908110611a5757fe5b906000526020600020906003020160010154145b8015611ab0575060ff898116600090815260176020526040902080549184169183908110611a9557fe5b6000918252602090912060039091020154610100900460ff16145b15611afc5760ff891660009081526017602052604090208054919350839182908110611ad857fe5b6000918252602090912060026003909202010154600160a060020a03169350611b09565b6000955050505050611e5b565b60010161198b565b50611b1c3387612f44565b1515600114611b67576040805160e560020a62461bcd02815260206004820152600c602482015260a260020a6b1c185e5b595b9d0819985a5b02604482015290519081900360640190fd5b611b7b8387670de0b6b3a764000003612f44565b1515600114611bc6576040805160e560020a62461bcd02815260206004820152600c602482015260a260020a6b1c185e5b595b9d0819985a5b02604482015290519081900360640190fd5b8660ff1660011415611c655760ff88166000818152601a60209081526040808320815180830183528b81524281850181815283546001818101865594885286882093516002918202909401938455905192840192909255958552601b84528285208351808501909452670de0b6b3a76400008d900384528385019687528054808401825590865293909420915192909302019081559151910155611d00565b8660ff1660021415611d005760ff88166000818152601b60209081526040808320815180830183528b81524281850181815283546001818101865594885286882093516002918202909401938455905192840192909255958552601a84528285208351808501909452670de0b6b3a76400008d9003845283850196875280548084018255908652939094209151929093020190815591519101555b8660ff1660011415611d6557611d1833896001613003565b60ff881660009081526017602052604090208054611d60919084908110611d3b57fe5b6000918252602090912060026003909202010154600160a060020a031689600161301f565b611dc5565b8660ff1660021415611dc557611d7d3389600161301f565b60ff881660009081526017602052604090208054611dc5919084908110611da057fe5b6000918252602090912060026003909202010154600160a060020a0316896001613003565b60ff88166000908152601760205260408120805484908110611de357fe5b60009182526020808320600260039093020191909101805493151560a060020a0260a060020a60ff021990941693909317909255600160a060020a0390941680855260198252604080862060ff8c16808852908452818720805460ff1916905591865260188352808620918652915283209290925550505b509392505050565b60ff808416600090815260026020526040812054909185911615611ebf576040805160e560020a62461bcd02815260206004820152601b6024820152600080516020613548833981519152604482015290519081900360640190fd5b33600090815260196020908152604080832060ff808a168552925282205416611fda575060ff8086166000818152601760209081526040808320815160a0810183528581528a87168185019081528184018b8152336060840181815260016080860181815287548083018955888c528a8c2097516003909102909701805496518e166101000261ff001998909e1660ff1990971696909617969096169b909b1784559151838b01559051600290920180549351151560a060020a0260a060020a60ff0219600160a060020a0394909416600160a060020a031990951694909417929092169290921790559054818552601884528285208686528452828520600019919091019055835260198252822092909152529150611e5b565b5033600090815260186020908152604080832060ff891684528252808320546017909252822080549192918390811061200f57fe5b906000526020600020906003020160020160146101000a81548160ff02191690831515021790555085601760008860ff1660ff168152602001908152602001600020828154811061205c57fe5b60009182526020808320600392909202909101805460ff191660ff948516179055918816815260179091526040902080548691908390811061209a57fe5b60009182526020808320600392909202909101805461ff00191661010060ff9586160217905591881681526017909152604090208054859190839081106120dd57fe5b90600052602060002090600302016001018190555033601760008860ff1660ff168152602001908152602001600020828154811061211757fe5b906000526020600020906003020160020160006101000a815481600160a060020a030219169083600160a060020a031602179055506001601760008860ff1660ff168152602001908152602001600020828154811061217257fe5b906000526020600020906003020160020160146101000a81548160ff0219169083151502179055506001925050611e5b565b60ff1660009081526003602052604090205490565b60008054600160a060020a031633146121d157600080fd5b6016546121de9034612ee7565b60165550600190565b600160a060020a0382166000908152600b6020908152604080832060ff8516845290915290205492915050565b600054600160a060020a0316331461222b57600080fd5b600160a060020a03811661223e57600080fd5b60008054604051600160a060020a03808516939216917f8be0079c531659141344cd1fd0a4f28419497f9722a3daafe3b4186f6b6457e091a360008054600160a060020a031916600160a060020a0392909216919091179055565b600083838060ff16600114156123015760ff8216600090815260046020526040902054421115612301576040805160e560020a62461bcd02815260206004820152601760248201526000805160206134c2833981519152604482015290519081900360640190fd5b8060ff16600214156123655760ff82166000908152600e6020526040902054421115612365576040805160e560020a62461bcd02815260206004820152601760248201526000805160206134c2833981519152604482015290519081900360640190fd5b336000908152601d6020908152604080832060ff808b168552925290912054600a911611156123de576040805160e560020a62461bcd02815260206004820152601660248201527f596f75722073756767657374732069732066756c6c2e00000000000000000000604482015290519081900360640190fd5b60008560ff166001141561240b57600054612406903390600160a060020a0316896001612bdf565b612431565b8560ff166002141561243157600054612431903390600160a060020a0316896001612d63565b601c60008860ff1660ff1681526020019081526020016000206040518060a001604052808960ff1681526020018860ff16815260200133600160a060020a0316815260200187815260200160011515815250908060018154018082558091505060019003906000526020600020906003020160009091909190915060008201518160000160006101000a81548160ff021916908360ff16021790555060208201518160000160016101000a81548160ff021916908360ff16021790555060408201518160000160026101000a815481600160a060020a030219169083600160a060020a031602179055506060820151816001015560808201518160020160006101000a81548160ff02191690831515021790555050506001601c60008960ff1660ff16815260200190815260200160002080549050039050601d600033600160a060020a0316600160a060020a0316815260200190815260200160002060008860ff1660ff168152602001908152602001600020600081819054906101000a900460ff168092919060010191906101000a81548160ff021916908360ff16021790555050601e600033600160a060020a0316600160a060020a0316815260200190815260200160002060008860ff1660ff168152602001908152602001600020819080600181540180825580915050600190039060005260206000200160009091909190915055600193505050509392505050565b60008160165410156126a2576040805160e560020a62461bcd02815260206004820152601f60248201527f4f776e657220646f65736e2774206861766520656e6f756768206d6f6e657900604482015290519081900360640190fd5b6016546126af9083613036565b601655600160a060020a0383166000908152601560205260409020546126d59083612ee7565b600160a060020a03841660009081526015602052604090205550600192915050565b600160a060020a03831661273f5760405160e560020a62461bcd0281526004018080602001828103825260218152602001806135026021913960400191505060405180910390fd5b61278a8160405180606001604052806022815260200161345a60229139600160a060020a038616600090815260016020908152604080832060ff891684529091529020549190613074565b600160a060020a038416600090815260016020908152604080832060ff871684528252808320939093556003905220546127c49082613036565b60ff83166000818152600360209081526040808320949094558351928352820184905282519092600160a060020a038716926000805160206134e2833981519152929081900390910190a3505050565b600160a060020a03831661285c5760405160e560020a62461bcd0281526004018080602001828103825260218152602001806135026021913960400191505060405180910390fd5b6128a78160405180606001604052806022815260200161345a60229139600160a060020a0386166000908152600b6020908152604080832060ff891684529091529020549190613074565b600160a060020a0384166000908152600b6020908152604080832060ff87168452825280832093909355600d905220546128e19082613036565b60ff83166000818152600d60209081526040808320949094558351928352820184905282519092600160a060020a038716926000805160206134a2833981519152929081900390910190a3505050565b60008060005b60ff86166000908152601c6020526040902054811015612af25760ff86166000908152601c6020526040902080548290811061296f57fe5b600091825260209091206002600390920201015460ff16151560011415612aea5760ff86166000818152601c602052604090208054839081106129ae57fe5b600091825260209091206003909102015460ff16148015612a08575060ff8681166000908152601c60205260409020805491871691839081106129ed57fe5b6000918252602090912060039091020154610100900460ff16145b8015612a44575060ff86166000908152601c60205260409020805485919083908110612a3057fe5b906000526020600020906003020160010154145b15612aea5760ff86166000908152601c60205260409020805482908110612a6757fe5b906000526020600020906003020160000160029054906101000a9004600160a060020a03169150601c60008760ff1660ff1681526020019081526020016000208181548110612ab257fe5b6000918252602082206003909102018054600160b060020a03191681556001810191909155600201805460ff19169055509050612af9565b600101612937565b5060009150505b9392505050565b600160a060020a038316600090815260156020526040812054821115612b6a576040805160e560020a62461bcd0281526020600482015260146024820152606060020a73496e73756666696369656e742062616c616e636502604482015290519081900360640190fd5b600160a060020a038416600090815260156020526040902054612b8d9083613036565b600160a060020a038086166000908152601560205260408082209390935590851681522054612bbc9083612ee7565b600160a060020a0384166000908152601560205260409020555060019392505050565b600160a060020a038416612c275760405160e560020a62461bcd0281526004018080602001828103825260258152602001806135236025913960400191505060405180910390fd5b600160a060020a038316612c6f5760405160e560020a62461bcd0281526004018080602001828103825260238152602001806134376023913960400191505060405180910390fd5b612cba8160405180606001604052806026815260200161347c60269139600160a060020a038716600090815260016020908152604080832060ff891684529091529020549190613074565b600160a060020a03808616600090815260016020818152604080842060ff891680865290835281852096909655938816835290815282822093825292909252902054612d069082612ee7565b600160a060020a03808516600081815260016020908152604080832060ff891680855290835292819020959095558451918252810185905283519193928816926000805160206134e283398151915292918290030190a350505050565b600160a060020a038416612dab5760405160e560020a62461bcd0281526004018080602001828103825260258152602001806135236025913960400191505060405180910390fd5b600160a060020a038316612df35760405160e560020a62461bcd0281526004018080602001828103825260238152602001806134376023913960400191505060405180910390fd5b612e3e8160405180606001604052806026815260200161347c60269139600160a060020a0387166000908152600b6020908152604080832060ff891684529091529020549190613074565b600160a060020a038086166000908152600b6020818152604080842060ff891680865290835281852096909655938816835290815282822093825292909252902054612e8a9082612ee7565b600160a060020a038085166000818152600b6020908152604080832060ff891680855290835292819020959095558451918252810185905283519193928816926000805160206134a283398151915292918290030190a350505050565b600082820183811015612af9576040805160e560020a62461bcd02815260206004820152601b60248201527f536166654d6174683a206164646974696f6e206f766572666c6f770000000000604482015290519081900360640190fd5b600160a060020a038216600090815260156020526040812054821115612fae576040805160e560020a62461bcd0281526020600482015260146024820152606060020a73496e73756666696369656e742062616c616e636502604482015290519081900360640190fd5b600160a060020a038316600090815260156020526040902054612fd19083613036565b600160a060020a038416600090815260156020526040902055601654612ff79083612ee7565b60165550600192915050565b61300f6000838361310e565b61301a8383836131bc565b505050565b61302b600083836132d0565b61301a838383613322565b6000612af983836040518060400160405280601e81526020017f536166654d6174683a207375627472616374696f6e206f766572666c6f7700008152505b600081848411156131065760405160e560020a62461bcd0281526004018080602001828103825283818151815260200191508051906020019080838360005b838110156130cb5781810151838201526020016130b3565b50505050905090810190601f1680156130f85780820380516001836020036101000a031916815260200191505b509250505060405180910390fd5b505050900390565b600160a060020a03831661301a57600a546131328261312c856121a4565b90612ee7565b14156131565760ff82166000908152600260205260409020805460ff191660011790555b600a546131668261312c856121a4565b111561301a576040805160e560020a62461bcd02815260206004820152601960248201527f45524332304361707065643a2063617020657863656564656400000000000000604482015290519081900360640190fd5b600160a060020a03831661321a576040805160e560020a62461bcd02815260206004820152601f60248201527f45524332303a206d696e7420746f20746865207a65726f206164647265737300604482015290519081900360640190fd5b60ff82166000908152600360205260409020546132379082612ee7565b60ff8316600081815260036020908152604080832094909455600160a060020a0387168252600181528382209282529190915220546132769082612ee7565b600160a060020a038416600081815260016020908152604080832060ff88168085529083528184209590955580519485529084018590528051929391926000805160206134e28339815191529281900390910190a3505050565b600160a060020a03831661301a576014546132ee8261312c85610952565b14156133125760ff82166000908152600c60205260409020805460ff191660011790555b6014546131668261312c85610952565b600160a060020a038316613380576040805160e560020a62461bcd02815260206004820152601f60248201527f45524332303a206d696e7420746f20746865207a65726f206164647265737300604482015290519081900360640190fd5b60ff82166000908152600d602052604090205461339d9082612ee7565b60ff83166000818152600d6020908152604080832094909455600160a060020a0387168252600b81528382209282529190915220546133dc9082612ee7565b600160a060020a0384166000818152600b6020908152604080832060ff88168085529083528184209590955580519485529084018590528051929391926000805160206134a28339815191529281900390910190a350505056fe45524332303a207472616e7366657220746f20746865207a65726f206164647265737345524332303a206275726e20616d6f756e7420657863656564732062616c616e636545524332303a207472616e7366657220616d6f756e7420657863656564732062616c616e6365e900273c6695685a9e29e1549993f395f73358da833b17b4075fde68c584f28165787069726174696f6e2064617465206973206f7665720000000000000000000f684af25f5a740d6a8524c3449595054ae99c1a794cdb7cc0a7cac8542155aa45524332303a206275726e2066726f6d20746865207a65726f206164647265737345524332303a207472616e736665722066726f6d20746865207a65726f20616464726573734d61726b657420446973747269627574696f6e206973206f7665720000000000a264697066735822122062925d634ca2b482403ea1c3658fabc1b3315957ede9648fd42da885b8dddf0064736f6c63430007000033",
  "immutableReferences": {},
  "source": "pragma solidity ^0.7.0;\nimport \"./tokenTrade.sol\";\n\ncontract Exchange is TokenTrade {\n    uint256 constant private REWARD = 1*10**18;\n    mapping (uint8 => uint8) internal _winnerTokenOf;\n\n    modifier expirationCheck(uint8 _market_id){\n        require (block.timestamp > _expirationDateOf[_market_id], \"the result is not happend yet\");\n        _;\n    }\n\n    function winnerTokenOf(uint8 _market_id) public view returns(uint8){\n        return _winnerTokenOf[_market_id];\n    }\n    //exchange token for eth.\n    function exchange(uint8 _market_id, uint8 _tokenKind) external expirationCheck(_market_id) returns (bool){\n        uint256 tokenCount;\n        uint256 burnCount;\n        if (_tokenKind == winnerTokenOf(_market_id)){\n            tokenCount = balanceOf(msg.sender, _market_id);\n            burnCount = balanceOf1(msg.sender, _market_id);    \n        }\n        else if (_tokenKind != winnerTokenOf(_market_id)){\n            tokenCount = balanceOf1(msg.sender, _market_id);\n            burnCount = balanceOf(msg.sender, _market_id);\n        }\n        require(rewardTransfer(msg.sender, tokenCount*REWARD)==true);\n        _burn(msg.sender, _market_id, balanceOf(msg.sender, _market_id));\n        _burn1(msg.sender, _market_id, balanceOf1(msg.sender, _market_id));\n    }\n\n}\n",
  "sourcePath": "/home/jisoo/pet-projects/Prediction_market/back/contracts/exchange.sol",
  "compiler": {
    "name": "solc",
    "version": "0.7.0+commit.9e61f92b.Emscripten.clang"
  },
  "schemaVersion": "3.3.1",
  "updatedAt": "2020-11-28T16:28:51.897Z",
  "devdoc": {
    "kind": "dev",
    "methods": {
      "balanceOf(address,uint8)": {
        "details": "See {IERC20-balanceOf}."
      },
      "balanceOf1(address,uint8)": {
        "details": "See {IERC20-balanceOf}."
      },
      "cap()": {
        "details": "Returns the cap on the token's total supply."
      },
      "cap1()": {
        "details": "Returns the cap on the token's total supply."
      },
      "totalSupplyOf(uint8)": {
        "details": "See {IERC20-totalSupply}."
      },
      "totalSupplyOf1(uint8)": {
        "details": "See {IERC20-totalSupply}."
      },
      "transferOwnership(address)": {
        "details": "Allows the current owner to transfer control of the contract to a newOwner.",
        "params": {
          "newOwner": "The address to transfer ownership to."
        }
      }
    },
    "version": 1
  },
  "userdoc": {
    "kind": "user",
    "methods": {},
    "version": 1
  }
}