{
  "contractName": "Manager",
  "abi": [
    {
      "anonymous": false,
      "inputs": [
        {
          "indexed": false,
          "internalType": "uint8",
          "name": "_del_market_id",
          "type": "uint8"
        },
        {
          "indexed": false,
          "internalType": "uint8",
          "name": "_del_tokenKind",
          "type": "uint8"
        },
        {
          "indexed": false,
          "internalType": "uint256",
          "name": "_del_price",
          "type": "uint256"
        }
      ],
      "name": "NoFound",
      "type": "event"
    },
    {
      "anonymous": false,
      "inputs": [],
      "name": "NoIndex",
      "type": "event"
    },
    {
      "anonymous": false,
      "inputs": [
        {
          "indexed": true,
          "internalType": "address",
          "name": "previousOwner",
          "type": "address"
        },
        {
          "indexed": true,
          "internalType": "address",
          "name": "newOwner",
          "type": "address"
        }
      ],
      "name": "OwnershipTransferred",
      "type": "event"
    },
    {
      "anonymous": false,
      "inputs": [
        {
          "indexed": false,
          "internalType": "uint8",
          "name": "_del_market_id",
          "type": "uint8"
        },
        {
          "indexed": false,
          "internalType": "uint8",
          "name": "_del",
          "type": "uint8"
        },
        {
          "indexed": false,
          "internalType": "uint256",
          "name": "_del_price",
          "type": "uint256"
        }
      ],
      "name": "SuggestRemove",
      "type": "event"
    },
    {
      "anonymous": false,
      "inputs": [
        {
          "indexed": true,
          "internalType": "address",
          "name": "from",
          "type": "address"
        },
        {
          "indexed": true,
          "internalType": "address",
          "name": "to",
          "type": "address"
        },
        {
          "indexed": false,
          "internalType": "uint8",
          "name": "_market_id",
          "type": "uint8"
        },
        {
          "indexed": false,
          "internalType": "uint256",
          "name": "value",
          "type": "uint256"
        }
      ],
      "name": "Transfer",
      "type": "event"
    },
    {
      "anonymous": false,
      "inputs": [
        {
          "indexed": true,
          "internalType": "address",
          "name": "from",
          "type": "address"
        },
        {
          "indexed": true,
          "internalType": "address",
          "name": "to",
          "type": "address"
        },
        {
          "indexed": false,
          "internalType": "uint8",
          "name": "_market_id",
          "type": "uint8"
        },
        {
          "indexed": false,
          "internalType": "uint256",
          "name": "value",
          "type": "uint256"
        }
      ],
      "name": "Transfer1",
      "type": "event"
    },
    {
      "inputs": [],
      "name": "addToBalance",
      "outputs": [
        {
          "internalType": "bool",
          "name": "",
          "type": "bool"
        }
      ],
      "stateMutability": "payable",
      "type": "function",
      "payable": true
    },
    {
      "inputs": [],
      "name": "addToOwnerPW",
      "outputs": [
        {
          "internalType": "bool",
          "name": "",
          "type": "bool"
        }
      ],
      "stateMutability": "payable",
      "type": "function",
      "payable": true
    },
    {
      "inputs": [
        {
          "internalType": "address",
          "name": "account",
          "type": "address"
        },
        {
          "internalType": "uint8",
          "name": "_market_id",
          "type": "uint8"
        }
      ],
      "name": "balanceOf",
      "outputs": [
        {
          "internalType": "uint256",
          "name": "",
          "type": "uint256"
        }
      ],
      "stateMutability": "view",
      "type": "function",
      "constant": true
    },
    {
      "inputs": [
        {
          "internalType": "address",
          "name": "account",
          "type": "address"
        },
        {
          "internalType": "uint8",
          "name": "_market_id",
          "type": "uint8"
        }
      ],
      "name": "balanceOf1",
      "outputs": [
        {
          "internalType": "uint256",
          "name": "",
          "type": "uint256"
        }
      ],
      "stateMutability": "view",
      "type": "function",
      "constant": true
    },
    {
      "inputs": [],
      "name": "cap",
      "outputs": [
        {
          "internalType": "uint256",
          "name": "",
          "type": "uint256"
        }
      ],
      "stateMutability": "view",
      "type": "function",
      "constant": true
    },
    {
      "inputs": [],
      "name": "cap1",
      "outputs": [
        {
          "internalType": "uint256",
          "name": "",
          "type": "uint256"
        }
      ],
      "stateMutability": "view",
      "type": "function",
      "constant": true
    },
    {
      "inputs": [
        {
          "internalType": "uint8",
          "name": "_market_id",
          "type": "uint8"
        },
        {
          "internalType": "uint8",
          "name": "_tokenKind",
          "type": "uint8"
        },
        {
          "internalType": "uint256",
          "name": "_acceptedPrice",
          "type": "uint256"
        }
      ],
      "name": "distribute",
      "outputs": [
        {
          "internalType": "bool",
          "name": "",
          "type": "bool"
        }
      ],
      "stateMutability": "nonpayable",
      "type": "function"
    },
    {
      "inputs": [
        {
          "internalType": "uint8",
          "name": "_market_id",
          "type": "uint8"
        },
        {
          "internalType": "uint8",
          "name": "_tokenKind",
          "type": "uint8"
        }
      ],
      "name": "exchange",
      "outputs": [
        {
          "internalType": "bool",
          "name": "",
          "type": "bool"
        }
      ],
      "stateMutability": "nonpayable",
      "type": "function"
    },
    {
      "inputs": [],
      "name": "getOwnerPW",
      "outputs": [
        {
          "internalType": "uint256",
          "name": "",
          "type": "uint256"
        }
      ],
      "stateMutability": "view",
      "type": "function",
      "constant": true
    },
    {
      "inputs": [],
      "name": "getPW",
      "outputs": [
        {
          "internalType": "uint256",
          "name": "",
          "type": "uint256"
        }
      ],
      "stateMutability": "view",
      "type": "function",
      "constant": true
    },
    {
      "inputs": [],
      "name": "owner",
      "outputs": [
        {
          "internalType": "address",
          "name": "",
          "type": "address"
        }
      ],
      "stateMutability": "view",
      "type": "function",
      "constant": true
    },
    {
      "inputs": [],
      "name": "ownerWithdraw",
      "outputs": [],
      "stateMutability": "nonpayable",
      "type": "function"
    },
    {
      "inputs": [
        {
          "internalType": "uint8",
          "name": "_market_id",
          "type": "uint8"
        },
        {
          "internalType": "uint8",
          "name": "_tokenKind",
          "type": "uint8"
        },
        {
          "internalType": "uint256",
          "name": "_price",
          "type": "uint256"
        }
      ],
      "name": "request",
      "outputs": [
        {
          "internalType": "bool",
          "name": "",
          "type": "bool"
        }
      ],
      "stateMutability": "nonpayable",
      "type": "function"
    },
    {
      "inputs": [
        {
          "internalType": "uint8",
          "name": "_market_id",
          "type": "uint8"
        },
        {
          "internalType": "uint256",
          "name": "_i",
          "type": "uint256"
        }
      ],
      "name": "showCurrent",
      "outputs": [
        {
          "internalType": "uint256[]",
          "name": "priceYes",
          "type": "uint256[]"
        },
        {
          "internalType": "uint256[]",
          "name": "timeYes",
          "type": "uint256[]"
        },
        {
          "internalType": "uint256[]",
          "name": "priceNo",
          "type": "uint256[]"
        },
        {
          "internalType": "uint256[]",
          "name": "timeNo",
          "type": "uint256[]"
        }
      ],
      "stateMutability": "view",
      "type": "function",
      "constant": true
    },
    {
      "inputs": [
        {
          "internalType": "uint8",
          "name": "_market_id",
          "type": "uint8"
        },
        {
          "internalType": "uint8",
          "name": "_tokenKind",
          "type": "uint8"
        }
      ],
      "name": "showRequest",
      "outputs": [
        {
          "internalType": "uint256[]",
          "name": "",
          "type": "uint256[]"
        }
      ],
      "stateMutability": "view",
      "type": "function",
      "constant": true
    },
    {
      "inputs": [
        {
          "internalType": "uint8",
          "name": "_market_id",
          "type": "uint8"
        },
        {
          "internalType": "uint8",
          "name": "_tokenKind",
          "type": "uint8"
        }
      ],
      "name": "showSuggest",
      "outputs": [
        {
          "internalType": "uint256[]",
          "name": "",
          "type": "uint256[]"
        }
      ],
      "stateMutability": "view",
      "type": "function",
      "constant": true
    },
    {
      "inputs": [
        {
          "internalType": "uint8",
          "name": "_market_id",
          "type": "uint8"
        },
        {
          "internalType": "uint8",
          "name": "_tokenKind",
          "type": "uint8"
        },
        {
          "internalType": "uint256",
          "name": "_price",
          "type": "uint256"
        }
      ],
      "name": "suggest",
      "outputs": [
        {
          "internalType": "bool",
          "name": "",
          "type": "bool"
        }
      ],
      "stateMutability": "nonpayable",
      "type": "function"
    },
    {
      "inputs": [
        {
          "internalType": "uint8",
          "name": "_market_id",
          "type": "uint8"
        },
        {
          "internalType": "uint8",
          "name": "_del_tokenKind",
          "type": "uint8"
        },
        {
          "internalType": "uint256",
          "name": "_del_price",
          "type": "uint256"
        },
        {
          "internalType": "uint8",
          "name": "_tokenKind",
          "type": "uint8"
        },
        {
          "internalType": "uint256",
          "name": "_price",
          "type": "uint256"
        }
      ],
      "name": "suggestChange",
      "outputs": [
        {
          "internalType": "bool",
          "name": "",
          "type": "bool"
        }
      ],
      "stateMutability": "nonpayable",
      "type": "function"
    },
    {
      "inputs": [
        {
          "internalType": "uint8",
          "name": "_market_id",
          "type": "uint8"
        }
      ],
      "name": "totalSupplyOf",
      "outputs": [
        {
          "internalType": "uint256",
          "name": "",
          "type": "uint256"
        }
      ],
      "stateMutability": "view",
      "type": "function",
      "constant": true
    },
    {
      "inputs": [
        {
          "internalType": "uint8",
          "name": "_market_id",
          "type": "uint8"
        }
      ],
      "name": "totalSupplyOf1",
      "outputs": [
        {
          "internalType": "uint256",
          "name": "",
          "type": "uint256"
        }
      ],
      "stateMutability": "view",
      "type": "function",
      "constant": true
    },
    {
      "inputs": [
        {
          "internalType": "uint8",
          "name": "_market_id",
          "type": "uint8"
        },
        {
          "internalType": "uint8",
          "name": "_tokenKind",
          "type": "uint8"
        },
        {
          "internalType": "uint256",
          "name": "_price",
          "type": "uint256"
        }
      ],
      "name": "tradeWant",
      "outputs": [
        {
          "internalType": "bool",
          "name": "",
          "type": "bool"
        }
      ],
      "stateMutability": "nonpayable",
      "type": "function"
    },
    {
      "inputs": [
        {
          "internalType": "address",
          "name": "newOwner",
          "type": "address"
        }
      ],
      "name": "transferOwnership",
      "outputs": [],
      "stateMutability": "nonpayable",
      "type": "function"
    },
    {
      "inputs": [
        {
          "internalType": "uint8",
          "name": "_market_id",
          "type": "uint8"
        }
      ],
      "name": "winnerTokenOf",
      "outputs": [
        {
          "internalType": "uint8",
          "name": "",
          "type": "uint8"
        }
      ],
      "stateMutability": "view",
      "type": "function",
      "constant": true
    },
    {
      "inputs": [],
      "name": "withdraw",
      "outputs": [],
      "stateMutability": "nonpayable",
      "type": "function"
    },
    {
      "inputs": [],
      "name": "usableMarketId",
      "outputs": [
        {
          "internalType": "uint8[]",
          "name": "",
          "type": "uint8[]"
        }
      ],
      "stateMutability": "view",
      "type": "function",
      "constant": true
    },
    {
      "inputs": [
        {
          "internalType": "uint8",
          "name": "_market_id",
          "type": "uint8"
        },
        {
          "internalType": "string",
          "name": "_question",
          "type": "string"
        },
        {
          "internalType": "uint256",
          "name": "_expiration_date",
          "type": "uint256"
        }
      ],
      "name": "set_market_id",
      "outputs": [
        {
          "internalType": "bool",
          "name": "",
          "type": "bool"
        }
      ],
      "stateMutability": "nonpayable",
      "type": "function"
    },
    {
      "inputs": [
        {
          "internalType": "uint8",
          "name": "_market_id",
          "type": "uint8"
        },
        {
          "internalType": "uint8",
          "name": "_tokenKind",
          "type": "uint8"
        }
      ],
      "name": "setWinner",
      "outputs": [
        {
          "internalType": "bool",
          "name": "",
          "type": "bool"
        }
      ],
      "stateMutability": "nonpayable",
      "type": "function"
    },
    {
      "inputs": [
        {
          "internalType": "uint8",
          "name": "_market_id",
          "type": "uint8"
        }
      ],
      "name": "endMarket",
      "outputs": [
        {
          "internalType": "bool",
          "name": "",
          "type": "bool"
        }
      ],
      "stateMutability": "nonpayable",
      "type": "function"
    },
    {
      "inputs": [],
      "name": "marketData",
      "outputs": [
        {
          "internalType": "uint8[]",
          "name": "",
          "type": "uint8[]"
        },
        {
          "internalType": "string[]",
          "name": "",
          "type": "string[]"
        },
        {
          "internalType": "uint256[]",
          "name": "",
          "type": "uint256[]"
        }
      ],
      "stateMutability": "view",
      "type": "function",
      "constant": true
    }
  ],
  "bytecode": "0x60806040523480156200001157600080fd5b5060408051808201825260068082527f4e6f436f696e000000000000000000000000000000000000000000000000000060208084019190915283518085018552600281527f4e6f0000000000000000000000000000000000000000000000000000000000008183015284518086018652600781527f596573436f696e000000000000000000000000000000000000000000000000008184019081528651808801909752600387527f59657300000000000000000000000000000000000000000000000000000000009387019390935260008054600160a060020a0319163317905580516103e896929487949293926200010a92620001f3565b50805162000120906007906020840190620001f3565b50506008805460ff19166012179055508062000173576040517f08c379a00000000000000000000000000000000000000000000000000000000081526004016200016a906200028f565b60405180910390fd5b600a5581516200018b906010906020850190620001f3565b508051620001a1906011906020840190620001f3565b50506012805460ff1916811790555080620001ea576040517f08c379a00000000000000000000000000000000000000000000000000000000081526004016200016a906200028f565b601455620002c6565b828054600181600116156101000203166002900490600052602060002090601f016020900481019282601f106200023657805160ff191683800117855562000266565b8280016001018555821562000266579182015b828111156200026657825182559160200191906001019062000249565b506200027492915062000278565b5090565b5b8082111562000274576000815560010162000279565b60208082526015908201527f45524332304361707065643a2063617020697320300000000000000000000000604082015260600190565b613c4a80620002d66000396000f3fe6080604052600436106101555760e060020a600035046312e85cc1811461015a5780632104ef4a146101905780632a0f6fc5146101bd5780632c9c85ca146101ea578063355274ea146101ff5780633af9fc6f146102145780633ccfd60b146102415780634311de8f146102585780635065036e1461026d578063644ae0631461028257806367412045146102a25780637c1469c8146102c2578063801c34ce146102e2578063898871c9146103045780638da5cb5b14610319578063913d20be1461033b57806393f01ae81461035b578063aff743681461037b578063b945b5271461039b578063baad7ac8146103bf578063c0e317fb146103ef578063c593017f146103f7578063d1b2d67d14610417578063d53b639214610437578063de562a9714610457578063f0e43baf1461045f578063f18a147c1461047f578063f2fde38b1461049f578063f8f29b07146104bf575b600080fd5b34801561016657600080fd5b5061017a6101753660046134b5565b6104df565b6040516101879190613b3e565b60405180910390f35b34801561019c57600080fd5b506101b06101ab3660046135ae565b6104fa565b604051610187919061372c565b3480156101c957600080fd5b506101dd6101d83660046134b5565b610720565b6040516101879190613b35565b3480156101f657600080fd5b506101dd610735565b34801561020b57600080fd5b506101dd610754565b34801561022057600080fd5b5061023461022f3660046135ae565b61075a565b604051610187919061382d565b34801561024d57600080fd5b50610256610847565b005b34801561026457600080fd5b5061025661088c565b34801561027957600080fd5b506101dd6108db565b34801561028e57600080fd5b5061023461029d3660046135ae565b6108ee565b3480156102ae57600080fd5b506101dd6102bd366004613481565b610932565b3480156102ce57600080fd5b506102346102dd3660046134b5565b61095f565b3480156102ee57600080fd5b506102f7610a1b565b6040516101879190613797565b34801561031057600080fd5b506101dd610ae1565b34801561032557600080fd5b5061032e610ae7565b6040516101879190613718565b34801561034757600080fd5b506102346103563660046135ca565b610af6565b34801561036757600080fd5b5061023461037636600461360a565b610caa565b34801561038757600080fd5b506101b06103963660046135ae565b611272565b3480156103a757600080fd5b506103b061147d565b604051610187939291906137aa565b3480156103cb57600080fd5b506103df6103da366004613584565b6116f6565b604051610187949392919061373f565b6102346119e5565b34801561040357600080fd5b506102346104123660046135ca565b611a15565b34801561042357600080fd5b506102346104323660046135ca565b611f04565b34801561044357600080fd5b506101dd6104523660046134b5565b612222565b610234612237565b34801561046b57600080fd5b506101dd61047a366004613481565b612265565b34801561048b57600080fd5b5061023461049a3660046134d0565b612292565b3480156104ab57600080fd5b506102566104ba366004613466565b612422565b3480156104cb57600080fd5b506102346104da3660046135ca565b6124a7565b60ff8082166000908152601f6020526040902054165b919050565b606082828060ff16600114156105485760ff82166000908152600460205260409020544211156105485760405160e560020a62461bcd02815260040161053f90613a9e565b60405180910390fd5b8060ff16600214156105895760ff82166000908152600e60205260409020544211156105895760405160e560020a62461bcd02815260040161053f90613a9e565b60ff85166000908152601c60205260409020546060906001604060020a03811180156105b457600080fd5b506040519080825280602002602001820160405280156105de578160200160208202803683370190505b5090506000805b60ff88166000908152601c60205260409020548110156107145760ff88166000908152601c6020526040902080548290811061061d57fe5b600091825260209091206002600390920201015460ff1615156001148015610674575060ff88166000818152601c6020526040902080548390811061065e57fe5b600091825260209091206003909102015460ff16145b80156106b9575060ff8881166000908152601c602052604090208054918916918390811061069e57fe5b6000918252602090912060039091020154610100900460ff16145b1561070c5760ff88166000908152601c602052604090208054829081106106dc57fe5b9060005260206000209060030201600101548383815181106106fa57fe5b60209081029190910101526001909101905b6001016105e5565b50909695505050505050565b60ff166000908152600d602052604090205490565b60008054600160a060020a0316331461074d57600080fd5b5060165490565b600a5490565b60ff8216600090815260046020526040812054839042116107905760405160e560020a62461bcd02815260040161053f906138c8565b60008061079c866104df565b60ff168560ff1614156107c6576107b33387610932565b91506107bf3387612265565b90506107f4565b6107cf866104df565b60ff168560ff16146107f4576107e53387612265565b91506107f13387610932565b90505b61080833670de0b6b3a764000084026127d9565b151560011461081657600080fd5b61082a3387610825338a610932565b612855565b61083e3387610839338a612265565b612951565b50505092915050565b33600081815260156020526040808220805490839055905190929183156108fc02918491818181858888f19350505050158015610888573d6000803e3d6000fd5b5050565b600054600160a060020a031633146108a357600080fd5b601680546000918290556040519091339183156108fc0291849190818181858888f19350505050158015610888573d6000803e3d6000fd5b3360009081526015602052604090205490565b60008054600160a060020a0316331461090657600080fd5b5060ff8281166000908152601f60205260409020805460ff191691831691909117905560015b92915050565b600160a060020a038216600090815260016020908152604080832060ff8516845290915290205492915050565b60008054600160a060020a0316331461097757600080fd5b60ff82166000908152601f60209081526040808320805460ff19169055600590915281206109a491613364565b60ff821660009081526003602090815260408083208390556004825280832083905560028252808320805460ff19169055600f90915281206109e591613364565b5060ff166000908152600d60209081526040808320839055600e8252808320839055600c9091529020805460ff19169055600190565b600054606090600160a060020a03163314610a3557600080fd5b6009546060906001604060020a0381118015610a5057600080fd5b50604051908082528060200260200182016040528015610a7a578160200160208202803683370190505b5090506000805b60095461ffff82161015610ad95760ff80821660009081526002602052604090205416610ad15780838360ff1681518110610ab857fe5b60ff909216602092830291909101909101526001909101905b600101610a81565b509091505090565b60145490565b600054600160a060020a031681565b600083838060ff1660011415610b3b5760ff8216600090815260046020526040902054421115610b3b5760405160e560020a62461bcd02815260040161053f90613a9e565b8060ff1660021415610b7c5760ff82166000908152600e6020526040902054421115610b7c5760405160e560020a62461bcd02815260040161053f90613a9e565b6000610b89878787612a40565b9050600160a060020a03811615610c9b57610ba5338287612c0d565b1515600114610bb357600080fd5b8560ff1660011415610c2257600054610bd890600160a060020a031633896001612cbd565b60ff87166000908152601a60209081526040808320815180830190925288825242828401908152815460018181018455928652939094209151600290930290910191825591519101555b8560ff1660021415610c9157600054610c4790600160a060020a031633896001612e04565b60ff87166000908152601b60209081526040808320815180830190925288825242828401908152815460018181018455928652939094209151600290930290910191825591519101555b6001935050610ca1565b60009350505b50509392505050565b600085838060ff1660011415610cef5760ff8216600090815260046020526040902054421115610cef5760405160e560020a62461bcd02815260040161053f90613a9e565b8060ff1660021415610d305760ff82166000908152600e6020526040902054421115610d305760405160e560020a62461bcd02815260040161053f90613a9e565b60008060005b336000908152601e6020908152604080832060ff8f16845290915290205481101561122457336000908152601e6020908152604080832060ff8f1684529091529020805482908110610d8457fe5b9060005260206000200154925088601c60008d60ff1660ff1681526020019081526020016000208481548110610db657fe5b906000526020600020906003020160010154148015610e04575060ff8b166000818152601c60205260409020805485908110610dee57fe5b600091825260209091206003909102015460ff16145b8015610e49575060ff8b81166000908152601c602052604090208054918c169185908110610e2e57fe5b6000918252602090912060039091020154610100900460ff16145b156111e25760ff8b166000908152601c60205260408120805485908110610e6c57fe5b906000526020600020906003020160020160006101000a81548160ff021916908315150217905550601d600033600160a060020a0316600160a060020a0316815260200190815260200160002060008c60ff1660ff168152602001908152602001600020600081819054906101000a900460ff16809291906001900391906101000a81548160ff021916908360ff160217905550508760ff1660011415610f2b57600054610f2690600160a060020a0316338d6001612cbd565b610f50565b8760ff1660021415610f5057600054610f5090600160a060020a0316338d6001612e04565b7fde0197d7a686632e0283613ea86f8fd1d2c8bbce9e2d8e4cd657d9220d12b2e78b8b8b604051610f8393929190613b5f565b60405180910390a18760ff1660011415610fb657600054610fb1903390600160a060020a03168d6001612cbd565b610fdc565b8760ff1660021415610fdc57600054610fdc903390600160a060020a03168d6001612e04565b601c60008c60ff1660ff1681526020019081526020016000206040518060a001604052808d60ff1681526020018a60ff16815260200133600160a060020a0316815260200189815260200160011515815250908060018154018082558091505060019003906000526020600020906003020160009091909190915060008201518160000160006101000a81548160ff021916908360ff16021790555060208201518160000160016101000a81548160ff021916908360ff16021790555060408201518160000160026101000a815481600160a060020a030219169083600160a060020a031602179055506060820151816001015560808201518160020160006101000a81548160ff02191690831515021790555050506001601c60008d60ff1660ff16815260200190815260200160002080549050039150601d600033600160a060020a0316600160a060020a0316815260200190815260200160002060008c60ff1660ff168152602001908152602001600020600081819054906101000a900460ff168092919060010191906101000a81548160ff021916908360ff1602179055505081601e600033600160a060020a0316600160a060020a0316815260200190815260200160002060008d60ff1660ff16815260200190815260200160002084815481106111c857fe5b906000526020600020018190555060019550505050611267565b8261121c576040517f1f4ac37a6b99091b4eaf5d1b74c150c6aaf9b354c2cc2d5587c1502df00ff86f90600090a160009550505050611267565b600101610d36565b507f5490fcdd3ff1f84f7a0ea2495363b207849cbc20deb81dc1c7cf3cd84d0844a28a8a8a60405161125893929190613b5f565b60405180910390a16000945050505b505095945050505050565b60ff808316600090815260026020526040902054606091849116156112ac5760405160e560020a62461bcd02815260040161053f90613936565b60ff84166000908152601760205260409020546060906001604060020a03811180156112d757600080fd5b50604051908082528060200260200182016040528015611301578160200160208202803683370190505b5090506000808560ff166001141561131b5750600261132b565b8560ff166002141561132b575060015b60005b60ff88166000908152601760205260409020548110156114715760ff8816600081815260176020526040902080548390811061136657fe5b600091825260209091206003909102015460ff161480156113c7575060ff881660009081526017602052604090208054829081106113a057fe5b906000526020600020906003020160020160149054906101000a900460ff16151560011515145b801561140c575060ff8881166000908152601760205260409020805491841691839081106113f157fe5b6000918252602090912060039091020154610100900460ff16145b156114695760ff8816600090815260176020526040902080548290811061142f57fe5b906000526020600020906003020160010154670de0b6b3a76400000384848151811061145757fe5b60209081029190910101526001909201915b60010161132e565b50919695505050505050565b6060806060806009805490506001604060020a038111801561149e57600080fd5b506040519080825280602002602001820160405280156114c8578160200160208202803683370190505b506009549091506060906001604060020a03811180156114e757600080fd5b5060405190808252806020026020018201604052801561151b57816020015b60608152602001906001900390816115065790505b506009549091506060906001604060020a038111801561153a57600080fd5b50604051908082528060200260200182016040528015611564578160200160208202803683370190505b50905060005b6009548110156116e9576009818154811061158157fe5b90600052602060002090602091828204019190069054906101000a900460ff168482815181106115ad57fe5b602002602001019060ff16908160ff1681525050600560008583815181106115d157fe5b602002602001015160ff1660ff1681526020019081526020016000208054600181600116156101000203166002900480601f0160208091040260200160405190810160405280929190818152602001828054600181600116156101000203166002900480156116815780601f1061165657610100808354040283529160200191611681565b820191906000526020600020905b81548152906001019060200180831161166457829003601f168201915b505050505083828151811061169257fe5b6020026020010181905250600460008583815181106116ad57fe5b602002602001015160ff1660ff168152602001908152602001600020548282815181106116d657fe5b602090810291909101015260010161156a565b5091945092509050909192565b60ff82166000908152601a602052604090205460609081908190819081906001604060020a038111801561172957600080fd5b50604051908082528060200260200182016040528015611753578160200160208202803683370190505b5060ff88166000908152601a60205260409020549091506060906001604060020a038111801561178257600080fd5b506040519080825280602002602001820160405280156117ac578160200160208202803683370190505b5060ff89166000908152601a60205260409020549091506060906001604060020a03811180156117db57600080fd5b50604051908082528060200260200182016040528015611805578160200160208202803683370190505b5060ff8a166000908152601b60205260409020549091506060906001604060020a038111801561183457600080fd5b5060405190808252806020026020018201604052801561185e578160200160208202803683370190505b509050885b60ff8b166000908152601a602052604090205481101561191a5760ff8b166000908152601a6020526040902080548290811061189b57fe5b9060005260206000209060020201600001548582815181106118b957fe5b602002602001018181525050601a60008c60ff1660ff16815260200190815260200160002081815481106118e957fe5b90600052602060002090600202016001015484828151811061190757fe5b6020908102919091010152600101611863565b50885b60ff8b166000908152601b60205260409020548110156119d45760ff8b166000908152601a6020526040902080548290811061195557fe5b90600052602060002090600202016000015483828151811061197357fe5b602002602001018181525050601a60008c60ff1660ff16815260200190815260200160002081815481106119a357fe5b9060005260206000209060020201600101548282815181106119c157fe5b602090810291909101015260010161191d565b509299919850965090945092505050565b336000908152601560205260408120546119ff9034612f3d565b3360009081526015602052604090205550600190565b60ff808416600090815260026020526040812054909185911615611a4e5760405160e560020a62461bcd02815260040161053f90613936565b60008060008660ff1660011415611a6757506002611a77565b8660ff1660021415611a77575060015b60005b60ff8916600090815260176020526040902054811015611c005760ff89166000818152601760205260409020805483908110611ab257fe5b600091825260209091206003909102015460ff16148015611b13575060ff89166000908152601760205260409020805482908110611aec57fe5b906000526020600020906003020160020160149054906101000a900460ff16151560011515145b8015611b5a575060ff891660009081526017602052604090208054670de0b6b3a7640000899003919083908110611b4657fe5b906000526020600020906003020160010154145b8015611b9f575060ff898116600090815260176020526040902080549184169183908110611b8457fe5b6000918252602090912060039091020154610100900460ff16145b15611beb5760ff891660009081526017602052604090208054919350839182908110611bc757fe5b6000918252602090912060026003909202010154600160a060020a03169350611bf8565b6000955050505050611efc565b600101611a7a565b50611c0b3387612f65565b1515600114611c2f5760405160e560020a62461bcd02815260040161053f90613ad5565b611c438387670de0b6b3a764000003612f65565b1515600114611c675760405160e560020a62461bcd02815260040161053f90613ad5565b8660ff1660011415611d065760ff88166000818152601a60209081526040808320815180830183528b81524281850181815283546001818101865594885286882093516002918202909401938455905192840192909255958552601b84528285208351808501909452670de0b6b3a76400008d900384528385019687528054808401825590865293909420915192909302019081559151910155611da1565b8660ff1660021415611da15760ff88166000818152601b60209081526040808320815180830183528b81524281850181815283546001818101865594885286882093516002918202909401938455905192840192909255958552601a84528285208351808501909452670de0b6b3a76400008d9003845283850196875280548084018255908652939094209151929093020190815591519101555b8660ff1660011415611e0657611db933896001612ff5565b60ff881660009081526017602052604090208054611e01919084908110611ddc57fe5b6000918252602090912060026003909202010154600160a060020a0316896001613011565b611e66565b8660ff1660021415611e6657611e1e33896001613011565b60ff881660009081526017602052604090208054611e66919084908110611e4157fe5b6000918252602090912060026003909202010154600160a060020a0316896001612ff5565b60ff88166000908152601760205260408120805484908110611e8457fe5b60009182526020808320600260039093020191909101805493151560a060020a0260a060020a60ff021990941693909317909255600160a060020a0390941680855260198252604080862060ff8c16808852908452818720805460ff1916905591865260188352808620918652915283209290925550505b509392505050565b60ff808416600090815260026020526040812054909185911615611f3d5760405160e560020a62461bcd02815260040161053f90613936565b33600090815260196020908152604080832060ff808a168552925282205416612058575060ff8086166000818152601760209081526040808320815160a0810183528581528a87168185019081528184018b8152336060840181815260016080860181815287548083018955888c528a8c2097516003909102909701805496518e166101000261ff001998909e1660ff1990971696909617969096169b909b1784559151838b01559051600290920180549351151560a060020a0260a060020a60ff0219600160a060020a0394909416600160a060020a031990951694909417929092169290921790559054818552601884528285208686528452828520600019919091019055835260198252822092909152529150611efc565b5033600090815260186020908152604080832060ff891684528252808320546017909252822080549192918390811061208d57fe5b906000526020600020906003020160020160146101000a81548160ff02191690831515021790555085601760008860ff1660ff16815260200190815260200160002082815481106120da57fe5b60009182526020808320600392909202909101805460ff191660ff948516179055918816815260179091526040902080548691908390811061211857fe5b60009182526020808320600392909202909101805461ff00191661010060ff95861602179055918816815260179091526040902080548591908390811061215b57fe5b90600052602060002090600302016001018190555033601760008860ff1660ff168152602001908152602001600020828154811061219557fe5b906000526020600020906003020160020160006101000a815481600160a060020a030219169083600160a060020a031602179055506001601760008860ff1660ff16815260200190815260200160002082815481106121f057fe5b906000526020600020906003020160020160146101000a81548160ff0219169083151502179055506001925050611efc565b60ff1660009081526003602052604090205490565b60008054600160a060020a0316331461224f57600080fd5b60165461225c9034612f3d565b60165550600190565b600160a060020a0382166000908152600b6020908152604080832060ff8516845290915290205492915050565b60008054600160a060020a031633146122aa57600080fd5b6122b384613028565b1515600114156123115760ff8085166000908152600260205260409020541615156001141561230c5760ff84166000908152600260209081526040808320805460ff19908116909155600c909252909120805490911690555b6123b0565b60098054600181810190925560208082047f6e1540171b6c0c960b71a7020d9f60077f6af931a8bbf590da0223dacf75c7af01805460ff808a16601f95861661010090810a82810290840219909416939093179093556013805496870181556000529285047f66de8ffda797e3de9c05e8fc57b3bf0ec28a930d40b0d285d93c06501cf6a09001805495909416900a9081029102199092169190911790555b60ff8416600090815260056020908152604090912084516123d3928601906133ab565b5060ff84166000908152600460209081526040808320859055600f82529091208451612401928601906133ab565b505060ff83166000908152600e6020526040902081905560015b9392505050565b600054600160a060020a0316331461243957600080fd5b600160a060020a03811661244c57600080fd5b60008054604051600160a060020a03808516939216917f8be0079c531659141344cd1fd0a4f28419497f9722a3daafe3b4186f6b6457e091a360008054600160a060020a031916600160a060020a0392909216919091179055565b600083838060ff16600114156124ec5760ff82166000908152600460205260409020544211156124ec5760405160e560020a62461bcd02815260040161053f90613a9e565b8060ff166002141561252d5760ff82166000908152600e602052604090205442111561252d5760405160e560020a62461bcd02815260040161053f90613a9e565b336000908152601d6020908152604080832060ff808b168552925290912054600a911611156125715760405160e560020a62461bcd02815260040161053f906139a4565b60008560ff166001141561259e57600054612599903390600160a060020a0316896001612cbd565b6125c4565b8560ff16600214156125c4576000546125c4903390600160a060020a0316896001612e04565b601c60008860ff1660ff1681526020019081526020016000206040518060a001604052808960ff1681526020018860ff16815260200133600160a060020a0316815260200187815260200160011515815250908060018154018082558091505060019003906000526020600020906003020160009091909190915060008201518160000160006101000a81548160ff021916908360ff16021790555060208201518160000160016101000a81548160ff021916908360ff16021790555060408201518160000160026101000a815481600160a060020a030219169083600160a060020a031602179055506060820151816001015560808201518160020160006101000a81548160ff02191690831515021790555050506001601c60008960ff1660ff16815260200190815260200160002080549050039050601d600033600160a060020a0316600160a060020a0316815260200190815260200160002060008860ff1660ff168152602001908152602001600020600081819054906101000a900460ff168092919060010191906101000a81548160ff021916908360ff16021790555050601e600033600160a060020a0316600160a060020a0316815260200190815260200160002060008860ff1660ff168152602001908152602001600020819080600181540180825580915050600190039060005260206000200160009091909190915055600193505050509392505050565b60008160165410156128005760405160e560020a62461bcd02815260040161053f9061396d565b60165461280d9083613088565b601655600160a060020a0383166000908152601560205260409020546128339083612f3d565b600160a060020a03841660009081526015602052604090205550600192915050565b600160a060020a03831661287e5760405160e560020a62461bcd02815260040161053f906139db565b6128c981604051806060016040528060228152602001613b8d60229139600160a060020a038616600090815260016020908152604080832060ff8916845290915290205491906130c6565b600160a060020a038416600090815260016020908152604080832060ff871684528252808320939093556003905220546129039082613088565b60ff8316600090815260036020526040808220929092559051600160a060020a03851690600080516020613bf5833981519152906129449086908690613b4c565b60405180910390a3505050565b600160a060020a03831661297a5760405160e560020a62461bcd02815260040161053f906139db565b6129c581604051806060016040528060228152602001613b8d60229139600160a060020a0386166000908152600b6020908152604080832060ff8916845290915290205491906130c6565b600160a060020a0384166000908152600b6020908152604080832060ff87168452825280832093909355600d905220546129ff9082613088565b60ff83166000908152600d6020526040808220929092559051600160a060020a03851690600080516020613bd5833981519152906129449086908690613b4c565b60008060005b60ff86166000908152601c6020526040902054811015612c015760ff86166000908152601c60205260409020805482908110612a7e57fe5b600091825260209091206002600390920201015460ff16151560011415612bf95760ff86166000818152601c60205260409020805483908110612abd57fe5b600091825260209091206003909102015460ff16148015612b17575060ff8681166000908152601c6020526040902080549187169183908110612afc57fe5b6000918252602090912060039091020154610100900460ff16145b8015612b53575060ff86166000908152601c60205260409020805485919083908110612b3f57fe5b906000526020600020906003020160010154145b15612bf95760ff86166000908152601c60205260409020805482908110612b7657fe5b906000526020600020906003020160000160029054906101000a9004600160a060020a03169150601c60008760ff1660ff1681526020019081526020016000208181548110612bc157fe5b6000918252602082206003909102018054600160b060020a03191681556001810191909155600201805460ff1916905550905061241b565b600101612a46565b50600095945050505050565b600160a060020a038316600090815260156020526040812054821115612c485760405160e560020a62461bcd02815260040161053f906138ff565b600160a060020a038416600090815260156020526040902054612c6b9083613088565b600160a060020a038086166000908152601560205260408082209390935590851681522054612c9a9083612f3d565b600160a060020a0384166000908152601560205260409020555060019392505050565b600160a060020a038416612ce65760405160e560020a62461bcd02815260040161053f90613a1f565b600160a060020a038316612d0f5760405160e560020a62461bcd02815260040161053f9061384b565b612d5a81604051806060016040528060268152602001613baf60269139600160a060020a038716600090815260016020908152604080832060ff8916845290915290205491906130c6565b600160a060020a03808616600090815260016020818152604080842060ff891680865290835281852096909655938816835290815282822093825292909252902054612da69082612f3d565b600160a060020a03808516600081815260016020908152604080832060ff891684529091529081902093909355915190861690600080516020613bf583398151915290612df69086908690613b4c565b60405180910390a350505050565b600160a060020a038416612e2d5760405160e560020a62461bcd02815260040161053f90613a1f565b600160a060020a038316612e565760405160e560020a62461bcd02815260040161053f9061384b565b612ea181604051806060016040528060268152602001613baf60269139600160a060020a0387166000908152600b6020908152604080832060ff8916845290915290205491906130c6565b600160a060020a038086166000908152600b6020818152604080842060ff891680865290835281852096909655938816835290815282822093825292909252902054612eed9082612f3d565b600160a060020a038085166000818152600b6020908152604080832060ff891684529091529081902093909355915190861690600080516020613bd583398151915290612df69086908690613b4c565b60008282018381101561241b5760405160e560020a62461bcd02815260040161053f90613891565b600160a060020a038216600090815260156020526040812054821115612fa05760405160e560020a62461bcd02815260040161053f906138ff565b600160a060020a038316600090815260156020526040902054612fc39083613088565b600160a060020a038416600090815260156020526040902055601654612fe99083612f3d565b60165550600192915050565b613001600083836130f5565b61300c83838361316e565b505050565b61301d60008383613240565b61300c838383613292565b6000805b60095481101561307f578260ff166009828154811061304757fe5b60009182526020918290209181049091015460ff601f9092166101000a90041614156130775760019150506104f5565b60010161302c565b50600092915050565b600061241b83836040518060400160405280601e81526020017f536166654d6174683a207375627472616374696f6e206f766572666c6f7700008152505b600081848411156130ed5760405160e560020a62461bcd02815260040161053f9190613838565b505050900390565b600160a060020a03831661300c57600a546131198261311385612222565b90612f3d565b141561313d5760ff82166000908152600260205260409020805460ff191660011790555b600a5461314d8261311385612222565b111561300c5760405160e560020a62461bcd02815260040161053f90613a67565b600160a060020a0383166131975760405160e560020a62461bcd02815260040161053f90613afe565b60ff82166000908152600360205260409020546131b49082612f3d565b60ff8316600081815260036020908152604080832094909455600160a060020a0387168252600181528382209282529190915220546131f39082612f3d565b600160a060020a038416600081815260016020908152604080832060ff88168452909152808220939093559151909190600080516020613bf5833981519152906129449086908690613b4c565b600160a060020a03831661300c5760145461325e8261311385610720565b14156132825760ff82166000908152600c60205260409020805460ff191660011790555b60145461314d8261311385610720565b600160a060020a0383166132bb5760405160e560020a62461bcd02815260040161053f90613afe565b60ff82166000908152600d60205260409020546132d89082612f3d565b60ff83166000818152600d6020908152604080832094909455600160a060020a0387168252600b81528382209282529190915220546133179082612f3d565b600160a060020a0384166000818152600b6020908152604080832060ff88168452909152808220939093559151909190600080516020613bd5833981519152906129449086908690613b4c565b50805460018160011615610100020316600290046000825580601f1061338a57506133a8565b601f0160209004906000526020600020908101906133a89190613429565b50565b828054600181600116156101000203166002900490600052602060002090601f016020900481019282601f106133ec57805160ff1916838001178555613419565b82800160010185558215613419579182015b828111156134195782518255916020019190600101906133fe565b50613425929150613429565b5090565b5b80821115613425576000815560010161342a565b8035600160a060020a038116811461092c57600080fd5b803560ff8116811461092c57600080fd5b600060208284031215613477578081fd5b61241b838361343e565b60008060408385031215613493578081fd5b61349d848461343e565b91506134ac8460208501613455565b90509250929050565b6000602082840312156134c6578081fd5b61241b8383613455565b6000806000606084860312156134e4578081fd5b6134ee8585613455565b92506020808501356001604060020a038082111561350a578384fd5b818701915087601f83011261351d578384fd5b81358181111561352b578485fd5b604051601f8201601f191681018501838111828210171561354a578687fd5b60405281815283820185018a1015613560578586fd5b81858501868301379081019093019390935250929592945050506040919091013590565b60008060408385031215613596578182fd5b6135a08484613455565b946020939093013593505050565b600080604083850312156135c0578182fd5b61349d8484613455565b6000806000606084860312156135de578283fd5b83356135e981613b7d565b925060208401356135f981613b7d565b929592945050506040919091013590565b600080600080600060a08688031215613621578081fd5b61362b8787613455565b945061363a8760208801613455565b9350604086013592506136508760608801613455565b949793965091946080013592915050565b6000815180845260208085019450808401835b8381101561369057815187529582019590820190600101613674565b509495945050505050565b6000815180845260208085019450808401835b8381101561369057815160ff16875295820195908201906001016136ae565b60008151808452815b818110156136f2576020818501810151868301820152016136d6565b818111156137035782602083870101525b50601f01601f19169290920160200192915050565b600160a060020a0391909116815260200190565b60006020825261241b6020830184613661565b6000608082526137526080830187613661565b82810360208401526137648187613661565b905082810360408401526137788186613661565b9050828103606084015261378c8185613661565b979650505050505050565b60006020825261241b602083018461369b565b6000606082526137bd606083018661369b565b602083820381850152818651808452828401915082838202850101838901865b8381101561380b57601f198784030185526137f98383516136cd565b948601949250908501906001016137dd565b5050868103604088015261381f8189613661565b9a9950505050505050505050565b901515815260200190565b60006020825261241b60208301846136cd565b60208082526023908201527f45524332303a207472616e7366657220746f20746865207a65726f2061646472604082015260e860020a6265737302606082015260800190565b6020808252601b908201527f536166654d6174683a206164646974696f6e206f766572666c6f770000000000604082015260600190565b6020808252601d908201527f74686520726573756c74206973206e6f742068617070656e6420796574000000604082015260600190565b60208082526014908201527f496e73756666696369656e742062616c616e6365000000000000000000000000604082015260600190565b6020808252601b908201527f4d61726b657420446973747269627574696f6e206973206f7665720000000000604082015260600190565b6020808252601f908201527f4f776e657220646f65736e2774206861766520656e6f756768206d6f6e657900604082015260600190565b60208082526016908201527f596f75722073756767657374732069732066756c6c2e00000000000000000000604082015260600190565b60208082526021908201527f45524332303a206275726e2066726f6d20746865207a65726f20616464726573604082015260f860020a607302606082015260800190565b60208082526025908201527f45524332303a207472616e736665722066726f6d20746865207a65726f206164604082015260d860020a64647265737302606082015260800190565b60208082526019908201527f45524332304361707065643a2063617020657863656564656400000000000000604082015260600190565b60208082526017908201527f65787069726174696f6e2064617465206973206f766572000000000000000000604082015260600190565b6020808252600c9082015260a260020a6b1c185e5b595b9d0819985a5b02604082015260600190565b6020808252601f908201527f45524332303a206d696e7420746f20746865207a65726f206164647265737300604082015260600190565b90815260200190565b60ff91909116815260200190565b60ff929092168252602082015260400190565b60ff9384168152919092166020820152604081019190915260600190565b60ff811681146133a857600080fdfe45524332303a206275726e20616d6f756e7420657863656564732062616c616e636545524332303a207472616e7366657220616d6f756e7420657863656564732062616c616e6365e900273c6695685a9e29e1549993f395f73358da833b17b4075fde68c584f2810f684af25f5a740d6a8524c3449595054ae99c1a794cdb7cc0a7cac8542155aaa2646970667358221220cd0e1dfe7b3cf9e3d5b9e0fc76baff99a54f11f8589d806dcae5b7e926d3f44064736f6c63430007000033",
  "immutableReferences": {},
  "source": "pragma solidity ^0.7.0;\npragma experimental ABIEncoderV2;\nimport \"./exchange.sol\";\n\ncontract Manager is Exchange{\n     //   marketid \n    function usableMarketId() external view onlyOwner returns (uint8[] memory){\n        uint8[] memory result = new uint8[](_market_ids.length);\n        uint8 counter;\n        for (uint16 i = 0; i < _market_ids.length ; i++) {\n            if (is_over_distribute[uint8(i)] == false) {\n                result[counter] = uint8(i);\n                counter++;\n            }\n        }\n        return result;\n    }\n    \n    function set_market_id(uint8 _market_id, string memory _question,  uint256 _expiration_date) external onlyOwner returns (bool){\n        if (_already_market_id(_market_id) == true){\n            if ( is_over_distribute[_market_id] == true){\n                is_over_distribute[_market_id] = false;\n                is_over_distribute1[_market_id] = false;\n            }\n        }\n        else {\n            _market_ids.push(_market_id);\n            _market_ids1.push(_market_id);\n        }\n        _questionsOf[_market_id] = _question;\n        _expirationDateOf[_market_id] = _expiration_date;\n        _questionsOf1[_market_id] = _question;\n        _expirationDateOf1[_market_id] = _expiration_date;\n        return true;\n    }\n    \n    function setWinner(uint8 _market_id, uint8 _tokenKind) external onlyOwner returns (bool){\n        _winnerTokenOf[_market_id] = _tokenKind;\n        return true;\n    }\n    \n    function endMarket(uint8 _market_id) external onlyOwner returns (bool){\n        delete _winnerTokenOf[_market_id];\n        delete _questionsOf[_market_id];\n        delete _totalSupply[_market_id];\n        delete _expirationDateOf[_market_id];\n        is_over_distribute[_market_id] = false;\n        delete _questionsOf1[_market_id];\n        delete _totalSupply1[_market_id];\n        delete _expirationDateOf1[_market_id];\n        is_over_distribute1[_market_id] = false;\n        return true;\n    }\n    \n    function marketData() public view returns (uint8[] memory, string[] memory, uint256[] memory){\n        uint8[] memory ids = new uint8[](_market_ids.length);\n        string[] memory questions = new string[](_market_ids.length);\n        uint256[] memory expirationDates = new uint256[](_market_ids.length);\n        for (uint i = 0; i < _market_ids.length; i++){\n            ids[i] = _market_ids[i];\n            questions[i] = _questionsOf[ids[i]];\n            expirationDates[i] = _expirationDateOf[ids[i]];\n        }\n        return (ids, questions, expirationDates);\n    }\n}\n",
  "sourcePath": "/home/jisoo/pet-projects/Prediction_market/back/contracts/manager.sol",
  "compiler": {
    "name": "solc",
    "version": "0.7.0+commit.9e61f92b.Emscripten.clang"
  },
  "schemaVersion": "3.3.1",
  "updatedAt": "2020-11-28T16:29:01.345Z",
  "networkType": "ethereum",
  "devdoc": {
    "kind": "dev",
    "methods": {
      "balanceOf(address,uint8)": {
        "details": "See {IERC20-balanceOf}."
      },
      "balanceOf1(address,uint8)": {
        "details": "See {IERC20-balanceOf}."
      },
      "cap()": {
        "details": "Returns the cap on the token's total supply."
      },
      "cap1()": {
        "details": "Returns the cap on the token's total supply."
      },
      "totalSupplyOf(uint8)": {
        "details": "See {IERC20-totalSupply}."
      },
      "totalSupplyOf1(uint8)": {
        "details": "See {IERC20-totalSupply}."
      },
      "transferOwnership(address)": {
        "details": "Allows the current owner to transfer control of the contract to a newOwner.",
        "params": {
          "newOwner": "The address to transfer ownership to."
        }
      }
    },
    "version": 1
  },
  "userdoc": {
    "kind": "user",
    "methods": {},
    "version": 1
  }
}