{
  "contractName": "Manager",
  "abi": [
    {
      "anonymous": false,
      "inputs": [
        {
          "indexed": false,
          "internalType": "bool",
          "name": "a",
          "type": "bool"
        },
        {
          "indexed": false,
          "internalType": "bool",
          "name": "b",
          "type": "bool"
        },
        {
          "indexed": false,
          "internalType": "bool",
          "name": "c",
          "type": "bool"
        },
        {
          "indexed": false,
          "internalType": "bool",
          "name": "d",
          "type": "bool"
        }
      ],
      "name": "DistributeEmit",
      "type": "event"
    },
    {
      "anonymous": false,
      "inputs": [
        {
          "indexed": false,
          "internalType": "uint8",
          "name": "_del_market_id",
          "type": "uint8"
        },
        {
          "indexed": false,
          "internalType": "uint8",
          "name": "_del_tokenKind",
          "type": "uint8"
        },
        {
          "indexed": false,
          "internalType": "uint256",
          "name": "_del_price",
          "type": "uint256"
        }
      ],
      "name": "NoFound",
      "type": "event"
    },
    {
      "anonymous": false,
      "inputs": [],
      "name": "NoIndex",
      "type": "event"
    },
    {
      "anonymous": false,
      "inputs": [
        {
          "indexed": true,
          "internalType": "address",
          "name": "previousOwner",
          "type": "address"
        },
        {
          "indexed": true,
          "internalType": "address",
          "name": "newOwner",
          "type": "address"
        }
      ],
      "name": "OwnershipTransferred",
      "type": "event"
    },
    {
      "anonymous": false,
      "inputs": [
        {
          "indexed": false,
          "internalType": "uint256",
          "name": "id",
          "type": "uint256"
        },
        {
          "indexed": false,
          "internalType": "bool",
          "name": "comp",
          "type": "bool"
        },
        {
          "indexed": false,
          "internalType": "string",
          "name": "log",
          "type": "string"
        }
      ],
      "name": "RequestEmit",
      "type": "event"
    },
    {
      "anonymous": false,
      "inputs": [
        {
          "indexed": false,
          "internalType": "uint8",
          "name": "_del_market_id",
          "type": "uint8"
        },
        {
          "indexed": false,
          "internalType": "uint8",
          "name": "_del",
          "type": "uint8"
        },
        {
          "indexed": false,
          "internalType": "uint256",
          "name": "_del_price",
          "type": "uint256"
        }
      ],
      "name": "SuggestRemove",
      "type": "event"
    },
    {
      "anonymous": false,
      "inputs": [
        {
          "indexed": true,
          "internalType": "address",
          "name": "from",
          "type": "address"
        },
        {
          "indexed": true,
          "internalType": "address",
          "name": "to",
          "type": "address"
        },
        {
          "indexed": false,
          "internalType": "uint8",
          "name": "_market_id",
          "type": "uint8"
        },
        {
          "indexed": false,
          "internalType": "uint256",
          "name": "value",
          "type": "uint256"
        }
      ],
      "name": "Transfer",
      "type": "event"
    },
    {
      "anonymous": false,
      "inputs": [
        {
          "indexed": true,
          "internalType": "address",
          "name": "from",
          "type": "address"
        },
        {
          "indexed": true,
          "internalType": "address",
          "name": "to",
          "type": "address"
        },
        {
          "indexed": false,
          "internalType": "uint8",
          "name": "_market_id",
          "type": "uint8"
        },
        {
          "indexed": false,
          "internalType": "uint256",
          "name": "value",
          "type": "uint256"
        }
      ],
      "name": "Transfer1",
      "type": "event"
    },
    {
      "inputs": [],
      "name": "addToBalance",
      "outputs": [
        {
          "internalType": "bool",
          "name": "",
          "type": "bool"
        }
      ],
      "stateMutability": "payable",
      "type": "function",
      "payable": true
    },
    {
      "inputs": [],
      "name": "addToOwnerPW",
      "outputs": [
        {
          "internalType": "bool",
          "name": "",
          "type": "bool"
        }
      ],
      "stateMutability": "payable",
      "type": "function",
      "payable": true
    },
    {
      "inputs": [
        {
          "internalType": "address",
          "name": "account",
          "type": "address"
        },
        {
          "internalType": "uint8",
          "name": "_market_id",
          "type": "uint8"
        }
      ],
      "name": "balanceOf",
      "outputs": [
        {
          "internalType": "uint256",
          "name": "",
          "type": "uint256"
        }
      ],
      "stateMutability": "view",
      "type": "function",
      "constant": true
    },
    {
      "inputs": [
        {
          "internalType": "address",
          "name": "account",
          "type": "address"
        },
        {
          "internalType": "uint8",
          "name": "_market_id",
          "type": "uint8"
        }
      ],
      "name": "balanceOf1",
      "outputs": [
        {
          "internalType": "uint256",
          "name": "",
          "type": "uint256"
        }
      ],
      "stateMutability": "view",
      "type": "function",
      "constant": true
    },
    {
      "inputs": [],
      "name": "cap",
      "outputs": [
        {
          "internalType": "uint256",
          "name": "",
          "type": "uint256"
        }
      ],
      "stateMutability": "view",
      "type": "function",
      "constant": true
    },
    {
      "inputs": [],
      "name": "cap1",
      "outputs": [
        {
          "internalType": "uint256",
          "name": "",
          "type": "uint256"
        }
      ],
      "stateMutability": "view",
      "type": "function",
      "constant": true
    },
    {
      "inputs": [
        {
          "internalType": "uint8",
          "name": "_market_id",
          "type": "uint8"
        },
        {
          "internalType": "uint8",
          "name": "_tokenKind",
          "type": "uint8"
        },
        {
          "internalType": "uint256",
          "name": "_acceptedPrice",
          "type": "uint256"
        }
      ],
      "name": "distribute",
      "outputs": [
        {
          "internalType": "bool",
          "name": "",
          "type": "bool"
        }
      ],
      "stateMutability": "nonpayable",
      "type": "function"
    },
    {
      "inputs": [
        {
          "internalType": "uint8",
          "name": "_market_id",
          "type": "uint8"
        }
      ],
      "name": "exchange",
      "outputs": [
        {
          "internalType": "bool",
          "name": "",
          "type": "bool"
        }
      ],
      "stateMutability": "nonpayable",
      "type": "function"
    },
    {
      "inputs": [],
      "name": "getOwnerPW",
      "outputs": [
        {
          "internalType": "uint256",
          "name": "",
          "type": "uint256"
        }
      ],
      "stateMutability": "view",
      "type": "function",
      "constant": true
    },
    {
      "inputs": [],
      "name": "getPW",
      "outputs": [
        {
          "internalType": "uint256",
          "name": "",
          "type": "uint256"
        }
      ],
      "stateMutability": "view",
      "type": "function",
      "constant": true
    },
    {
      "inputs": [],
      "name": "owner",
      "outputs": [
        {
          "internalType": "address",
          "name": "",
          "type": "address"
        }
      ],
      "stateMutability": "view",
      "type": "function",
      "constant": true
    },
    {
      "inputs": [],
      "name": "ownerWithdraw",
      "outputs": [],
      "stateMutability": "nonpayable",
      "type": "function"
    },
    {
      "inputs": [
        {
          "internalType": "uint8",
          "name": "_market_id",
          "type": "uint8"
        },
        {
          "internalType": "uint8",
          "name": "_tokenKind",
          "type": "uint8"
        },
        {
          "internalType": "uint256",
          "name": "_price",
          "type": "uint256"
        }
      ],
      "name": "request",
      "outputs": [
        {
          "internalType": "bool",
          "name": "",
          "type": "bool"
        }
      ],
      "stateMutability": "nonpayable",
      "type": "function"
    },
    {
      "inputs": [
        {
          "internalType": "uint8",
          "name": "_market_id",
          "type": "uint8"
        },
        {
          "internalType": "uint256",
          "name": "_i",
          "type": "uint256"
        }
      ],
      "name": "showCurrent",
      "outputs": [
        {
          "internalType": "uint256[]",
          "name": "priceYes",
          "type": "uint256[]"
        },
        {
          "internalType": "uint256[]",
          "name": "timeYes",
          "type": "uint256[]"
        },
        {
          "internalType": "uint256[]",
          "name": "priceNo",
          "type": "uint256[]"
        },
        {
          "internalType": "uint256[]",
          "name": "timeNo",
          "type": "uint256[]"
        }
      ],
      "stateMutability": "view",
      "type": "function",
      "constant": true
    },
    {
      "inputs": [
        {
          "internalType": "uint8",
          "name": "_market_id",
          "type": "uint8"
        },
        {
          "internalType": "uint8",
          "name": "_tokenKind",
          "type": "uint8"
        }
      ],
      "name": "showRequest",
      "outputs": [
        {
          "internalType": "uint256[]",
          "name": "",
          "type": "uint256[]"
        }
      ],
      "stateMutability": "view",
      "type": "function",
      "constant": true
    },
    {
      "inputs": [
        {
          "internalType": "uint8",
          "name": "_market_id",
          "type": "uint8"
        },
        {
          "internalType": "uint8",
          "name": "_tokenKind",
          "type": "uint8"
        }
      ],
      "name": "showSuggest",
      "outputs": [
        {
          "internalType": "uint256[]",
          "name": "",
          "type": "uint256[]"
        }
      ],
      "stateMutability": "view",
      "type": "function",
      "constant": true
    },
    {
      "inputs": [
        {
          "internalType": "uint8",
          "name": "_market_id",
          "type": "uint8"
        },
        {
          "internalType": "uint8",
          "name": "_tokenKind",
          "type": "uint8"
        },
        {
          "internalType": "uint256",
          "name": "_price",
          "type": "uint256"
        }
      ],
      "name": "suggest",
      "outputs": [
        {
          "internalType": "bool",
          "name": "",
          "type": "bool"
        }
      ],
      "stateMutability": "nonpayable",
      "type": "function"
    },
    {
      "inputs": [
        {
          "internalType": "uint8",
          "name": "_market_id",
          "type": "uint8"
        },
        {
          "internalType": "uint8",
          "name": "_del_tokenKind",
          "type": "uint8"
        },
        {
          "internalType": "uint256",
          "name": "_del_price",
          "type": "uint256"
        },
        {
          "internalType": "uint8",
          "name": "_tokenKind",
          "type": "uint8"
        },
        {
          "internalType": "uint256",
          "name": "_price",
          "type": "uint256"
        }
      ],
      "name": "suggestChange",
      "outputs": [
        {
          "internalType": "bool",
          "name": "",
          "type": "bool"
        }
      ],
      "stateMutability": "nonpayable",
      "type": "function"
    },
    {
      "inputs": [
        {
          "internalType": "uint8",
          "name": "_market_id",
          "type": "uint8"
        }
      ],
      "name": "totalSupplyOf",
      "outputs": [
        {
          "internalType": "uint256",
          "name": "",
          "type": "uint256"
        }
      ],
      "stateMutability": "view",
      "type": "function",
      "constant": true
    },
    {
      "inputs": [
        {
          "internalType": "uint8",
          "name": "_market_id",
          "type": "uint8"
        }
      ],
      "name": "totalSupplyOf1",
      "outputs": [
        {
          "internalType": "uint256",
          "name": "",
          "type": "uint256"
        }
      ],
      "stateMutability": "view",
      "type": "function",
      "constant": true
    },
    {
      "inputs": [
        {
          "internalType": "uint8",
          "name": "_market_id",
          "type": "uint8"
        },
        {
          "internalType": "uint8",
          "name": "_tokenKind",
          "type": "uint8"
        },
        {
          "internalType": "uint256",
          "name": "_price",
          "type": "uint256"
        }
      ],
      "name": "tradeWant",
      "outputs": [
        {
          "internalType": "bool",
          "name": "",
          "type": "bool"
        }
      ],
      "stateMutability": "nonpayable",
      "type": "function"
    },
    {
      "inputs": [
        {
          "internalType": "address",
          "name": "newOwner",
          "type": "address"
        }
      ],
      "name": "transferOwnership",
      "outputs": [],
      "stateMutability": "nonpayable",
      "type": "function"
    },
    {
      "inputs": [
        {
          "internalType": "uint8",
          "name": "_market_id",
          "type": "uint8"
        }
      ],
      "name": "winnerTokenOf",
      "outputs": [
        {
          "internalType": "uint8",
          "name": "",
          "type": "uint8"
        }
      ],
      "stateMutability": "view",
      "type": "function",
      "constant": true
    },
    {
      "inputs": [],
      "name": "withdraw",
      "outputs": [],
      "stateMutability": "nonpayable",
      "type": "function"
    },
    {
      "inputs": [],
      "name": "usableMarketId",
      "outputs": [
        {
          "internalType": "uint8[]",
          "name": "",
          "type": "uint8[]"
        }
      ],
      "stateMutability": "view",
      "type": "function",
      "constant": true
    },
    {
      "inputs": [
        {
          "internalType": "uint8",
          "name": "_market_id",
          "type": "uint8"
        },
        {
          "internalType": "string",
          "name": "_question",
          "type": "string"
        },
        {
          "internalType": "uint256",
          "name": "_expiration_date",
          "type": "uint256"
        }
      ],
      "name": "set_market_id",
      "outputs": [
        {
          "internalType": "bool",
          "name": "",
          "type": "bool"
        }
      ],
      "stateMutability": "nonpayable",
      "type": "function"
    },
    {
      "inputs": [
        {
          "internalType": "uint8",
          "name": "_market_id",
          "type": "uint8"
        },
        {
          "internalType": "uint8",
          "name": "_tokenKind",
          "type": "uint8"
        }
      ],
      "name": "setWinner",
      "outputs": [
        {
          "internalType": "bool",
          "name": "",
          "type": "bool"
        }
      ],
      "stateMutability": "nonpayable",
      "type": "function"
    },
    {
      "inputs": [
        {
          "internalType": "uint8",
          "name": "_market_id",
          "type": "uint8"
        }
      ],
      "name": "endMarket",
      "outputs": [
        {
          "internalType": "bool",
          "name": "",
          "type": "bool"
        }
      ],
      "stateMutability": "nonpayable",
      "type": "function"
    },
    {
      "inputs": [],
      "name": "marketData",
      "outputs": [
        {
          "internalType": "uint8[]",
          "name": "",
          "type": "uint8[]"
        },
        {
          "internalType": "string[]",
          "name": "",
          "type": "string[]"
        },
        {
          "internalType": "uint256[]",
          "name": "",
          "type": "uint256[]"
        }
      ],
      "stateMutability": "view",
      "type": "function",
      "constant": true
    }
  ],
  "bytecode": "0x60806040523480156200001157600080fd5b5060408051808201825260068082527f4e6f436f696e000000000000000000000000000000000000000000000000000060208084019190915283518085018552600281527f4e6f0000000000000000000000000000000000000000000000000000000000008183015284518086018652600781527f596573436f696e000000000000000000000000000000000000000000000000008184019081528651808801909752600387527f59657300000000000000000000000000000000000000000000000000000000009387019390935260008054600160a060020a0319163317905580516103e896929487949293926200010a92620001f3565b50805162000120906007906020840190620001f3565b50506008805460ff19166012179055508062000173576040517f08c379a00000000000000000000000000000000000000000000000000000000081526004016200016a906200028f565b60405180910390fd5b600a5581516200018b906010906020850190620001f3565b508051620001a1906011906020840190620001f3565b50506012805460ff1916811790555080620001ea576040517f08c379a00000000000000000000000000000000000000000000000000000000081526004016200016a906200028f565b601455620002c6565b828054600181600116156101000203166002900490600052602060002090601f016020900481019282601f106200023657805160ff191683800117855562000266565b8280016001018555821562000266579182015b828111156200026657825182559160200191906001019062000249565b506200027492915062000278565b5090565b5b8082111562000274576000815560010162000279565b60208082526015908201527f45524332304361707065643a2063617020697320300000000000000000000000604082015260600190565b613ddc80620002d66000396000f3fe6080604052600436106101555760e060020a600035046312e85cc1811461015a57806315f42ce9146101905780632104ef4a146101bd5780632a0f6fc5146101ea5780632c9c85ca14610217578063355274ea1461022c5780633ccfd60b146102415780634311de8f146102585780635065036e1461026d578063644ae0631461028257806367412045146102a25780637c1469c8146102c2578063801c34ce146102e2578063898871c9146103045780638da5cb5b14610319578063913d20be1461033b57806393f01ae81461035b578063aff743681461037b578063b945b5271461039b578063baad7ac8146103bf578063c0e317fb146103ef578063c593017f146103f7578063d1b2d67d14610417578063d53b639214610437578063de562a9714610457578063f0e43baf1461045f578063f18a147c1461047f578063f2fde38b1461049f578063f8f29b07146104bf575b600080fd5b34801561016657600080fd5b5061017a6101753660046135e5565b6104df565b6040516101879190613cd0565b60405180910390f35b34801561019c57600080fd5b506101b06101ab3660046135e5565b6104fa565b604051610187919061395d565b3480156101c957600080fd5b506101dd6101d83660046136de565b6105d2565b604051610187919061385c565b3480156101f657600080fd5b5061020a6102053660046135e5565b61076b565b6040516101879190613c65565b34801561022357600080fd5b5061020a610780565b34801561023857600080fd5b5061020a61079f565b34801561024d57600080fd5b506102566107a5565b005b34801561026457600080fd5b506102566107ea565b34801561027957600080fd5b5061020a610839565b34801561028e57600080fd5b506101b061029d3660046136de565b61084c565b3480156102ae57600080fd5b5061020a6102bd3660046135b1565b61088a565b3480156102ce57600080fd5b506101b06102dd3660046135e5565b6108b7565b3480156102ee57600080fd5b506102f7610973565b60405161018791906138c7565b34801561031057600080fd5b5061020a610a39565b34801561032557600080fd5b5061032e610a3f565b6040516101879190613848565b34801561034757600080fd5b506101b06103563660046136fa565b610a4e565b34801561036757600080fd5b506101b061037636600461373a565b610c02565b34801561038757600080fd5b506101dd6103963660046136de565b6111ca565b3480156103a757600080fd5b506103b06113d5565b604051610187939291906138da565b3480156103cb57600080fd5b506103df6103da3660046136b4565b61164e565b604051610187949392919061386f565b6101b061193d565b34801561040357600080fd5b506101b06104123660046136fa565b61196d565b34801561042357600080fd5b506101b06104323660046136fa565b611eee565b34801561044357600080fd5b5061020a6104523660046135e5565b612352565b6101b0612367565b34801561046b57600080fd5b5061020a61047a3660046135b1565b612395565b34801561048b57600080fd5b506101b061049a366004613600565b6123c2565b3480156104ab57600080fd5b506102566104ba366004613596565b612552565b3480156104cb57600080fd5b506101b06104da3660046136fa565b6125d7565b60ff8082166000908152601f6020526040902054165b919050565b60ff8116600090815260046020526040812054829042116105395760405160e560020a62461bcd028152600401610530906139f8565b60405180910390fd5b6000610544846104df565b60ff166001141561056057610559338561088a565b9050610581565b610569846104df565b60ff16600214156105815761057e3385612395565b90505b61059533670de0b6b3a76400008302612909565b15156001146105a357600080fd5b6105b733856105b2338861088a565b612985565b6105cb33856105c63388612395565b612a81565b5050919050565b60ff82166000908152601c602052604090205460609081906001604060020a03811180156105ff57600080fd5b50604051908082528060200260200182016040528015610629578160200160208202803683370190505b5090506000805b60ff86166000908152601c602052604090205481101561075f5760ff86166000908152601c6020526040902080548290811061066857fe5b600091825260209091206002600390920201015460ff16151560011480156106bf575060ff86166000818152601c602052604090208054839081106106a957fe5b600091825260209091206003909102015460ff16145b8015610704575060ff8681166000908152601c60205260409020805491871691839081106106e957fe5b6000918252602090912060039091020154610100900460ff16145b156107575760ff86166000908152601c6020526040902080548290811061072757fe5b90600052602060002090600302016001015483838151811061074557fe5b60209081029190910101526001909101905b600101610630565b50909150505b92915050565b60ff166000908152600d602052604090205490565b60008054600160a060020a0316331461079857600080fd5b5060165490565b600a5490565b33600081815260156020526040808220805490839055905190929183156108fc02918491818181858888f193505050501580156107e6573d6000803e3d6000fd5b5050565b600054600160a060020a0316331461080157600080fd5b601680546000918290556040519091339183156108fc0291849190818181858888f193505050501580156107e6573d6000803e3d6000fd5b3360009081526015602052604090205490565b60008054600160a060020a0316331461086457600080fd5b5060ff9182166000908152601f60205260409020805460ff191691909216179055600190565b600160a060020a038216600090815260016020908152604080832060ff8516845290915290205492915050565b60008054600160a060020a031633146108cf57600080fd5b60ff82166000908152601f60209081526040808320805460ff19169055600590915281206108fc91613494565b60ff821660009081526003602090815260408083208390556004825280832083905560028252808320805460ff19169055600f909152812061093d91613494565b5060ff166000908152600d60209081526040808320839055600e8252808320839055600c9091529020805460ff19169055600190565b600054606090600160a060020a0316331461098d57600080fd5b6009546060906001604060020a03811180156109a857600080fd5b506040519080825280602002602001820160405280156109d2578160200160208202803683370190505b5090506000805b60095461ffff82161015610a315760ff80821660009081526002602052604090205416610a295780838360ff1681518110610a1057fe5b60ff909216602092830291909101909101526001909101905b6001016109d9565b509091505090565b60145490565b600054600160a060020a031681565b600083838060ff1660011415610a935760ff8216600090815260046020526040902054421115610a935760405160e560020a62461bcd02815260040161053090613bce565b8060ff1660021415610ad45760ff82166000908152600e6020526040902054421115610ad45760405160e560020a62461bcd02815260040161053090613bce565b6000610ae1878787612b70565b9050600160a060020a03811615610bf357610afd338287612d3d565b1515600114610b0b57600080fd5b8560ff1660011415610b7a57600054610b3090600160a060020a031633896001612ded565b60ff87166000908152601a60209081526040808320815180830190925288825242828401908152815460018181018455928652939094209151600290930290910191825591519101555b8560ff1660021415610be957600054610b9f90600160a060020a031633896001612f34565b60ff87166000908152601b60209081526040808320815180830190925288825242828401908152815460018181018455928652939094209151600290930290910191825591519101555b6001935050610bf9565b60009350505b50509392505050565b600085838060ff1660011415610c475760ff8216600090815260046020526040902054421115610c475760405160e560020a62461bcd02815260040161053090613bce565b8060ff1660021415610c885760ff82166000908152600e6020526040902054421115610c885760405160e560020a62461bcd02815260040161053090613bce565b60008060005b336000908152601e6020908152604080832060ff8f16845290915290205481101561117c57336000908152601e6020908152604080832060ff8f1684529091529020805482908110610cdc57fe5b9060005260206000200154925088601c60008d60ff1660ff1681526020019081526020016000208481548110610d0e57fe5b906000526020600020906003020160010154148015610d5c575060ff8b166000818152601c60205260409020805485908110610d4657fe5b600091825260209091206003909102015460ff16145b8015610da1575060ff8b81166000908152601c602052604090208054918c169185908110610d8657fe5b6000918252602090912060039091020154610100900460ff16145b1561113a5760ff8b166000908152601c60205260408120805485908110610dc457fe5b906000526020600020906003020160020160006101000a81548160ff021916908315150217905550601d600033600160a060020a0316600160a060020a0316815260200190815260200160002060008c60ff1660ff168152602001908152602001600020600081819054906101000a900460ff16809291906001900391906101000a81548160ff021916908360ff160217905550508760ff1660011415610e8357600054610e7e90600160a060020a0316338d6001612ded565b610ea8565b8760ff1660021415610ea857600054610ea890600160a060020a0316338d6001612f34565b7fde0197d7a686632e0283613ea86f8fd1d2c8bbce9e2d8e4cd657d9220d12b2e78b8b8b604051610edb93929190613cf1565b60405180910390a18760ff1660011415610f0e57600054610f09903390600160a060020a03168d6001612ded565b610f34565b8760ff1660021415610f3457600054610f34903390600160a060020a03168d6001612f34565b601c60008c60ff1660ff1681526020019081526020016000206040518060a001604052808d60ff1681526020018a60ff16815260200133600160a060020a0316815260200189815260200160011515815250908060018154018082558091505060019003906000526020600020906003020160009091909190915060008201518160000160006101000a81548160ff021916908360ff16021790555060208201518160000160016101000a81548160ff021916908360ff16021790555060408201518160000160026101000a815481600160a060020a030219169083600160a060020a031602179055506060820151816001015560808201518160020160006101000a81548160ff02191690831515021790555050506001601c60008d60ff1660ff16815260200190815260200160002080549050039150601d600033600160a060020a0316600160a060020a0316815260200190815260200160002060008c60ff1660ff168152602001908152602001600020600081819054906101000a900460ff168092919060010191906101000a81548160ff021916908360ff1602179055505081601e600033600160a060020a0316600160a060020a0316815260200190815260200160002060008d60ff1660ff168152602001908152602001600020848154811061112057fe5b9060005260206000200181905550600195505050506111bf565b82611174576040517f1f4ac37a6b99091b4eaf5d1b74c150c6aaf9b354c2cc2d5587c1502df00ff86f90600090a1600095505050506111bf565b600101610c8e565b507f5490fcdd3ff1f84f7a0ea2495363b207849cbc20deb81dc1c7cf3cd84d0844a28a8a8a6040516111b093929190613cf1565b60405180910390a16000945050505b505095945050505050565b60ff808316600090815260026020526040902054606091849116156112045760405160e560020a62461bcd02815260040161053090613a66565b60ff84166000908152601760205260409020546060906001604060020a038111801561122f57600080fd5b50604051908082528060200260200182016040528015611259578160200160208202803683370190505b5090506000808560ff166001141561127357506002611283565b8560ff1660021415611283575060015b60005b60ff88166000908152601760205260409020548110156113c95760ff881660008181526017602052604090208054839081106112be57fe5b600091825260209091206003909102015460ff1614801561131f575060ff881660009081526017602052604090208054829081106112f857fe5b906000526020600020906003020160020160149054906101000a900460ff16151560011515145b8015611364575060ff88811660009081526017602052604090208054918416918390811061134957fe5b6000918252602090912060039091020154610100900460ff16145b156113c15760ff8816600090815260176020526040902080548290811061138757fe5b906000526020600020906003020160010154670de0b6b3a7640000038484815181106113af57fe5b60209081029190910101526001909201915b600101611286565b50919695505050505050565b6060806060806009805490506001604060020a03811180156113f657600080fd5b50604051908082528060200260200182016040528015611420578160200160208202803683370190505b506009549091506060906001604060020a038111801561143f57600080fd5b5060405190808252806020026020018201604052801561147357816020015b606081526020019060019003908161145e5790505b506009549091506060906001604060020a038111801561149257600080fd5b506040519080825280602002602001820160405280156114bc578160200160208202803683370190505b50905060005b60095481101561164157600981815481106114d957fe5b90600052602060002090602091828204019190069054906101000a900460ff1684828151811061150557fe5b602002602001019060ff16908160ff16815250506005600085838151811061152957fe5b602002602001015160ff1660ff1681526020019081526020016000208054600181600116156101000203166002900480601f0160208091040260200160405190810160405280929190818152602001828054600181600116156101000203166002900480156115d95780601f106115ae576101008083540402835291602001916115d9565b820191906000526020600020905b8154815290600101906020018083116115bc57829003601f168201915b50505050508382815181106115ea57fe5b60200260200101819052506004600085838151811061160557fe5b602002602001015160ff1660ff1681526020019081526020016000205482828151811061162e57fe5b60209081029190910101526001016114c2565b5091945092509050909192565b60ff82166000908152601a602052604090205460609081908190819081906001604060020a038111801561168157600080fd5b506040519080825280602002602001820160405280156116ab578160200160208202803683370190505b5060ff88166000908152601a60205260409020549091506060906001604060020a03811180156116da57600080fd5b50604051908082528060200260200182016040528015611704578160200160208202803683370190505b5060ff89166000908152601b60205260409020549091506060906001604060020a038111801561173357600080fd5b5060405190808252806020026020018201604052801561175d578160200160208202803683370190505b5060ff8a166000908152601b60205260409020549091506060906001604060020a038111801561178c57600080fd5b506040519080825280602002602001820160405280156117b6578160200160208202803683370190505b509050885b60ff8b166000908152601a60205260409020548110156118725760ff8b166000908152601a602052604090208054829081106117f357fe5b90600052602060002090600202016000015485828151811061181157fe5b602002602001018181525050601a60008c60ff1660ff168152602001908152602001600020818154811061184157fe5b90600052602060002090600202016001015484828151811061185f57fe5b60209081029190910101526001016117bb565b50885b60ff8b166000908152601b602052604090205481101561192c5760ff8b166000908152601b602052604090208054829081106118ad57fe5b9060005260206000209060020201600001548382815181106118cb57fe5b602002602001018181525050601b60008c60ff1660ff16815260200190815260200160002081815481106118fb57fe5b90600052602060002090600202016001015482828151811061191957fe5b6020908102919091010152600101611875565b509299919850965090945092505050565b33600090815260156020526040812054611957903461306d565b3360009081526015602052604090205550600190565b60ff8084166000908152600260205260408120549091859116156119a65760405160e560020a62461bcd02815260040161053090613a66565b84848060ff16600114156119e95760ff82166000908152600460205260409020544211156119e95760405160e560020a62461bcd02815260040161053090613bce565b8060ff1660021415611a2a5760ff82166000908152600e6020526040902054421115611a2a5760405160e560020a62461bcd02815260040161053090613bce565b600080808860ff1660011415611a4257506002611a52565b8860ff1660021415611a52575060015b60005b60ff8b16600090815260176020526040902054811015611bca5760ff8b166000818152601760205260409020805483908110611a8d57fe5b600091825260209091206003909102015460ff16148015611aee575060ff8b166000908152601760205260409020805482908110611ac757fe5b906000526020600020906003020160020160149054906101000a900460ff16151560011515145b8015611b35575060ff8b1660009081526017602052604090208054670de0b6b3a76400008b9003919083908110611b2157fe5b906000526020600020906003020160010154145b8015611b7a575060ff8b8116600090815260176020526040902080549184169183908110611b5f57fe5b6000918252602090912060039091020154610100900460ff16145b15611bc25760ff8b1660009081526017602052604090208054919350839182908110611ba257fe5b6000918252602090912060026003909202010154600160a060020a031693505b600101611a55565b50600160a060020a038316611be55760009650505050611ee4565b611bef3389613095565b1515600114611c135760405160e560020a62461bcd02815260040161053090613c05565b611c278389670de0b6b3a764000003613095565b1515600114611c4b5760405160e560020a62461bcd02815260040161053090613c05565b8860ff1660011415611cea5760ff8a166000818152601a60209081526040808320815180830183528d81524281850181815283546001818101865594885286882093516002918202909401938455905192840192909255958552601b84528285208351808501909452670de0b6b3a76400008f900384528385019687528054808401825590865293909420915192909302019081559151910155611d85565b8860ff1660021415611d855760ff8a166000818152601b60209081526040808320815180830183528d81524281850181815283546001818101865594885286882093516002918202909401938455905192840192909255958552601a84528285208351808501909452670de0b6b3a76400008f9003845283850196875280548084018255908652939094209151929093020190815591519101555b8860ff1660011415611dea57611d9d338b6001613125565b60ff8a1660009081526017602052604090208054611de5919084908110611dc057fe5b6000918252602090912060026003909202010154600160a060020a03168b6001613141565b611e4a565b8860ff1660021415611e4a57611e02338b6001613141565b60ff8a1660009081526017602052604090208054611e4a919084908110611e2557fe5b6000918252602090912060026003909202010154600160a060020a03168b6001613125565b60ff8a166000908152601760205260408120805484908110611e6857fe5b60009182526020808320600260039093020191909101805493151560a060020a0260a060020a60ff021990941693909317909255600160a060020a0390941680855260198252604080862060ff8e16808852908452818720805460ff191690559186526018835280862091865291528320929092555060019450505b5050509392505050565b60ff808416600090815260026020526040812054909185911615611f275760405160e560020a62461bcd02815260040161053090613a66565b84848060ff1660011415611f6a5760ff8216600090815260046020526040902054421115611f6a5760405160e560020a62461bcd02815260040161053090613bce565b8060ff1660021415611fab5760ff82166000908152600e6020526040902054421115611fab5760405160e560020a62461bcd02815260040161053090613bce565b33600090815260196020908152604080832060ff808c16855292528220541661212d5733600090815260196020908152604080832060ff808d1685529252918290205491517f9ae936e1da821355cc5da848e823135a04d310da41f4c37395073420f9be5d399261202192859291161590613c6e565b60405180910390a15060ff8088166000818152601760209081526040808320815160a0810183528581528c87168185019081528184018d8152336060840181815260016080860181815287548083018955888c528a8c2097516003909102909701805496518e166101000261ff001998909e1660ff1997881617979097169c909c17865592518584015551600290940180549a51151560a060020a0260a060020a60ff0219600160a060020a0396909616600160a060020a0319909c169b909b1794909416999099179092559154878652601885528386208787528552838620600019919091019055958452601983528184209484529390915290208054909116821790559350611ee4565b33600090815260196020908152604080832060ff808d1685529252918290205491517f9ae936e1da821355cc5da848e823135a04d310da41f4c37395073420f9be5d399261218092859291161590613c9e565b60405180910390a15033600090815260186020908152604080832060ff8b168452825280832054601790925282208054919291839081106121bd57fe5b906000526020600020906003020160020160146101000a81548160ff02191690831515021790555087601760008a60ff1660ff168152602001908152602001600020828154811061220a57fe5b60009182526020808320600392909202909101805460ff191660ff948516179055918a16815260179091526040902080548891908390811061224857fe5b60009182526020808320600392909202909101805461ff00191661010060ff95861602179055918a16815260179091526040902080548791908390811061228b57fe5b90600052602060002090600302016001018190555033601760008a60ff1660ff16815260200190815260200160002082815481106122c557fe5b906000526020600020906003020160020160006101000a815481600160a060020a030219169083600160a060020a031602179055506001601760008a60ff1660ff168152602001908152602001600020828154811061232057fe5b906000526020600020906003020160020160146101000a81548160ff0219169083151502179055506001945050611ee4565b60ff1660009081526003602052604090205490565b60008054600160a060020a0316331461237f57600080fd5b60165461238c903461306d565b60165550600190565b600160a060020a0382166000908152600b6020908152604080832060ff8516845290915290205492915050565b60008054600160a060020a031633146123da57600080fd5b6123e384613158565b1515600114156124415760ff8085166000908152600260205260409020541615156001141561243c5760ff84166000908152600260209081526040808320805460ff19908116909155600c909252909120805490911690555b6124e0565b60098054600181810190925560208082047f6e1540171b6c0c960b71a7020d9f60077f6af931a8bbf590da0223dacf75c7af01805460ff808a16601f95861661010090810a82810290840219909416939093179093556013805496870181556000529285047f66de8ffda797e3de9c05e8fc57b3bf0ec28a930d40b0d285d93c06501cf6a09001805495909416900a9081029102199092169190911790555b60ff841660009081526005602090815260409091208451612503928601906134db565b5060ff84166000908152600460209081526040808320859055600f82529091208451612531928601906134db565b505060ff83166000908152600e6020526040902081905560015b9392505050565b600054600160a060020a0316331461256957600080fd5b600160a060020a03811661257c57600080fd5b60008054604051600160a060020a03808516939216917f8be0079c531659141344cd1fd0a4f28419497f9722a3daafe3b4186f6b6457e091a360008054600160a060020a031916600160a060020a0392909216919091179055565b600083838060ff166001141561261c5760ff821660009081526004602052604090205442111561261c5760405160e560020a62461bcd02815260040161053090613bce565b8060ff166002141561265d5760ff82166000908152600e602052604090205442111561265d5760405160e560020a62461bcd02815260040161053090613bce565b336000908152601d6020908152604080832060ff808b168552925290912054600a911611156126a15760405160e560020a62461bcd02815260040161053090613ad4565b60008560ff16600114156126ce576000546126c9903390600160a060020a0316896001612ded565b6126f4565b8560ff16600214156126f4576000546126f4903390600160a060020a0316896001612f34565b601c60008860ff1660ff1681526020019081526020016000206040518060a001604052808960ff1681526020018860ff16815260200133600160a060020a0316815260200187815260200160011515815250908060018154018082558091505060019003906000526020600020906003020160009091909190915060008201518160000160006101000a81548160ff021916908360ff16021790555060208201518160000160016101000a81548160ff021916908360ff16021790555060408201518160000160026101000a815481600160a060020a030219169083600160a060020a031602179055506060820151816001015560808201518160020160006101000a81548160ff02191690831515021790555050506001601c60008960ff1660ff16815260200190815260200160002080549050039050601d600033600160a060020a0316600160a060020a0316815260200190815260200160002060008860ff1660ff168152602001908152602001600020600081819054906101000a900460ff168092919060010191906101000a81548160ff021916908360ff16021790555050601e600033600160a060020a0316600160a060020a0316815260200190815260200160002060008860ff1660ff168152602001908152602001600020819080600181540180825580915050600190039060005260206000200160009091909190915055600193505050509392505050565b60008160165410156129305760405160e560020a62461bcd02815260040161053090613a9d565b60165461293d90836131b8565b601655600160a060020a038316600090815260156020526040902054612963908361306d565b600160a060020a03841660009081526015602052604090205550600192915050565b600160a060020a0383166129ae5760405160e560020a62461bcd02815260040161053090613b0b565b6129f981604051806060016040528060228152602001613d1f60229139600160a060020a038616600090815260016020908152604080832060ff8916845290915290205491906131f6565b600160a060020a038416600090815260016020908152604080832060ff87168452825280832093909355600390522054612a3390826131b8565b60ff8316600090815260036020526040808220929092559051600160a060020a03851690600080516020613d8783398151915290612a749086908690613cde565b60405180910390a3505050565b600160a060020a038316612aaa5760405160e560020a62461bcd02815260040161053090613b0b565b612af581604051806060016040528060228152602001613d1f60229139600160a060020a0386166000908152600b6020908152604080832060ff8916845290915290205491906131f6565b600160a060020a0384166000908152600b6020908152604080832060ff87168452825280832093909355600d90522054612b2f90826131b8565b60ff83166000908152600d6020526040808220929092559051600160a060020a03851690600080516020613d6783398151915290612a749086908690613cde565b60008060005b60ff86166000908152601c6020526040902054811015612d315760ff86166000908152601c60205260409020805482908110612bae57fe5b600091825260209091206002600390920201015460ff16151560011415612d295760ff86166000818152601c60205260409020805483908110612bed57fe5b600091825260209091206003909102015460ff16148015612c47575060ff8681166000908152601c6020526040902080549187169183908110612c2c57fe5b6000918252602090912060039091020154610100900460ff16145b8015612c83575060ff86166000908152601c60205260409020805485919083908110612c6f57fe5b906000526020600020906003020160010154145b15612d295760ff86166000908152601c60205260409020805482908110612ca657fe5b906000526020600020906003020160000160029054906101000a9004600160a060020a03169150601c60008760ff1660ff1681526020019081526020016000208181548110612cf157fe5b6000918252602082206003909102018054600160b060020a03191681556001810191909155600201805460ff1916905550905061254b565b600101612b76565b50600095945050505050565b600160a060020a038316600090815260156020526040812054821115612d785760405160e560020a62461bcd02815260040161053090613a2f565b600160a060020a038416600090815260156020526040902054612d9b90836131b8565b600160a060020a038086166000908152601560205260408082209390935590851681522054612dca908361306d565b600160a060020a0384166000908152601560205260409020555060019392505050565b600160a060020a038416612e165760405160e560020a62461bcd02815260040161053090613b4f565b600160a060020a038316612e3f5760405160e560020a62461bcd0281526004016105309061397b565b612e8a81604051806060016040528060268152602001613d4160269139600160a060020a038716600090815260016020908152604080832060ff8916845290915290205491906131f6565b600160a060020a03808616600090815260016020818152604080842060ff891680865290835281852096909655938816835290815282822093825292909252902054612ed6908261306d565b600160a060020a03808516600081815260016020908152604080832060ff891684529091529081902093909355915190861690600080516020613d8783398151915290612f269086908690613cde565b60405180910390a350505050565b600160a060020a038416612f5d5760405160e560020a62461bcd02815260040161053090613b4f565b600160a060020a038316612f865760405160e560020a62461bcd0281526004016105309061397b565b612fd181604051806060016040528060268152602001613d4160269139600160a060020a0387166000908152600b6020908152604080832060ff8916845290915290205491906131f6565b600160a060020a038086166000908152600b6020818152604080842060ff89168086529083528185209690965593881683529081528282209382529290925290205461301d908261306d565b600160a060020a038085166000818152600b6020908152604080832060ff891684529091529081902093909355915190861690600080516020613d6783398151915290612f269086908690613cde565b60008282018381101561254b5760405160e560020a62461bcd028152600401610530906139c1565b600160a060020a0382166000908152601560205260408120548211156130d05760405160e560020a62461bcd02815260040161053090613a2f565b600160a060020a0383166000908152601560205260409020546130f390836131b8565b600160a060020a038416600090815260156020526040902055601654613119908361306d565b60165550600192915050565b61313160008383613225565b61313c83838361329e565b505050565b61314d60008383613370565b61313c8383836133c2565b6000805b6009548110156131af578260ff166009828154811061317757fe5b60009182526020918290209181049091015460ff601f9092166101000a90041614156131a75760019150506104f5565b60010161315c565b50600092915050565b600061254b83836040518060400160405280601e81526020017f536166654d6174683a207375627472616374696f6e206f766572666c6f7700008152505b6000818484111561321d5760405160e560020a62461bcd0281526004016105309190613968565b505050900390565b600160a060020a03831661313c57600a546132498261324385612352565b9061306d565b141561326d5760ff82166000908152600260205260409020805460ff191660011790555b600a5461327d8261324385612352565b111561313c5760405160e560020a62461bcd02815260040161053090613b97565b600160a060020a0383166132c75760405160e560020a62461bcd02815260040161053090613c2e565b60ff82166000908152600360205260409020546132e4908261306d565b60ff8316600081815260036020908152604080832094909455600160a060020a038716825260018152838220928252919091522054613323908261306d565b600160a060020a038416600081815260016020908152604080832060ff88168452909152808220939093559151909190600080516020613d8783398151915290612a749086908690613cde565b600160a060020a03831661313c5760145461338e826132438561076b565b14156133b25760ff82166000908152600c60205260409020805460ff191660011790555b60145461327d826132438561076b565b600160a060020a0383166133eb5760405160e560020a62461bcd02815260040161053090613c2e565b60ff82166000908152600d6020526040902054613408908261306d565b60ff83166000818152600d6020908152604080832094909455600160a060020a0387168252600b8152838220928252919091522054613447908261306d565b600160a060020a0384166000818152600b6020908152604080832060ff88168452909152808220939093559151909190600080516020613d6783398151915290612a749086908690613cde565b50805460018160011615610100020316600290046000825580601f106134ba57506134d8565b601f0160209004906000526020600020908101906134d89190613559565b50565b828054600181600116156101000203166002900490600052602060002090601f016020900481019282601f1061351c57805160ff1916838001178555613549565b82800160010185558215613549579182015b8281111561354957825182559160200191906001019061352e565b50613555929150613559565b5090565b5b80821115613555576000815560010161355a565b8035600160a060020a038116811461076557600080fd5b803560ff8116811461076557600080fd5b6000602082840312156135a7578081fd5b61254b838361356e565b600080604083850312156135c3578081fd5b6135cd848461356e565b91506135dc8460208501613585565b90509250929050565b6000602082840312156135f6578081fd5b61254b8383613585565b600080600060608486031215613614578081fd5b61361e8585613585565b92506020808501356001604060020a038082111561363a578384fd5b818701915087601f83011261364d578384fd5b81358181111561365b578485fd5b604051601f8201601f191681018501838111828210171561367a578687fd5b60405281815283820185018a1015613690578586fd5b81858501868301379081019093019390935250929592945050506040919091013590565b600080604083850312156136c6578182fd5b6136d08484613585565b946020939093013593505050565b600080604083850312156136f0578182fd5b6135cd8484613585565b60008060006060848603121561370e578283fd5b833561371981613d0f565b9250602084013561372981613d0f565b929592945050506040919091013590565b600080600080600060a08688031215613751578081fd5b61375b8787613585565b945061376a8760208801613585565b9350604086013592506137808760608801613585565b949793965091946080013592915050565b6000815180845260208085019450808401835b838110156137c0578151875295820195908201906001016137a4565b509495945050505050565b6000815180845260208085019450808401835b838110156137c057815160ff16875295820195908201906001016137de565b60008151808452815b8181101561382257602081850181015186830182015201613806565b818111156138335782602083870101525b50601f01601f19169290920160200192915050565b600160a060020a0391909116815260200190565b60006020825261254b6020830184613791565b6000608082526138826080830187613791565b82810360208401526138948187613791565b905082810360408401526138a88186613791565b905082810360608401526138bc8185613791565b979650505050505050565b60006020825261254b60208301846137cb565b6000606082526138ed60608301866137cb565b602083820381850152818651808452828401915082838202850101838901865b8381101561393b57601f198784030185526139298383516137fd565b9486019492509085019060010161390d565b5050868103604088015261394f8189613791565b9a9950505050505050505050565b901515815260200190565b60006020825261254b60208301846137fd565b60208082526023908201527f45524332303a207472616e7366657220746f20746865207a65726f2061646472604082015260e860020a6265737302606082015260800190565b6020808252601b908201527f536166654d6174683a206164646974696f6e206f766572666c6f770000000000604082015260600190565b6020808252601d908201527f74686520726573756c74206973206e6f742068617070656e6420796574000000604082015260600190565b60208082526014908201527f496e73756666696369656e742062616c616e6365000000000000000000000000604082015260600190565b6020808252601b908201527f4d61726b657420446973747269627574696f6e206973206f7665720000000000604082015260600190565b6020808252601f908201527f4f776e657220646f65736e2774206861766520656e6f756768206d6f6e657900604082015260600190565b60208082526016908201527f596f75722073756767657374732069732066756c6c2e00000000000000000000604082015260600190565b60208082526021908201527f45524332303a206275726e2066726f6d20746865207a65726f20616464726573604082015260f860020a607302606082015260800190565b60208082526025908201527f45524332303a207472616e736665722066726f6d20746865207a65726f206164604082015260d860020a64647265737302606082015260800190565b60208082526019908201527f45524332304361707065643a2063617020657863656564656400000000000000604082015260600190565b60208082526017908201527f65787069726174696f6e2064617465206973206f766572000000000000000000604082015260600190565b6020808252600c9082015260a260020a6b1c185e5b595b9d0819985a5b02604082015260600190565b6020808252601f908201527f45524332303a206d696e7420746f20746865207a65726f206164647265737300604082015260600190565b90815260200190565b9182521515602082015260606040820181905260059082015260d960020a6434b71034b302608082015260a00190565b9182521515602082015260606040820181905260079082015260c860020a66696e20656c736502608082015260a00190565b60ff91909116815260200190565b60ff929092168252602082015260400190565b60ff9384168152919092166020820152604081019190915260600190565b60ff811681146134d857600080fdfe45524332303a206275726e20616d6f756e7420657863656564732062616c616e636545524332303a207472616e7366657220616d6f756e7420657863656564732062616c616e6365e900273c6695685a9e29e1549993f395f73358da833b17b4075fde68c584f2810f684af25f5a740d6a8524c3449595054ae99c1a794cdb7cc0a7cac8542155aaa2646970667358221220a2fbf21875ce9b34a48ecdbd0b1d049f8f7750b6860040dfee3e16d2fc10a44564736f6c63430007000033",
  "immutableReferences": {},
  "source": "pragma solidity ^0.7.0;\npragma experimental ABIEncoderV2;\nimport \"./exchange.sol\";\n\ncontract Manager is Exchange{\n     //   marketid \n    function usableMarketId() external view onlyOwner returns (uint8[] memory){\n        uint8[] memory result = new uint8[](_market_ids.length);\n        uint8 counter;\n        for (uint16 i = 0; i < _market_ids.length ; i++) {\n            if (is_over_distribute[uint8(i)] == false) {\n                result[counter] = uint8(i);\n                counter++;\n            }\n        }\n        return result;\n    }\n    \n    function set_market_id(uint8 _market_id, string memory _question,  uint256 _expiration_date) external onlyOwner returns (bool){\n        if (_already_market_id(_market_id) == true){\n            if ( is_over_distribute[_market_id] == true){\n                is_over_distribute[_market_id] = false;\n                is_over_distribute1[_market_id] = false;\n            }\n        }\n        else {\n            _market_ids.push(_market_id);\n            _market_ids1.push(_market_id);\n        }\n        _questionsOf[_market_id] = _question;\n        _expirationDateOf[_market_id] = _expiration_date;\n        _questionsOf1[_market_id] = _question;\n        _expirationDateOf1[_market_id] = _expiration_date;\n        return true;\n    }\n    \n    function setWinner(uint8 _market_id, uint8 _tokenKind) external onlyOwner returns (bool){\n        _winnerTokenOf[_market_id] = _tokenKind;\n        return true;\n    }\n    \n    function endMarket(uint8 _market_id) external onlyOwner returns (bool){\n        delete _winnerTokenOf[_market_id];\n        delete _questionsOf[_market_id];\n        delete _totalSupply[_market_id];\n        delete _expirationDateOf[_market_id];\n        is_over_distribute[_market_id] = false;\n        delete _questionsOf1[_market_id];\n        delete _totalSupply1[_market_id];\n        delete _expirationDateOf1[_market_id];\n        is_over_distribute1[_market_id] = false;\n        return true;\n    }\n    \n    function marketData() public view returns (uint8[] memory, string[] memory, uint256[] memory){\n        uint8[] memory ids = new uint8[](_market_ids.length);\n        string[] memory questions = new string[](_market_ids.length);\n        uint256[] memory expirationDates = new uint256[](_market_ids.length);\n        for (uint i = 0; i < _market_ids.length; i++){\n            ids[i] = _market_ids[i];\n            questions[i] = _questionsOf[ids[i]];\n            expirationDates[i] = _expirationDateOf[ids[i]];\n        }\n        return (ids, questions, expirationDates);\n    }\n}\n",
  "sourcePath": "/home/jisoo/pet-projects/Prediction_market/back/contracts/manager.sol",
  "compiler": {
    "name": "solc",
    "version": "0.7.0+commit.9e61f92b.Emscripten.clang"
  },
  "schemaVersion": "3.3.1",
  "updatedAt": "2020-12-05T12:39:08.492Z",
  "networkType": "ethereum",
  "devdoc": {
    "kind": "dev",
    "methods": {
      "balanceOf(address,uint8)": {
        "details": "See {IERC20-balanceOf}."
      },
      "balanceOf1(address,uint8)": {
        "details": "See {IERC20-balanceOf}."
      },
      "cap()": {
        "details": "Returns the cap on the token's total supply."
      },
      "cap1()": {
        "details": "Returns the cap on the token's total supply."
      },
      "totalSupplyOf(uint8)": {
        "details": "See {IERC20-totalSupply}."
      },
      "totalSupplyOf1(uint8)": {
        "details": "See {IERC20-totalSupply}."
      },
      "transferOwnership(address)": {
        "details": "Allows the current owner to transfer control of the contract to a newOwner.",
        "params": {
          "newOwner": "The address to transfer ownership to."
        }
      }
    },
    "version": 1
  },
  "userdoc": {
    "kind": "user",
    "methods": {},
    "version": 1
  }
}