{
  "contractName": "NoCoin",
  "abi": [
    {
      "inputs": [],
      "stateMutability": "nonpayable",
      "type": "constructor"
    },
    {
      "anonymous": false,
      "inputs": [
        {
          "indexed": true,
          "internalType": "address",
          "name": "previousOwner",
          "type": "address"
        },
        {
          "indexed": true,
          "internalType": "address",
          "name": "newOwner",
          "type": "address"
        }
      ],
      "name": "OwnershipTransferred",
      "type": "event"
    },
    {
      "anonymous": false,
      "inputs": [
        {
          "indexed": true,
          "internalType": "address",
          "name": "from",
          "type": "address"
        },
        {
          "indexed": true,
          "internalType": "address",
          "name": "to",
          "type": "address"
        },
        {
          "indexed": false,
          "internalType": "uint8",
          "name": "_market_id",
          "type": "uint8"
        },
        {
          "indexed": false,
          "internalType": "uint256",
          "name": "value",
          "type": "uint256"
        }
      ],
      "name": "Transfer1",
      "type": "event"
    },
    {
      "inputs": [
        {
          "internalType": "address",
          "name": "account",
          "type": "address"
        },
        {
          "internalType": "uint8",
          "name": "_market_id",
          "type": "uint8"
        }
      ],
      "name": "balanceOf1",
      "outputs": [
        {
          "internalType": "uint256",
          "name": "",
          "type": "uint256"
        }
      ],
      "stateMutability": "view",
      "type": "function"
    },
    {
      "inputs": [],
      "name": "cap1",
      "outputs": [
        {
          "internalType": "uint256",
          "name": "",
          "type": "uint256"
        }
      ],
      "stateMutability": "view",
      "type": "function"
    },
    {
      "inputs": [],
      "name": "owner",
      "outputs": [
        {
          "internalType": "address",
          "name": "",
          "type": "address"
        }
      ],
      "stateMutability": "view",
      "type": "function"
    },
    {
      "inputs": [
        {
          "internalType": "uint8",
          "name": "_market_id",
          "type": "uint8"
        }
      ],
      "name": "totalSupplyOf1",
      "outputs": [
        {
          "internalType": "uint256",
          "name": "",
          "type": "uint256"
        }
      ],
      "stateMutability": "view",
      "type": "function"
    },
    {
      "inputs": [
        {
          "internalType": "address",
          "name": "newOwner",
          "type": "address"
        }
      ],
      "name": "transferOwnership",
      "outputs": [],
      "stateMutability": "nonpayable",
      "type": "function"
    }
  ],
  "bytecode": "0x608060405234801561001057600080fd5b5060408051808201825260068082527f4e6f436f696e000000000000000000000000000000000000000000000000000060208084019182528451808601909552600285527f4e6f0000000000000000000000000000000000000000000000000000000000009085015260008054600160a060020a0319163317905582516103e8949261009d929091610135565b5080516100b1906007906020840190610135565b50506008805460ff19166012179055508061012d57604080517f08c379a000000000000000000000000000000000000000000000000000000000815260206004820152601560248201527f45524332304361707065643a2063617020697320300000000000000000000000604482015290519081900360640190fd5b600a556101c8565b828054600181600116156101000203166002900490600052602060002090601f016020900481019282601f1061017657805160ff19168380011785556101a3565b828001600101855582156101a3579182015b828111156101a3578251825591602001919060010190610188565b506101af9291506101b3565b5090565b5b808211156101af57600081556001016101b4565b610226806101d76000396000f3fe608060405234801561001057600080fd5b506004361061005a5760e060020a60003504632a0f6fc5811461005f578063898871c9146100915780638da5cb5b14610099578063f0e43baf146100bd578063f2fde38b146100ec575b600080fd5b61007f6004803603602081101561007557600080fd5b503560ff16610114565b60408051918252519081900360200190f35b61007f610129565b6100a161012f565b60408051600160a060020a039092168252519081900360200190f35b61007f600480360360408110156100d357600080fd5b508035600160a060020a0316906020013560ff1661013e565b6101126004803603602081101561010257600080fd5b5035600160a060020a031661016b565b005b60ff1660009081526003602052604090205490565b600a5490565b600054600160a060020a031681565b600160a060020a038216600090815260016020908152604080832060ff8516845290915290205492915050565b600054600160a060020a0316331461018257600080fd5b600160a060020a03811661019557600080fd5b60008054604051600160a060020a03808516939216917f8be0079c531659141344cd1fd0a4f28419497f9722a3daafe3b4186f6b6457e091a360008054600160a060020a031916600160a060020a039290921691909117905556fea26469706673582212200ad91bc99cc6663c33cc49a66a69b7155c9d5995f9e131a07ac5181007315e6264736f6c63430007000033",
  "immutableReferences": {},
  "source": "pragma solidity 0.7.0;\nimport \"./erc20Capped1.sol\";\n\ncontract NoCoin is ERC201, ERC20Capped1{\n    uint8 private constant TOKENKIND1 = 2;\n    string private constant NAME1 = \"NoCoin\";\n    string private constant SYMBOL1 = \"No\";\n    uint256 private constant MAX_SUPPLY1 = 1000;   // 토큰은 1시장당 yes coin 1천개, no coin 1천개가 발행된다.             \n    \n    //nocoin 설정\n    constructor() ERC20Capped1(MAX_SUPPLY1) ERC201(NAME1, SYMBOL1) {\n    }\n        \n    //nocoin minting. \n    function _noCoin_mint(address _owner,  uint8 _market_id, uint256 _amount) internal {\n        super._beforeTokenTransfer1(address(0), _market_id, _amount);    //cap넘는지 검사\n        _mint1(_owner, _market_id, _amount);               \n    } \n}\n",
  "sourcePath": "/home/jisoo/pet-projects/Prediction_market/back/contracts/nocoin.sol",
  "compiler": {
    "name": "solc",
    "version": "0.7.0+commit.9e61f92b.Emscripten.clang"
  },
  "schemaVersion": "3.3.1",
  "updatedAt": "2020-12-07T00:43:27.623Z",
  "devdoc": {
    "kind": "dev",
    "methods": {
      "balanceOf1(address,uint8)": {
        "details": "See {IERC20-balanceOf}."
      },
      "cap1()": {
        "details": "Returns the cap on the token's total supply."
      },
      "totalSupplyOf1(uint8)": {
        "details": "See {IERC20-totalSupply}."
      },
      "transferOwnership(address)": {
        "details": "Allows the current owner to transfer control of the contract to a newOwner.",
        "params": {
          "newOwner": "The address to transfer ownership to."
        }
      }
    },
    "version": 1
  },
  "userdoc": {
    "kind": "user",
    "methods": {},
    "version": 1
  }
}