{
  "contractName": "TokenTrade",
  "abi": [
    {
      "anonymous": false,
      "inputs": [
        {
          "indexed": false,
          "internalType": "uint8",
          "name": "_del_market_id",
          "type": "uint8"
        },
        {
          "indexed": false,
          "internalType": "uint8",
          "name": "_del_tokenKind",
          "type": "uint8"
        },
        {
          "indexed": false,
          "internalType": "uint256",
          "name": "_del_price",
          "type": "uint256"
        }
      ],
      "name": "NoFound",
      "type": "event"
    },
    {
      "anonymous": false,
      "inputs": [],
      "name": "NoIndex",
      "type": "event"
    },
    {
      "anonymous": false,
      "inputs": [
        {
          "indexed": true,
          "internalType": "address",
          "name": "previousOwner",
          "type": "address"
        },
        {
          "indexed": true,
          "internalType": "address",
          "name": "newOwner",
          "type": "address"
        }
      ],
      "name": "OwnershipTransferred",
      "type": "event"
    },
    {
      "anonymous": false,
      "inputs": [
        {
          "indexed": false,
          "internalType": "uint8",
          "name": "_del_market_id",
          "type": "uint8"
        },
        {
          "indexed": false,
          "internalType": "uint8",
          "name": "_del",
          "type": "uint8"
        },
        {
          "indexed": false,
          "internalType": "uint256",
          "name": "_del_price",
          "type": "uint256"
        }
      ],
      "name": "SuggestRemove",
      "type": "event"
    },
    {
      "anonymous": false,
      "inputs": [
        {
          "indexed": true,
          "internalType": "address",
          "name": "from",
          "type": "address"
        },
        {
          "indexed": true,
          "internalType": "address",
          "name": "to",
          "type": "address"
        },
        {
          "indexed": false,
          "internalType": "uint8",
          "name": "_market_id",
          "type": "uint8"
        },
        {
          "indexed": false,
          "internalType": "uint256",
          "name": "value",
          "type": "uint256"
        }
      ],
      "name": "Transfer",
      "type": "event"
    },
    {
      "anonymous": false,
      "inputs": [
        {
          "indexed": true,
          "internalType": "address",
          "name": "from",
          "type": "address"
        },
        {
          "indexed": true,
          "internalType": "address",
          "name": "to",
          "type": "address"
        },
        {
          "indexed": false,
          "internalType": "uint8",
          "name": "_market_id",
          "type": "uint8"
        },
        {
          "indexed": false,
          "internalType": "uint256",
          "name": "value",
          "type": "uint256"
        }
      ],
      "name": "Transfer1",
      "type": "event"
    },
    {
      "inputs": [],
      "name": "addToBalance",
      "outputs": [
        {
          "internalType": "bool",
          "name": "",
          "type": "bool"
        }
      ],
      "stateMutability": "payable",
      "type": "function"
    },
    {
      "inputs": [],
      "name": "addToOwnerPW",
      "outputs": [
        {
          "internalType": "bool",
          "name": "",
          "type": "bool"
        }
      ],
      "stateMutability": "payable",
      "type": "function"
    },
    {
      "inputs": [
        {
          "internalType": "address",
          "name": "account",
          "type": "address"
        },
        {
          "internalType": "uint8",
          "name": "_market_id",
          "type": "uint8"
        }
      ],
      "name": "balanceOf",
      "outputs": [
        {
          "internalType": "uint256",
          "name": "",
          "type": "uint256"
        }
      ],
      "stateMutability": "view",
      "type": "function"
    },
    {
      "inputs": [
        {
          "internalType": "address",
          "name": "account",
          "type": "address"
        },
        {
          "internalType": "uint8",
          "name": "_market_id",
          "type": "uint8"
        }
      ],
      "name": "balanceOf1",
      "outputs": [
        {
          "internalType": "uint256",
          "name": "",
          "type": "uint256"
        }
      ],
      "stateMutability": "view",
      "type": "function"
    },
    {
      "inputs": [],
      "name": "cap",
      "outputs": [
        {
          "internalType": "uint256",
          "name": "",
          "type": "uint256"
        }
      ],
      "stateMutability": "view",
      "type": "function"
    },
    {
      "inputs": [],
      "name": "cap1",
      "outputs": [
        {
          "internalType": "uint256",
          "name": "",
          "type": "uint256"
        }
      ],
      "stateMutability": "view",
      "type": "function"
    },
    {
      "inputs": [],
      "name": "getOwnerPW",
      "outputs": [
        {
          "internalType": "uint256",
          "name": "",
          "type": "uint256"
        }
      ],
      "stateMutability": "view",
      "type": "function"
    },
    {
      "inputs": [],
      "name": "getPW",
      "outputs": [
        {
          "internalType": "uint256",
          "name": "",
          "type": "uint256"
        }
      ],
      "stateMutability": "view",
      "type": "function"
    },
    {
      "inputs": [],
      "name": "owner",
      "outputs": [
        {
          "internalType": "address",
          "name": "",
          "type": "address"
        }
      ],
      "stateMutability": "view",
      "type": "function"
    },
    {
      "inputs": [],
      "name": "ownerWithdraw",
      "outputs": [],
      "stateMutability": "nonpayable",
      "type": "function"
    },
    {
      "inputs": [
        {
          "internalType": "uint8",
          "name": "_market_id",
          "type": "uint8"
        },
        {
          "internalType": "uint8",
          "name": "_tokenKind",
          "type": "uint8"
        },
        {
          "internalType": "uint256",
          "name": "_price",
          "type": "uint256"
        }
      ],
      "name": "request",
      "outputs": [
        {
          "internalType": "bool",
          "name": "",
          "type": "bool"
        }
      ],
      "stateMutability": "nonpayable",
      "type": "function"
    },
    {
      "inputs": [
        {
          "internalType": "uint8",
          "name": "_market_id",
          "type": "uint8"
        },
        {
          "internalType": "uint8",
          "name": "_tokenKind",
          "type": "uint8"
        }
      ],
      "name": "showRequest",
      "outputs": [
        {
          "internalType": "uint256[]",
          "name": "",
          "type": "uint256[]"
        }
      ],
      "stateMutability": "view",
      "type": "function"
    },
    {
      "inputs": [
        {
          "internalType": "uint8",
          "name": "_market_id",
          "type": "uint8"
        }
      ],
      "name": "totalSupplyOf",
      "outputs": [
        {
          "internalType": "uint256",
          "name": "",
          "type": "uint256"
        }
      ],
      "stateMutability": "view",
      "type": "function"
    },
    {
      "inputs": [
        {
          "internalType": "uint8",
          "name": "_market_id",
          "type": "uint8"
        }
      ],
      "name": "totalSupplyOf1",
      "outputs": [
        {
          "internalType": "uint256",
          "name": "",
          "type": "uint256"
        }
      ],
      "stateMutability": "view",
      "type": "function"
    },
    {
      "inputs": [
        {
          "internalType": "address",
          "name": "newOwner",
          "type": "address"
        }
      ],
      "name": "transferOwnership",
      "outputs": [],
      "stateMutability": "nonpayable",
      "type": "function"
    },
    {
      "inputs": [],
      "name": "withdraw",
      "outputs": [],
      "stateMutability": "nonpayable",
      "type": "function"
    },
    {
      "inputs": [
        {
          "internalType": "uint8",
          "name": "_market_id",
          "type": "uint8"
        },
        {
          "internalType": "uint8",
          "name": "_tokenKind",
          "type": "uint8"
        },
        {
          "internalType": "uint256",
          "name": "_price",
          "type": "uint256"
        }
      ],
      "name": "suggest",
      "outputs": [
        {
          "internalType": "bool",
          "name": "",
          "type": "bool"
        }
      ],
      "stateMutability": "nonpayable",
      "type": "function"
    },
    {
      "inputs": [
        {
          "internalType": "uint8",
          "name": "_market_id",
          "type": "uint8"
        },
        {
          "internalType": "uint8",
          "name": "_del_tokenKind",
          "type": "uint8"
        },
        {
          "internalType": "uint256",
          "name": "_del_price",
          "type": "uint256"
        },
        {
          "internalType": "uint8",
          "name": "_tokenKind",
          "type": "uint8"
        },
        {
          "internalType": "uint256",
          "name": "_price",
          "type": "uint256"
        }
      ],
      "name": "suggestChange",
      "outputs": [
        {
          "internalType": "bool",
          "name": "",
          "type": "bool"
        }
      ],
      "stateMutability": "nonpayable",
      "type": "function"
    },
    {
      "inputs": [
        {
          "internalType": "uint8",
          "name": "_market_id",
          "type": "uint8"
        },
        {
          "internalType": "uint8",
          "name": "_tokenKind",
          "type": "uint8"
        }
      ],
      "name": "showSuggest",
      "outputs": [
        {
          "internalType": "uint256[]",
          "name": "",
          "type": "uint256[]"
        }
      ],
      "stateMutability": "view",
      "type": "function"
    },
    {
      "inputs": [
        {
          "internalType": "uint8",
          "name": "_market_id",
          "type": "uint8"
        },
        {
          "internalType": "uint8",
          "name": "_tokenKind",
          "type": "uint8"
        },
        {
          "internalType": "uint256",
          "name": "_price",
          "type": "uint256"
        }
      ],
      "name": "tradeWant",
      "outputs": [
        {
          "internalType": "bool",
          "name": "",
          "type": "bool"
        }
      ],
      "stateMutability": "nonpayable",
      "type": "function"
    },
    {
      "inputs": [
        {
          "internalType": "uint8",
          "name": "_market_id",
          "type": "uint8"
        },
        {
          "internalType": "uint256",
          "name": "_i",
          "type": "uint256"
        }
      ],
      "name": "showCurrent",
      "outputs": [
        {
          "internalType": "uint256[]",
          "name": "priceYes",
          "type": "uint256[]"
        },
        {
          "internalType": "uint256[]",
          "name": "timeYes",
          "type": "uint256[]"
        },
        {
          "internalType": "uint256[]",
          "name": "priceNo",
          "type": "uint256[]"
        },
        {
          "internalType": "uint256[]",
          "name": "timeNo",
          "type": "uint256[]"
        }
      ],
      "stateMutability": "view",
      "type": "function"
    },
    {
      "inputs": [
        {
          "internalType": "uint8",
          "name": "_market_id",
          "type": "uint8"
        },
        {
          "internalType": "uint8",
          "name": "_tokenKind",
          "type": "uint8"
        },
        {
          "internalType": "uint256",
          "name": "_acceptedPrice",
          "type": "uint256"
        }
      ],
      "name": "distribute",
      "outputs": [
        {
          "internalType": "bool",
          "name": "",
          "type": "bool"
        }
      ],
      "stateMutability": "nonpayable",
      "type": "function"
    }
  ],
  "bytecode": "0x60806040523480156200001157600080fd5b5060408051808201825260068082527f4e6f436f696e000000000000000000000000000000000000000000000000000060208084019190915283518085018552600281527f4e6f0000000000000000000000000000000000000000000000000000000000008183015284518086018652600781527f596573436f696e000000000000000000000000000000000000000000000000008184019081528651808801909752600387527f59657300000000000000000000000000000000000000000000000000000000009387019390935260008054600160a060020a0319163317905580516103e896929487949293926200010a9262000250565b5080516200012090600790602084019062000250565b50506008805460ff1916601217905550806200019d57604080517f08c379a000000000000000000000000000000000000000000000000000000000815260206004820152601560248201527f45524332304361707065643a2063617020697320300000000000000000000000604482015290519081900360640190fd5b600a558151620001b590601090602085019062000250565b508051620001cb90601190602084019062000250565b50506012805460ff19168117905550806200024757604080517f08c379a000000000000000000000000000000000000000000000000000000000815260206004820152601560248201527f45524332304361707065643a2063617020697320300000000000000000000000604482015290519081900360640190fd5b601455620002ec565b828054600181600116156101000203166002900490600052602060002090601f016020900481019282601f106200029357805160ff1916838001178555620002c3565b82800160010185558215620002c3579182015b82811115620002c3578251825591602001919060010190620002a6565b50620002d1929150620002d5565b5090565b5b80821115620002d15760008155600101620002d6565b6130af80620002fc6000396000f3fe6080604052600436106101085760e060020a60003504632104ef4a811461010d5780632a0f6fc5146101925780632c9c85ca146101d1578063355274ea146101e65780633ccfd60b146101fb5780634311de8f146102125780635065036e14610227578063674120451461023c578063898871c9146102785780638da5cb5b1461028d578063913d20be146102be57806393f01ae81461030f578063aff743681461035a578063baad7ac81461038f578063c0e317fb146104e5578063c593017f146104ed578063d1b2d67d1461052a578063d53b639214610567578063de562a9714610594578063f0e43baf1461059c578063f2fde38b146105d8578063f8f29b071461060b575b600080fd5b34801561011957600080fd5b506101426004803603604081101561013057600080fd5b5060ff81358116916020013516610648565b60408051602080825283518183015283519192839290830191858101910280838360005b8381101561017e578181015183820152602001610166565b505050509050019250505060405180910390f35b34801561019e57600080fd5b506101bf600480360360208110156101b557600080fd5b503560ff166108ac565b60408051918252519081900360200190f35b3480156101dd57600080fd5b506101bf6108c1565b3480156101f257600080fd5b506101bf6108e0565b34801561020757600080fd5b506102106108e6565b005b34801561021e57600080fd5b5061021061092b565b34801561023357600080fd5b506101bf61097a565b34801561024857600080fd5b506101bf6004803603604081101561025f57600080fd5b508035600160a060020a0316906020013560ff1661098d565b34801561028457600080fd5b506101bf6109ba565b34801561029957600080fd5b506102a26109c0565b60408051600160a060020a039092168252519081900360200190f35b3480156102ca57600080fd5b506102fb600480360360608110156102e157600080fd5b5060ff8135811691602081013590911690604001356109cf565b604080519115158252519081900360200190f35b34801561031b57600080fd5b506102fb600480360360a081101561033257600080fd5b5060ff8135811691602081013582169160408201359160608101359091169060800135610bc9565b34801561036657600080fd5b506101426004803603604081101561037d57600080fd5b5060ff813581169160200135166111e9565b34801561039b57600080fd5b506103c2600480360360408110156103b257600080fd5b5060ff8135169060200135611418565b6040518080602001806020018060200180602001858103855289818151815260200191508051906020019060200280838360005b8381101561040e5781810151838201526020016103f6565b50505050905001858103845288818151815260200191508051906020019060200280838360005b8381101561044d578181015183820152602001610435565b50505050905001858103835287818151815260200191508051906020019060200280838360005b8381101561048c578181015183820152602001610474565b50505050905001858103825286818151815260200191508051906020019060200280838360005b838110156104cb5781810151838201526020016104b3565b505050509050019850505050505050505060405180910390f35b6102fb61170b565b3480156104f957600080fd5b506102fb6004803603606081101561051057600080fd5b5060ff81358116916020810135909116906040013561173b565b34801561053657600080fd5b506102fb6004803603606081101561054d57600080fd5b5060ff813581169160208101359091169060400135611c9b565b34801561057357600080fd5b506101bf6004803603602081101561058a57600080fd5b503560ff16611fdc565b6102fb611ff1565b3480156105a857600080fd5b506101bf600480360360408110156105bf57600080fd5b508035600160a060020a0316906020013560ff1661201f565b3480156105e457600080fd5b50610210600480360360208110156105fb57600080fd5b5035600160a060020a031661204c565b34801561061757600080fd5b506102fb6004803603606081101561062e57600080fd5b5060ff8135811691602081013590911690604001356120d1565b606082828060ff16600114156106b05760ff82166000908152600460205260409020544211156106b0576040805160e560020a62461bcd0281526020600482015260176024820152600080516020613015833981519152604482015290519081900360640190fd5b8060ff16600214156107145760ff82166000908152600e6020526040902054421115610714576040805160e560020a62461bcd0281526020600482015260176024820152600080516020613015833981519152604482015290519081900360640190fd5b60ff85166000908152601c602052604090205460609067ffffffffffffffff8111801561074057600080fd5b5060405190808252806020026020018201604052801561076a578160200160208202803683370190505b5090506000805b60ff88166000908152601c60205260409020548110156108a05760ff88166000908152601c602052604090208054829081106107a957fe5b600091825260209091206002600390920201015460ff1615156001148015610800575060ff88166000818152601c602052604090208054839081106107ea57fe5b600091825260209091206003909102015460ff16145b8015610845575060ff8881166000908152601c602052604090208054918916918390811061082a57fe5b6000918252602090912060039091020154610100900460ff16145b156108985760ff88166000908152601c6020526040902080548290811061086857fe5b90600052602060002090600302016001015483838151811061088657fe5b60209081029190910101526001909101905b600101610771565b50909695505050505050565b60ff166000908152600d602052604090205490565b60008054600160a060020a031633146108d957600080fd5b5060165490565b600a5490565b33600081815260156020526040808220805490839055905190929183156108fc02918491818181858888f19350505050158015610927573d6000803e3d6000fd5b5050565b600054600160a060020a0316331461094257600080fd5b601680546000918290556040519091339183156108fc0291849190818181858888f19350505050158015610927573d6000803e3d6000fd5b3360009081526015602052604090205490565b600160a060020a038216600090815260016020908152604080832060ff8516845290915290205492915050565b60145490565b600054600160a060020a031681565b600083838060ff1660011415610a375760ff8216600090815260046020526040902054421115610a37576040805160e560020a62461bcd0281526020600482015260176024820152600080516020613015833981519152604482015290519081900360640190fd5b8060ff1660021415610a9b5760ff82166000908152600e6020526040902054421115610a9b576040805160e560020a62461bcd0281526020600482015260176024820152600080516020613015833981519152604482015290519081900360640190fd5b6000610aa887878761247e565b9050600160a060020a03811615610bba57610ac433828761264d565b1515600114610ad257600080fd5b8560ff1660011415610b4157600054610af790600160a060020a03163389600161272c565b60ff87166000908152601a60209081526040808320815180830190925288825242828401908152815460018181018455928652939094209151600290930290910191825591519101555b8560ff1660021415610bb057600054610b6690600160a060020a0316338960016128c2565b60ff87166000908152601b60209081526040808320815180830190925288825242828401908152815460018181018455928652939094209151600290930290910191825591519101555b6001935050610bc0565b60009350505b50509392505050565b600085838060ff1660011415610c315760ff8216600090815260046020526040902054421115610c31576040805160e560020a62461bcd0281526020600482015260176024820152600080516020613015833981519152604482015290519081900360640190fd5b8060ff1660021415610c955760ff82166000908152600e6020526040902054421115610c95576040805160e560020a62461bcd0281526020600482015260176024820152600080516020613015833981519152604482015290519081900360640190fd5b60008060005b336000908152601e6020908152604080832060ff8f16845290915290205481101561119257336000908152601e6020908152604080832060ff8f1684529091529020805482908110610ce957fe5b9060005260206000200154925088601c60008d60ff1660ff1681526020019081526020016000208481548110610d1b57fe5b906000526020600020906003020160010154148015610d69575060ff8b166000818152601c60205260409020805485908110610d5357fe5b600091825260209091206003909102015460ff16145b8015610dae575060ff8b81166000908152601c602052604090208054918c169185908110610d9357fe5b6000918252602090912060039091020154610100900460ff16145b156111505760ff8b166000908152601c60205260408120805485908110610dd157fe5b906000526020600020906003020160020160006101000a81548160ff021916908315150217905550601d600033600160a060020a0316600160a060020a0316815260200190815260200160002060008c60ff1660ff168152602001908152602001600020600081819054906101000a900460ff16809291906001900391906101000a81548160ff021916908360ff160217905550508760ff1660011415610e9057600054610e8b90600160a060020a0316338d600161272c565b610eb5565b8760ff1660021415610eb557600054610eb590600160a060020a0316338d60016128c2565b6040805160ff808e1682528c1660208201528082018b905290517fde0197d7a686632e0283613ea86f8fd1d2c8bbce9e2d8e4cd657d9220d12b2e79181900360600190a18760ff1660011415610f2457600054610f1f903390600160a060020a03168d600161272c565b610f4a565b8760ff1660021415610f4a57600054610f4a903390600160a060020a03168d60016128c2565b601c60008c60ff1660ff1681526020019081526020016000206040518060a001604052808d60ff1681526020018a60ff16815260200133600160a060020a0316815260200189815260200160011515815250908060018154018082558091505060019003906000526020600020906003020160009091909190915060008201518160000160006101000a81548160ff021916908360ff16021790555060208201518160000160016101000a81548160ff021916908360ff16021790555060408201518160000160026101000a815481600160a060020a030219169083600160a060020a031602179055506060820151816001015560808201518160020160006101000a81548160ff02191690831515021790555050506001601c60008d60ff1660ff16815260200190815260200160002080549050039150601d600033600160a060020a0316600160a060020a0316815260200190815260200160002060008c60ff1660ff168152602001908152602001600020600081819054906101000a900460ff168092919060010191906101000a81548160ff021916908360ff1602179055505081601e600033600160a060020a0316600160a060020a0316815260200190815260200160002060008d60ff1660ff168152602001908152602001600020848154811061113657fe5b9060005260206000200181905550600195505050506111de565b8261118a576040517f1f4ac37a6b99091b4eaf5d1b74c150c6aaf9b354c2cc2d5587c1502df00ff86f90600090a1600095505050506111de565b600101610c9b565b506040805160ff808d1682528b1660208201528082018a905290517f5490fcdd3ff1f84f7a0ea2495363b207849cbc20deb81dc1c7cf3cd84d0844a29181900360600190a16000945050505b505095945050505050565b60ff80831660009081526002602052604090205460609184911615611246576040805160e560020a62461bcd02815260206004820152601b602482015260008051602061305a833981519152604482015290519081900360640190fd5b60ff841660009081526017602052604090205460609067ffffffffffffffff8111801561127257600080fd5b5060405190808252806020026020018201604052801561129c578160200160208202803683370190505b5090506000808560ff16600114156112b6575060026112c6565b8560ff16600214156112c6575060015b60005b60ff881660009081526017602052604090205481101561140c5760ff8816600081815260176020526040902080548390811061130157fe5b600091825260209091206003909102015460ff16148015611362575060ff8816600090815260176020526040902080548290811061133b57fe5b906000526020600020906003020160020160149054906101000a900460ff16151560011515145b80156113a7575060ff88811660009081526017602052604090208054918416918390811061138c57fe5b6000918252602090912060039091020154610100900460ff16145b156114045760ff881660009081526017602052604090208054829081106113ca57fe5b906000526020600020906003020160010154670de0b6b3a7640000038484815181106113f257fe5b60209081029190910101526001909201915b6001016112c9565b50919695505050505050565b60ff82166000908152601a6020526040902054606090819081908190819067ffffffffffffffff8111801561144c57600080fd5b50604051908082528060200260200182016040528015611476578160200160208202803683370190505b5060ff88166000908152601a602052604090205490915060609067ffffffffffffffff811180156114a657600080fd5b506040519080825280602002602001820160405280156114d0578160200160208202803683370190505b5060ff89166000908152601a602052604090205490915060609067ffffffffffffffff8111801561150057600080fd5b5060405190808252806020026020018201604052801561152a578160200160208202803683370190505b5060ff8a166000908152601b602052604090205490915060609067ffffffffffffffff8111801561155a57600080fd5b50604051908082528060200260200182016040528015611584578160200160208202803683370190505b509050885b60ff8b166000908152601a60205260409020548110156116405760ff8b166000908152601a602052604090208054829081106115c157fe5b9060005260206000209060020201600001548582815181106115df57fe5b602002602001018181525050601a60008c60ff1660ff168152602001908152602001600020818154811061160f57fe5b90600052602060002090600202016001015484828151811061162d57fe5b6020908102919091010152600101611589565b50885b60ff8b166000908152601b60205260409020548110156116fa5760ff8b166000908152601a6020526040902080548290811061167b57fe5b90600052602060002090600202016000015483828151811061169957fe5b602002602001018181525050601a60008c60ff1660ff16815260200190815260200160002081815481106116c957fe5b9060005260206000209060020201600101548282815181106116e757fe5b6020908102919091010152600101611643565b509299919850965090945092505050565b336000908152601560205260408120546117259034612a58565b3360009081526015602052604090205550600190565b60ff808416600090815260026020526040812054909185911615611797576040805160e560020a62461bcd02815260206004820152601b602482015260008051602061305a833981519152604482015290519081900360640190fd5b60008060008660ff16600114156117b0575060026117c0565b8660ff16600214156117c0575060015b60005b60ff89166000908152601760205260409020548110156119495760ff891660008181526017602052604090208054839081106117fb57fe5b600091825260209091206003909102015460ff1614801561185c575060ff8916600090815260176020526040902080548290811061183557fe5b906000526020600020906003020160020160149054906101000a900460ff16151560011515145b80156118a3575060ff891660009081526017602052604090208054670de0b6b3a764000089900391908390811061188f57fe5b906000526020600020906003020160010154145b80156118e8575060ff8981166000908152601760205260409020805491841691839081106118cd57fe5b6000918252602090912060039091020154610100900460ff16145b156119345760ff89166000908152601760205260409020805491935083918290811061191057fe5b6000918252602090912060026003909202010154600160a060020a03169350611941565b6000955050505050611c93565b6001016117c3565b506119543387612ab5565b151560011461199f576040805160e560020a62461bcd02815260206004820152600c602482015260a260020a6b1c185e5b595b9d0819985a5b02604482015290519081900360640190fd5b6119b38387670de0b6b3a764000003612ab5565b15156001146119fe576040805160e560020a62461bcd02815260206004820152600c602482015260a260020a6b1c185e5b595b9d0819985a5b02604482015290519081900360640190fd5b8660ff1660011415611a9d5760ff88166000818152601a60209081526040808320815180830183528b81524281850181815283546001818101865594885286882093516002918202909401938455905192840192909255958552601b84528285208351808501909452670de0b6b3a76400008d900384528385019687528054808401825590865293909420915192909302019081559151910155611b38565b8660ff1660021415611b385760ff88166000818152601b60209081526040808320815180830183528b81524281850181815283546001818101865594885286882093516002918202909401938455905192840192909255958552601a84528285208351808501909452670de0b6b3a76400008d9003845283850196875280548084018255908652939094209151929093020190815591519101555b8660ff1660011415611b9d57611b5033896001612b74565b60ff881660009081526017602052604090208054611b98919084908110611b7357fe5b6000918252602090912060026003909202010154600160a060020a0316896001612b90565b611bfd565b8660ff1660021415611bfd57611bb533896001612b90565b60ff881660009081526017602052604090208054611bfd919084908110611bd857fe5b6000918252602090912060026003909202010154600160a060020a0316896001612b74565b60ff88166000908152601760205260408120805484908110611c1b57fe5b60009182526020808320600260039093020191909101805493151560a060020a0260a060020a60ff021990941693909317909255600160a060020a0390941680855260198252604080862060ff8c16808852908452818720805460ff1916905591865260188352808620918652915283209290925550505b509392505050565b60ff808416600090815260026020526040812054909185911615611cf7576040805160e560020a62461bcd02815260206004820152601b602482015260008051602061305a833981519152604482015290519081900360640190fd5b33600090815260196020908152604080832060ff808a168552925282205416611e12575060ff8086166000818152601760209081526040808320815160a0810183528581528a87168185019081528184018b8152336060840181815260016080860181815287548083018955888c528a8c2097516003909102909701805496518e166101000261ff001998909e1660ff1990971696909617969096169b909b1784559151838b01559051600290920180549351151560a060020a0260a060020a60ff0219600160a060020a0394909416600160a060020a031990951694909417929092169290921790559054818552601884528285208686528452828520600019919091019055835260198252822092909152529150611c93565b5033600090815260186020908152604080832060ff8916845282528083205460179092528220805491929183908110611e4757fe5b906000526020600020906003020160020160146101000a81548160ff02191690831515021790555085601760008860ff1660ff1681526020019081526020016000208281548110611e9457fe5b60009182526020808320600392909202909101805460ff191660ff9485161790559188168152601790915260409020805486919083908110611ed257fe5b60009182526020808320600392909202909101805461ff00191661010060ff958616021790559188168152601790915260409020805485919083908110611f1557fe5b90600052602060002090600302016001018190555033601760008860ff1660ff1681526020019081526020016000208281548110611f4f57fe5b906000526020600020906003020160020160006101000a815481600160a060020a030219169083600160a060020a031602179055506001601760008860ff1660ff1681526020019081526020016000208281548110611faa57fe5b906000526020600020906003020160020160146101000a81548160ff0219169083151502179055506001925050611c93565b60ff1660009081526003602052604090205490565b60008054600160a060020a0316331461200957600080fd5b6016546120169034612a58565b60165550600190565b600160a060020a0382166000908152600b6020908152604080832060ff8516845290915290205492915050565b600054600160a060020a0316331461206357600080fd5b600160a060020a03811661207657600080fd5b60008054604051600160a060020a03808516939216917f8be0079c531659141344cd1fd0a4f28419497f9722a3daafe3b4186f6b6457e091a360008054600160a060020a031916600160a060020a0392909216919091179055565b600083838060ff16600114156121395760ff8216600090815260046020526040902054421115612139576040805160e560020a62461bcd0281526020600482015260176024820152600080516020613015833981519152604482015290519081900360640190fd5b8060ff166002141561219d5760ff82166000908152600e602052604090205442111561219d576040805160e560020a62461bcd0281526020600482015260176024820152600080516020613015833981519152604482015290519081900360640190fd5b336000908152601d6020908152604080832060ff808b168552925290912054600a91161115612216576040805160e560020a62461bcd02815260206004820152601660248201527f596f75722073756767657374732069732066756c6c2e00000000000000000000604482015290519081900360640190fd5b60008560ff16600114156122435760005461223e903390600160a060020a031689600161272c565b612269565b8560ff166002141561226957600054612269903390600160a060020a03168960016128c2565b601c60008860ff1660ff1681526020019081526020016000206040518060a001604052808960ff1681526020018860ff16815260200133600160a060020a0316815260200187815260200160011515815250908060018154018082558091505060019003906000526020600020906003020160009091909190915060008201518160000160006101000a81548160ff021916908360ff16021790555060208201518160000160016101000a81548160ff021916908360ff16021790555060408201518160000160026101000a815481600160a060020a030219169083600160a060020a031602179055506060820151816001015560808201518160020160006101000a81548160ff02191690831515021790555050506001601c60008960ff1660ff16815260200190815260200160002080549050039050601d600033600160a060020a0316600160a060020a0316815260200190815260200160002060008860ff1660ff168152602001908152602001600020600081819054906101000a900460ff168092919060010191906101000a81548160ff021916908360ff16021790555050601e600033600160a060020a0316600160a060020a0316815260200190815260200160002060008860ff1660ff168152602001908152602001600020819080600181540180825580915050600190039060005260206000200160009091909190915055600193505050509392505050565b60008060005b60ff86166000908152601c602052604090205481101561263f5760ff86166000908152601c602052604090208054829081106124bc57fe5b600091825260209091206002600390920201015460ff161515600114156126375760ff86166000818152601c602052604090208054839081106124fb57fe5b600091825260209091206003909102015460ff16148015612555575060ff8681166000908152601c602052604090208054918716918390811061253a57fe5b6000918252602090912060039091020154610100900460ff16145b8015612591575060ff86166000908152601c6020526040902080548591908390811061257d57fe5b906000526020600020906003020160010154145b156126375760ff86166000908152601c602052604090208054829081106125b457fe5b906000526020600020906003020160000160029054906101000a9004600160a060020a03169150601c60008760ff1660ff16815260200190815260200160002081815481106125ff57fe5b6000918252602082206003909102018054600160b060020a03191681556001810191909155600201805460ff19169055509050612646565b600101612484565b5060009150505b9392505050565b600160a060020a0383166000908152601560205260408120548211156126b7576040805160e560020a62461bcd0281526020600482015260146024820152606060020a73496e73756666696369656e742062616c616e636502604482015290519081900360640190fd5b600160a060020a0384166000908152601560205260409020546126da9083612ba7565b600160a060020a0380861660009081526015602052604080822093909355908516815220546127099083612a58565b600160a060020a0384166000908152601560205260409020555060019392505050565b600160a060020a0384166127745760405160e560020a62461bcd0281526004018080602001828103825260258152602001806130356025913960400191505060405180910390fd5b600160a060020a0383166127bc5760405160e560020a62461bcd028152600401808060200182810382526023815260200180612fcc6023913960400191505060405180910390fd5b61280781604051806060016040528060268152602001612fef60269139600160a060020a038716600090815260016020908152604080832060ff891684529091529020549190612be5565b600160a060020a03808616600090815260016020818152604080842060ff8916808652908352818520969096559388168352908152828220938252929092529020546128539082612a58565b600160a060020a03808516600081815260016020908152604080832060ff891680855290835292819020959095558451918252810185905283519193928816927f0f684af25f5a740d6a8524c3449595054ae99c1a794cdb7cc0a7cac8542155aa92918290030190a350505050565b600160a060020a03841661290a5760405160e560020a62461bcd0281526004018080602001828103825260258152602001806130356025913960400191505060405180910390fd5b600160a060020a0383166129525760405160e560020a62461bcd028152600401808060200182810382526023815260200180612fcc6023913960400191505060405180910390fd5b61299d81604051806060016040528060268152602001612fef60269139600160a060020a0387166000908152600b6020908152604080832060ff891684529091529020549190612be5565b600160a060020a038086166000908152600b6020818152604080842060ff8916808652908352818520969096559388168352908152828220938252929092529020546129e99082612a58565b600160a060020a038085166000818152600b6020908152604080832060ff891680855290835292819020959095558451918252810185905283519193928816927fe900273c6695685a9e29e1549993f395f73358da833b17b4075fde68c584f28192918290030190a350505050565b600082820183811015612646576040805160e560020a62461bcd02815260206004820152601b60248201527f536166654d6174683a206164646974696f6e206f766572666c6f770000000000604482015290519081900360640190fd5b600160a060020a038216600090815260156020526040812054821115612b1f576040805160e560020a62461bcd0281526020600482015260146024820152606060020a73496e73756666696369656e742062616c616e636502604482015290519081900360640190fd5b600160a060020a038316600090815260156020526040902054612b429083612ba7565b600160a060020a038416600090815260156020526040902055601654612b689083612a58565b60165550600192915050565b612b8060008383612c7f565b612b8b838383612d2d565b505050565b612b9c60008383612e53565b612b8b838383612ea5565b600061264683836040518060400160405280601e81526020017f536166654d6174683a207375627472616374696f6e206f766572666c6f7700008152505b60008184841115612c775760405160e560020a62461bcd0281526004018080602001828103825283818151815260200191508051906020019080838360005b83811015612c3c578181015183820152602001612c24565b50505050905090810190601f168015612c695780820380516001836020036101000a031916815260200191505b509250505060405180910390fd5b505050900390565b600160a060020a038316612b8b57600a54612ca382612c9d85611fdc565b90612a58565b1415612cc75760ff82166000908152600260205260409020805460ff191660011790555b600a54612cd782612c9d85611fdc565b1115612b8b576040805160e560020a62461bcd02815260206004820152601960248201527f45524332304361707065643a2063617020657863656564656400000000000000604482015290519081900360640190fd5b600160a060020a038316612d8b576040805160e560020a62461bcd02815260206004820152601f60248201527f45524332303a206d696e7420746f20746865207a65726f206164647265737300604482015290519081900360640190fd5b60ff8216600090815260036020526040902054612da89082612a58565b60ff8316600081815260036020908152604080832094909455600160a060020a038716825260018152838220928252919091522054612de79082612a58565b600160a060020a038416600081815260016020908152604080832060ff88168085529083528184209590955580519485529084018590528051929391927f0f684af25f5a740d6a8524c3449595054ae99c1a794cdb7cc0a7cac8542155aa9281900390910190a3505050565b600160a060020a038316612b8b57601454612e7182612c9d856108ac565b1415612e955760ff82166000908152600c60205260409020805460ff191660011790555b601454612cd782612c9d856108ac565b600160a060020a038316612f03576040805160e560020a62461bcd02815260206004820152601f60248201527f45524332303a206d696e7420746f20746865207a65726f206164647265737300604482015290519081900360640190fd5b60ff82166000908152600d6020526040902054612f209082612a58565b60ff83166000818152600d6020908152604080832094909455600160a060020a0387168252600b8152838220928252919091522054612f5f9082612a58565b600160a060020a0384166000818152600b6020908152604080832060ff88168085529083528184209590955580519485529084018590528051929391927fe900273c6695685a9e29e1549993f395f73358da833b17b4075fde68c584f2819281900390910190a350505056fe45524332303a207472616e7366657220746f20746865207a65726f206164647265737345524332303a207472616e7366657220616d6f756e7420657863656564732062616c616e636565787069726174696f6e2064617465206973206f76657200000000000000000045524332303a207472616e736665722066726f6d20746865207a65726f20616464726573734d61726b657420446973747269627574696f6e206973206f7665720000000000a26469706673582212205b4f5486ef505155465cd92f41288d8cf61cde683e6fc816738ede322e4fcda964736f6c63430007000033",
  "immutableReferences": {},
  "source": "pragma solidity ^0.7.0;\n\nimport \"./erc20Distribution.sol\";\nimport \"./safeMath.sol\";\n\n//!\ncontract TokenTrade is ERC20Distribution {\n    using SafeMath for uint256;\n    \n    struct Suggest {\n        uint8 market_id;\n        uint8 tokenKind;                          //tokenKind 0 yescoin, 1 nocoin. \n        address suggester;\n        uint256 suggestPrice;         //1c ether\n        bool is_valid;\n    }\n    struct priceLog {\n        uint256 price;       \n        uint256 timestamp;\n    }\n    mapping (uint8 => priceLog[]) private yesCoinP;\n    mapping (uint8 => priceLog[]) private noCoinP;\n\n    mapping (uint8 => Suggest[]) private suggests;  // id \n\n    mapping (address => mapping (uint8 => uint8)) private suggestCountOf;   //    .    10 .\n    mapping (address => mapping (uint8 => uint256[])) private suggestIdxOf;       //   .\n    \n    event SuggestRemove(uint8 _del_market_id, uint8 _del, uint256 _del_price);\n    event NoFound(uint8 _del_market_id, uint8 _del_tokenKind, uint256 _del_price);\n    event NoIndex();\n\n    modifier expireCheck(uint8 _market_id, uint8 _tokenKind){\n       if (_tokenKind == 1){\n           require(_expirationDateOf[_market_id] >= block.timestamp, \"expiration date is over\");\n       }\n       if (_tokenKind == 2){\n           require(_expirationDateOf1[_market_id] >= block.timestamp, \"expiration date is over\");\n       }\n       _;\n        \n    }\n\n    // .   10 .      . \n    function suggest(uint8 _market_id, uint8 _tokenKind, uint256 _price) external expireCheck(_market_id, _tokenKind) returns (bool){\n        require(suggestCountOf[msg.sender][_market_id] <= 10, \"Your suggests is full.\");   //  .\n        uint256 id;\n        if (_tokenKind == 1){\n            _transfer(msg.sender, owner, _market_id, 1);\n        }\n        else if (_tokenKind == 2){\n            _transfer1(msg.sender, owner, _market_id, 1);\n        }\n        suggests[_market_id].push(Suggest(_market_id, _tokenKind, msg.sender, _price, true));\n        id = suggests[_market_id].length -1;\n        suggestCountOf[msg.sender][_market_id]++;\n        suggestIdxOf[msg.sender][_market_id].push(id);\n        return true;\n    }\n\n    // .            .\n    function suggestChange(uint8 _market_id, uint8 _del_tokenKind, uint256 _del_price, uint8 _tokenKind, uint256 _price) external expireCheck(_market_id, _tokenKind) returns (bool){\n        uint256 index;\n        uint256 id;\n        //   .\n        for (uint i = 0; i < suggestIdxOf[msg.sender][_market_id].length; i++) {\n            index = suggestIdxOf[msg.sender][_market_id][i];\n            if (suggests[_market_id][index].suggestPrice == _del_price && suggests[_market_id][index].market_id == _market_id && suggests[_market_id][index].tokenKind == _del_tokenKind){\n                suggests[_market_id][index].is_valid = false; \n                suggestCountOf[msg.sender][_market_id]--;\n                 if (_tokenKind == 1){\n                     _transfer(owner, msg.sender, _market_id, 1);\n                }\n                else if (_tokenKind == 2){\n                    _transfer1(owner, msg.sender, _market_id, 1);\n                }\n                emit SuggestRemove(_market_id, _del_tokenKind, _del_price); \n                // . \n                if (_tokenKind == 1){\n                     _transfer(msg.sender, owner, _market_id, 1);\n                }\n                else if (_tokenKind == 2){\n                    _transfer1(msg.sender, owner, _market_id, 1);\n                }\n                suggests[_market_id].push(Suggest(_market_id, _tokenKind, msg.sender, _price, true));\n                id = suggests[_market_id].length - 1;\n                suggestCountOf[msg.sender][_market_id]++;\n                suggestIdxOf[msg.sender][_market_id][index] = id;  //  suggestIdxOf uint256(10)   .\n                return true;\n            }\n            else if (index == 0) {  //  .\n                emit NoIndex();\n                return false;\n            }\n        }\n        emit NoFound(_market_id, _del_tokenKind, _del_price); \n        return false;\n    }    \n\n    // . \n    function showSuggest(uint8 _market_id, uint8 _tokenKind) external view expireCheck(_market_id, _tokenKind) returns (uint256[] memory) {\n        uint[] memory result = new uint[] (suggests[_market_id].length);\n        uint counter;\n        for (uint i = 0; i < suggests[_market_id].length; i++){\n            if (suggests[_market_id][i].is_valid == true && suggests[_market_id][i].market_id == _market_id && suggests[_market_id][i].tokenKind == _tokenKind) {\n                result[counter] = suggests[_market_id][i].suggestPrice;\n                counter++;    \n            }\n        }\n        return result;\n    }\n\n    function lookup (uint8 _market_id, uint8 _tokenKind, uint256 _price) internal returns (address){\n        address suggester;\n        for (uint i = 0; i < suggests[_market_id].length; i++){\n            if (suggests[_market_id][i].is_valid == true){\n                if (suggests[_market_id][i].market_id == _market_id && suggests[_market_id][i].tokenKind == _tokenKind && suggests[_market_id][i].suggestPrice == _price){\n                    suggester = suggests[_market_id][i].suggester;\n                    delete suggests[_market_id][i];\n                    return suggester;\n                }\n            }\n        } \n        return address(0);\n    }\n\n    //   .       .\n    function tradeWant(uint8 _market_id, uint8 _tokenKind, uint256 _price) public expireCheck(_market_id, _tokenKind) returns (bool){\n        address suggester = lookup(_market_id, _tokenKind, _price);\n        if(suggester != address(0)){\n            require(weiTransfer(msg.sender, suggester, _price) == true);\n            if (_tokenKind == 1){\n                _transfer(owner, msg.sender, _market_id, 1);\n                yesCoinP[_market_id].push(priceLog(_price, block.timestamp));\n            }  \n            if (_tokenKind == 2){\n                _transfer1(owner, msg.sender, _market_id, 1);\n                 noCoinP[_market_id].push(priceLog(_price, block.timestamp));\n            }\n            return true;\n        }\n        return false;\n    }\n\n    //  .\n    function showCurrent(uint8 _market_id, uint _i)public view returns (uint256[] memory priceYes, uint256[] memory timeYes, uint256[] memory priceNo, uint256[] memory timeNo){\n        uint256[] memory price1 = new uint256[](yesCoinP[_market_id].length);\n        uint256[] memory time1 = new uint256[](yesCoinP[_market_id].length);\n        uint256[] memory price2 = new uint256[](yesCoinP[_market_id].length);\n        uint256[] memory time2 = new uint256[](noCoinP[_market_id].length);\n        for (uint i = _i; i< yesCoinP[_market_id].length ; i++){\n            price1[i] = yesCoinP[_market_id][i].price;\n            time1[i] = yesCoinP[_market_id][i].timestamp;\n        }\n        for(uint i = _i; i< noCoinP[_market_id].length ; i++){\n            price2[i] = yesCoinP[_market_id][i].price;\n            time2[i] = yesCoinP[_market_id][i].timestamp;\n        }\n        return (price1, time1, price2, time2);\n    } \n    \n    //  . ,        .\n    function distribute(uint8 _market_id, uint8 _tokenKind, uint256 _acceptedPrice) external marketCheck(_market_id) returns (bool){\n        address requester;\n        uint index;\n        uint8 searchKind;\n        if (_tokenKind == 1) {\n            searchKind = 2;\n        }\n        else if (_tokenKind == 2){\n            searchKind = 1;\n        }\n        for (uint i = 0; i < requests[_market_id].length; i++){\n            if (requests[_market_id][i].market_id == _market_id && requests[_market_id][i].is_valid == true && requests[_market_id][i].requestPrice == 1*10**18 -_acceptedPrice && requests[_market_id][i].tokenKind == searchKind) {\n                index = i;\n                requester = requests[_market_id][i].requester;       \n            }\n            else return false;\n        }\n        // .\n        require(ownerTransfer(msg.sender, _acceptedPrice)==true, \"payment fail\");\n        require(ownerTransfer(requester, (1*10**18-_acceptedPrice))==true,\"payment fail\");\n        if (_tokenKind == 1) {\n            yesCoinP[_market_id].push(priceLog(_acceptedPrice, block.timestamp));\n            noCoinP[_market_id].push(priceLog(1*10**18 - _acceptedPrice, block.timestamp));\n        }\n        else if (_tokenKind == 2){\n            noCoinP[_market_id].push(priceLog(_acceptedPrice, block.timestamp));\n            yesCoinP[_market_id].push(priceLog(1*10**18 - _acceptedPrice, block.timestamp));\n        }\n        //\n        if (_tokenKind == 1) {\n            super._yesCoin_mint(msg.sender, _market_id, 1);\n            super._noCoin_mint(requests[_market_id][index].requester, _market_id, 1);\n        }\n        else if (_tokenKind == 2){\n            super._noCoin_mint(msg.sender, _market_id, 1);\n            super._yesCoin_mint(requests[_market_id][index].requester, _market_id, 1);\n        }\n        requests[_market_id][index].is_valid = false;\n        alreadyRequest[requester][_market_id] = false;\n        delete requestIdOf[requester][_market_id];\n    }\n}\n\n",
  "sourcePath": "/home/jisoo/pet-projects/Prediction_market/back/contracts/tokenTrade.sol",
  "compiler": {
    "name": "solc",
    "version": "0.7.0+commit.9e61f92b.Emscripten.clang"
  },
  "schemaVersion": "3.3.1",
  "updatedAt": "2020-11-28T16:28:52.028Z",
  "devdoc": {
    "kind": "dev",
    "methods": {
      "balanceOf(address,uint8)": {
        "details": "See {IERC20-balanceOf}."
      },
      "balanceOf1(address,uint8)": {
        "details": "See {IERC20-balanceOf}."
      },
      "cap()": {
        "details": "Returns the cap on the token's total supply."
      },
      "cap1()": {
        "details": "Returns the cap on the token's total supply."
      },
      "totalSupplyOf(uint8)": {
        "details": "See {IERC20-totalSupply}."
      },
      "totalSupplyOf1(uint8)": {
        "details": "See {IERC20-totalSupply}."
      },
      "transferOwnership(address)": {
        "details": "Allows the current owner to transfer control of the contract to a newOwner.",
        "params": {
          "newOwner": "The address to transfer ownership to."
        }
      }
    },
    "version": 1
  },
  "userdoc": {
    "kind": "user",
    "methods": {},
    "version": 1
  }
}