{
  "contractName": "WithdrawalContract",
  "abi": [
    {
      "anonymous": false,
      "inputs": [
        {
          "indexed": true,
          "internalType": "address",
          "name": "previousOwner",
          "type": "address"
        },
        {
          "indexed": true,
          "internalType": "address",
          "name": "newOwner",
          "type": "address"
        }
      ],
      "name": "OwnershipTransferred",
      "type": "event"
    },
    {
      "inputs": [],
      "name": "owner",
      "outputs": [
        {
          "internalType": "address",
          "name": "",
          "type": "address"
        }
      ],
      "stateMutability": "view",
      "type": "function"
    },
    {
      "inputs": [
        {
          "internalType": "address",
          "name": "newOwner",
          "type": "address"
        }
      ],
      "name": "transferOwnership",
      "outputs": [],
      "stateMutability": "nonpayable",
      "type": "function"
    },
    {
      "inputs": [],
      "name": "addToBalance",
      "outputs": [
        {
          "internalType": "bool",
          "name": "",
          "type": "bool"
        }
      ],
      "stateMutability": "payable",
      "type": "function"
    },
    {
      "inputs": [],
      "name": "addToOwnerPW",
      "outputs": [
        {
          "internalType": "bool",
          "name": "",
          "type": "bool"
        }
      ],
      "stateMutability": "payable",
      "type": "function"
    },
    {
      "inputs": [],
      "name": "withdraw",
      "outputs": [],
      "stateMutability": "nonpayable",
      "type": "function"
    },
    {
      "inputs": [],
      "name": "ownerWithdraw",
      "outputs": [],
      "stateMutability": "nonpayable",
      "type": "function"
    },
    {
      "inputs": [],
      "name": "getPW",
      "outputs": [
        {
          "internalType": "uint256",
          "name": "",
          "type": "uint256"
        }
      ],
      "stateMutability": "view",
      "type": "function"
    },
    {
      "inputs": [],
      "name": "getOwnerPW",
      "outputs": [
        {
          "internalType": "uint256",
          "name": "",
          "type": "uint256"
        }
      ],
      "stateMutability": "view",
      "type": "function"
    }
  ],
  "bytecode": "0x608060405234801561001057600080fd5b5060008054600160a060020a031916331790556103ba806100326000396000f3fe60806040526004361061006e5760e060020a60003504632c9c85ca81146100735780633ccfd60b1461009a5780634311de8f146100b15780635065036e146100c65780638da5cb5b146100db578063c0e317fb1461010c578063de562a9714610128578063f2fde38b14610130575b600080fd5b34801561007f57600080fd5b50610088610163565b60408051918252519081900360200190f35b3480156100a657600080fd5b506100af610182565b005b3480156100bd57600080fd5b506100af6101c7565b3480156100d257600080fd5b50610088610216565b3480156100e757600080fd5b506100f0610229565b60408051600160a060020a039092168252519081900360200190f35b610114610238565b604080519115158252519081900360200190f35b61011461026d565b34801561013c57600080fd5b506100af6004803603602081101561015357600080fd5b5035600160a060020a031661029b565b60008054600160a060020a0316331461017b57600080fd5b5060025490565b33600081815260016020526040808220805490839055905190929183156108fc02918491818181858888f193505050501580156101c3573d6000803e3d6000fd5b5050565b600054600160a060020a031633146101de57600080fd5b600280546000918290556040519091339183156108fc0291849190818181858888f193505050501580156101c3573d6000803e3d6000fd5b3360009081526001602052604090205490565b600054600160a060020a031681565b336000908152600160205260408120546102529034610320565b33600090815260016020819052604090912091909155905090565b60008054600160a060020a0316331461028557600080fd5b6002546102929034610320565b60025550600190565b600054600160a060020a031633146102b257600080fd5b600160a060020a0381166102c557600080fd5b60008054604051600160a060020a03808516939216917f8be0079c531659141344cd1fd0a4f28419497f9722a3daafe3b4186f6b6457e091a360008054600160a060020a031916600160a060020a0392909216919091179055565b60008282018381101561037d576040805160e560020a62461bcd02815260206004820152601b60248201527f536166654d6174683a206164646974696f6e206f766572666c6f770000000000604482015290519081900360640190fd5b939250505056fea2646970667358221220bf3ba25a70eae5faa95a6d2a0f1275eb4b77e588971d3eb86cc35243f92ad87a64736f6c63430007000033",
  "immutableReferences": {},
  "source": "pragma solidity ^0.7.0;\n\nimport \"./owner.sol\";\nimport \"./safeMath.sol\";\n\ncontract WithdrawalContract is Ownable{\n    using SafeMath for uint256;\n\n    mapping (address => uint) internal pendingWithdrawls;\n    uint private ownerPW;\n\n    //자기 잔고 충전\n    function addToBalance() external payable returns (bool){\n        pendingWithdrawls[msg.sender] = pendingWithdrawls[msg.sender].add(msg.value);\n        return true;\n    }\n\n    function addToOwnerPW() external payable onlyOwner returns (bool){\n        ownerPW = ownerPW.add(msg.value);\n        return true;\n    }\n\n    //웨이 송금... owner제외\n    function weiTransfer(address _from,  address _to, uint256 _price) internal returns (bool){\n        require(pendingWithdrawls[_from] >= _price, \"Insufficient balance\");\n        pendingWithdrawls[_from] = pendingWithdrawls[_from].sub(_price);\n        pendingWithdrawls[_to] = pendingWithdrawls[_to].add(_price);\n        return true;\n    }\n    //owner에게 송금. 이건 코인초기분배시 사용됨.\n    function ownerTransfer(address _from, uint256 _price) internal returns (bool){\n        require(pendingWithdrawls[_from] >= _price, \"Insufficient balance\");\n        pendingWithdrawls[_from] = pendingWithdrawls[_from].sub(_price);\n        ownerPW = ownerPW.add(_price);\n        return true;\n    }\n    \n    //owner가 송금. 이건 토큰을 이더리움으로 교환 시 사용됨.\n    function rewardTransfer(address _to, uint256 _price) internal returns (bool){\n        require(ownerPW >= _price, \"Owner doesn't have enough money\");\n        ownerPW = ownerPW.sub(_price);\n        pendingWithdrawls[_to] = pendingWithdrawls[_to].add(_price);\n        return true;\n    }\n\n    function withdraw() public {\n        uint amount = pendingWithdrawls[msg.sender];\n        // 리엔트란시(re-entrancy) 공격을 예방하기 위해\n        // 송금하기 전에 보류중인 환불을 0으로 기억해 두십시오.\n        pendingWithdrawls[msg.sender] = 0;\n        msg.sender.transfer(amount);\n    }\n\n    //owner출금\n    function ownerWithdraw() public onlyOwner{\n        uint amount = ownerPW;\n        // 리엔트란시(re-entrancy) 공격을 예방하기 위해\n        // 송금하기 전에 보류중인 환불을 0으로 기억해 두십시오.\n        ownerPW = 0;\n        msg.sender.transfer(amount);\n    }\n\n    //자기 잔고 확인\n    function getPW() public view returns (uint) {\n        return pendingWithdrawls[msg.sender];\n    }\n\n    //owner 잔고 확인\n    function getOwnerPW() public view onlyOwner returns (uint){\n        return ownerPW;\n    }\n}\n",
  "sourcePath": "/home/jisoo/pet-projects/Prediction_market/back/contracts/etherTransfer.sol",
  "compiler": {
    "name": "solc",
    "version": "0.7.0+commit.9e61f92b.Emscripten.clang"
  },
  "schemaVersion": "3.3.1",
  "updatedAt": "2020-11-27T15:06:44.033Z",
  "devdoc": {
    "kind": "dev",
    "methods": {
      "transferOwnership(address)": {
        "details": "Allows the current owner to transfer control of the contract to a newOwner.",
        "params": {
          "newOwner": "The address to transfer ownership to."
        }
      }
    },
    "version": 1
  },
  "userdoc": {
    "kind": "user",
    "methods": {},
    "version": 1
  }
}