{
  "contractName": "YesCoin",
  "abi": [
    {
      "inputs": [],
      "stateMutability": "nonpayable",
      "type": "constructor"
    },
    {
      "anonymous": false,
      "inputs": [
        {
          "indexed": true,
          "internalType": "address",
          "name": "previousOwner",
          "type": "address"
        },
        {
          "indexed": true,
          "internalType": "address",
          "name": "newOwner",
          "type": "address"
        }
      ],
      "name": "OwnershipTransferred",
      "type": "event"
    },
    {
      "anonymous": false,
      "inputs": [
        {
          "indexed": true,
          "internalType": "address",
          "name": "from",
          "type": "address"
        },
        {
          "indexed": true,
          "internalType": "address",
          "name": "to",
          "type": "address"
        },
        {
          "indexed": false,
          "internalType": "uint8",
          "name": "_market_id",
          "type": "uint8"
        },
        {
          "indexed": false,
          "internalType": "uint256",
          "name": "value",
          "type": "uint256"
        }
      ],
      "name": "Transfer",
      "type": "event"
    },
    {
      "inputs": [
        {
          "internalType": "address",
          "name": "account",
          "type": "address"
        },
        {
          "internalType": "uint8",
          "name": "_market_id",
          "type": "uint8"
        }
      ],
      "name": "balanceOf",
      "outputs": [
        {
          "internalType": "uint256",
          "name": "",
          "type": "uint256"
        }
      ],
      "stateMutability": "view",
      "type": "function"
    },
    {
      "inputs": [],
      "name": "cap",
      "outputs": [
        {
          "internalType": "uint256",
          "name": "",
          "type": "uint256"
        }
      ],
      "stateMutability": "view",
      "type": "function"
    },
    {
      "inputs": [],
      "name": "owner",
      "outputs": [
        {
          "internalType": "address",
          "name": "",
          "type": "address"
        }
      ],
      "stateMutability": "view",
      "type": "function"
    },
    {
      "inputs": [
        {
          "internalType": "uint8",
          "name": "_market_id",
          "type": "uint8"
        }
      ],
      "name": "totalSupplyOf",
      "outputs": [
        {
          "internalType": "uint256",
          "name": "",
          "type": "uint256"
        }
      ],
      "stateMutability": "view",
      "type": "function"
    },
    {
      "inputs": [
        {
          "internalType": "address",
          "name": "newOwner",
          "type": "address"
        }
      ],
      "name": "transferOwnership",
      "outputs": [],
      "stateMutability": "nonpayable",
      "type": "function"
    }
  ],
  "bytecode": "0x608060405234801561001057600080fd5b50604080518082018252600781527f596573436f696e0000000000000000000000000000000000000000000000000060208083019182528351808501909452600384527f59657300000000000000000000000000000000000000000000000000000000009084015260008054600160a060020a0319163317905581516103e8939161009e9160069190610136565b5080516100b2906007906020840190610136565b50506008805460ff19166012179055508061012e57604080517f08c379a000000000000000000000000000000000000000000000000000000000815260206004820152601560248201527f45524332304361707065643a2063617020697320300000000000000000000000604482015290519081900360640190fd5b600a556101c9565b828054600181600116156101000203166002900490600052602060002090601f016020900481019282601f1061017757805160ff19168380011785556101a4565b828001600101855582156101a4579182015b828111156101a4578251825591602001919060010190610189565b506101b09291506101b4565b5090565b5b808211156101b057600081556001016101b5565b610226806101d86000396000f3fe608060405234801561001057600080fd5b506004361061005a5760e060020a6000350463355274ea811461005f57806367412045146100795780638da5cb5b146100a8578063d53b6392146100cc578063f2fde38b146100ec575b600080fd5b610067610114565b60408051918252519081900360200190f35b6100676004803603604081101561008f57600080fd5b508035600160a060020a0316906020013560ff1661011a565b6100b0610147565b60408051600160a060020a039092168252519081900360200190f35b610067600480360360208110156100e257600080fd5b503560ff16610156565b6101126004803603602081101561010257600080fd5b5035600160a060020a031661016b565b005b600a5490565b600160a060020a038216600090815260016020908152604080832060ff8516845290915290205492915050565b600054600160a060020a031681565b60ff1660009081526003602052604090205490565b600054600160a060020a0316331461018257600080fd5b600160a060020a03811661019557600080fd5b60008054604051600160a060020a03808516939216917f8be0079c531659141344cd1fd0a4f28419497f9722a3daafe3b4186f6b6457e091a360008054600160a060020a031916600160a060020a039290921691909117905556fea26469706673582212206c62f5e459cdc9b48042a01dbbe34998287b1fd731e89e02ca53e002df6bb2db64736f6c63430007000033",
  "immutableReferences": {},
  "source": "pragma solidity 0.7.0;\n\nimport \"./erc20Capped.sol\";\n\ncontract YesCoin is ERC20, ERC20Capped{\n    uint8 private constant TOKENKIND = 1;\n    string private constant NAME = \"YesCoin\";\n    string private constant SYMBOL = \"Yes\";\n    uint256 private constant MAX_SUPPLY =1000;   // 토큰은 1시장당 yes coin 1천개, no coin 1천개가 발행된다.             \n\n    //yescoin 설정\n    constructor() ERC20Capped(MAX_SUPPLY) ERC20(NAME, SYMBOL) {  \n    }\n        \n    //yescoin minting. \n    function _yesCoin_mint(address _owner,  uint8 _market_id, uint256 _amount) internal {\n        super._beforeTokenTransfer(address(0), _market_id, _amount);    //cap넘는지 검사\n        _mint(_owner, _market_id, _amount);               \n    } \n}\n",
  "sourcePath": "/home/jisoo/pet-projects/Prediction_market/back/contracts/yescoin.sol",
  "compiler": {
    "name": "solc",
    "version": "0.7.0+commit.9e61f92b.Emscripten.clang"
  },
  "schemaVersion": "3.3.1",
  "updatedAt": "2020-12-07T00:43:27.734Z",
  "devdoc": {
    "kind": "dev",
    "methods": {
      "balanceOf(address,uint8)": {
        "details": "See {IERC20-balanceOf}."
      },
      "cap()": {
        "details": "Returns the cap on the token's total supply."
      },
      "totalSupplyOf(uint8)": {
        "details": "See {IERC20-totalSupply}."
      },
      "transferOwnership(address)": {
        "details": "Allows the current owner to transfer control of the contract to a newOwner.",
        "params": {
          "newOwner": "The address to transfer ownership to."
        }
      }
    },
    "version": 1
  },
  "userdoc": {
    "kind": "user",
    "methods": {},
    "version": 1
  }
}