{
  "contractName": "Coin",
  "abi": [
    {
      "inputs": [
        {
          "internalType": "string",
          "name": "_name",
          "type": "string"
        },
        {
          "internalType": "string",
          "name": "_type",
          "type": "string"
        }
      ],
      "payable": false,
      "stateMutability": "nonpayable",
      "type": "constructor"
    },
    {
      "constant": true,
      "inputs": [],
      "name": "status",
      "outputs": [
        {
          "internalType": "string",
          "name": "",
          "type": "string"
        },
        {
          "internalType": "string",
          "name": "",
          "type": "string"
        }
      ],
      "payable": false,
      "stateMutability": "view",
      "type": "function"
    }
  ],
  "bytecode": "0x608060405234801561001057600080fd5b506040516105ab3803806105ab833981810160405261003291908101906101a0565b336000806101000a81548173ffffffffffffffffffffffffffffffffffffffff021916908373ffffffffffffffffffffffffffffffffffffffff16021790555081600190805190602001906100889291906100a7565b50806002908051906020019061009f9291906100a7565b505050610298565b828054600181600116156101000203166002900490600052602060002090601f016020900481019282601f106100e857805160ff1916838001178555610116565b82800160010185558215610116579182015b828111156101155782518255916020019190600101906100fa565b5b5090506101239190610127565b5090565b61014991905b8082111561014557600081600090555060010161012d565b5090565b90565b600082601f83011261015d57600080fd5b815161017061016b82610239565b61020c565b9150808252602083016020830185838301111561018c57600080fd5b610197838284610265565b50505092915050565b600080604083850312156101b357600080fd5b600083015167ffffffffffffffff8111156101cd57600080fd5b6101d98582860161014c565b925050602083015167ffffffffffffffff8111156101f657600080fd5b6102028582860161014c565b9150509250929050565b6000604051905081810181811067ffffffffffffffff8211171561022f57600080fd5b8060405250919050565b600067ffffffffffffffff82111561025057600080fd5b601f19601f8301169050602081019050919050565b60005b83811015610283578082015181840152602081019050610268565b83811115610292576000848401525b50505050565b610304806102a76000396000f3fe608060405234801561001057600080fd5b506004361061002b5760003560e01c8063200d2ed214610030575b600080fd5b61003861004f565b60405161004692919061022a565b60405180910390f35b6060806000809054906101000a900473ffffffffffffffffffffffffffffffffffffffff1673ffffffffffffffffffffffffffffffffffffffff163373ffffffffffffffffffffffffffffffffffffffff1614156101ec5760016002818054600181600116156101000203166002900480601f0160208091040260200160405190810160405280929190818152602001828054600181600116156101000203166002900480156101405780601f1061011557610100808354040283529160200191610140565b820191906000526020600020905b81548152906001019060200180831161012357829003601f168201915b50505050509150808054600181600116156101000203166002900480601f0160208091040260200160405190810160405280929190818152602001828054600181600116156101000203166002900480156101dc5780601f106101b1576101008083540402835291602001916101dc565b820191906000526020600020905b8154815290600101906020018083116101bf57829003601f168201915b50505050509050915091506101ed565b5b9091565b60006101fc82610261565b610206818561026c565b935061021681856020860161027d565b61021f816102b0565b840191505092915050565b6000604082019050818103600083015261024481856101f1565b9050818103602083015261025881846101f1565b90509392505050565b600081519050919050565b600082825260208201905092915050565b60005b8381101561029b578082015181840152602081019050610280565b838111156102aa576000848401525b50505050565b6000601f19601f830116905091905056fea365627a7a723158205579cc5b5e39f38595caa03ca4f427729c074cab720bf1cfa1a302d901a5aa9b6c6578706572696d656e74616cf564736f6c63430005100040",
  "source": "pragma solidity >=0.4.22 <0.8.0;\npragma experimental ABIEncoderV2;\n\ncontract Coin {\n    address backend;\n    string name;\n    string coinType;\n    \n    constructor(string memory _name, string memory _type) public{\n        backend = msg.sender;\n        name = _name;\n        coinType = _type;\n    }\n    \n    function status() view public returns(string memory, string memory) {\n        if (msg.sender == backend){\n            return (name, coinType);\n        }\n    }\n}\n\ncontract DummyBackend {\n    struct Exchange {\n        Coin yesCoin;\n        Coin noCoin;\n        string name;\n    }\n    Exchange[] exchanges;\n    uint count;\n    \n    function setExchange(string memory name) public{\n        if(bytes(name).length < 80){ // name length check.\n            Exchange memory newExchange = Exchange(new Coin(name, \"_yes\"), new Coin(name, \"_no\"), name);\n            exchanges.push(newExchange);\n            count++;\n        }\n    }\n    \n    function showExchanges() view public returns(string[] memory){\n        string[] memory temp = new string[](count);\n        for(uint i; i < count; i++){\n            temp[i] = exchanges[i].name;\n        }\n        return temp;\n    }\n    \n    function showExchangeInDetail(uint index) view public returns(string memory, string memory, string memory, string memory){\n        (string memory x, string memory y) = exchanges[index].yesCoin.status();\n        (string memory a, string memory b) = exchanges[index].noCoin.status();\n        return (x,y,a,b);\n    }\n    \n}\n",
  "sourcePath": "/home/jisoo/pet-projects/Prediction_market/front/dummy/contracts/dummy.sol",
  "compiler": {
    "name": "solc",
    "version": "0.5.16+commit.9c3226ce.Emscripten.clang"
  },
  "schemaVersion": "3.3.1",
  "updatedAt": "2020-11-14T17:49:27.356Z",
  "devdoc": {
    "methods": {}
  },
  "userdoc": {
    "methods": {}
  }
}