{
  "contractName": "DummyBackend",
  "abi": [
    {
      "constant": false,
      "inputs": [
        {
          "internalType": "string",
          "name": "name",
          "type": "string"
        }
      ],
      "name": "setExchange",
      "outputs": [],
      "payable": false,
      "stateMutability": "nonpayable",
      "type": "function"
    },
    {
      "constant": true,
      "inputs": [],
      "name": "showExchanges",
      "outputs": [
        {
          "internalType": "string[]",
          "name": "",
          "type": "string[]"
        }
      ],
      "payable": false,
      "stateMutability": "view",
      "type": "function"
    },
    {
      "constant": true,
      "inputs": [
        {
          "internalType": "uint256",
          "name": "index",
          "type": "uint256"
        }
      ],
      "name": "showExchangeInDetail",
      "outputs": [
        {
          "internalType": "string",
          "name": "",
          "type": "string"
        },
        {
          "internalType": "string",
          "name": "",
          "type": "string"
        },
        {
          "internalType": "string",
          "name": "",
          "type": "string"
        },
        {
          "internalType": "string",
          "name": "",
          "type": "string"
        }
      ],
      "payable": false,
      "stateMutability": "view",
      "type": "function"
    }
  ],
  "bytecode": "0x608060405234801561001057600080fd5b50611203806100206000396000f3fe60806040523480156200001157600080fd5b5060043610620000465760003560e01c806302535463146200004b578063208ba0c6146200006d5780637003c08014620000a6575b600080fd5b62000055620000c6565b604051620000649190620009d0565b60405180910390f35b6200008b600480360362000085919081019062000807565b620001fc565b6040516200009d9493929190620009f4565b60405180910390f35b620000c46004803603620000be91908101906200074f565b620003b3565b005b6060806001546040519080825280602002602001820160405280156200010157816020015b6060815260200190600190039081620000eb5790505b50905060005b600154811015620001f457600081815481106200012057fe5b90600052602060002090600302016002018054600181600116156101000203166002900480601f016020809104026020016040519081016040528092919081815260200182805460018160011615610100020316600290048015620001c95780601f106200019d57610100808354040283529160200191620001c9565b820191906000526020600020905b815481529060010190602001808311620001ab57829003601f168201915b5050505050828281518110620001db57fe5b6020026020010181905250808060010191505062000107565b508091505090565b606080606080606080600087815481106200021357fe5b906000526020600020906003020160000160009054906101000a900473ffffffffffffffffffffffffffffffffffffffff1673ffffffffffffffffffffffffffffffffffffffff1663200d2ed26040518163ffffffff1660e01b815260040160006040518083038186803b1580156200028b57600080fd5b505afa158015620002a0573d6000803e3d6000fd5b505050506040513d6000823e3d601f19601f82011682018060405250620002cb919081019062000794565b9150915060608060008981548110620002e057fe5b906000526020600020906003020160010160009054906101000a900473ffffffffffffffffffffffffffffffffffffffff1673ffffffffffffffffffffffffffffffffffffffff1663200d2ed26040518163ffffffff1660e01b815260040160006040518083038186803b1580156200035857600080fd5b505afa1580156200036d573d6000803e3d6000fd5b505050506040513d6000823e3d601f19601f8201168201806040525062000398919081019062000794565b91509150838383839750975097509750505050509193509193565b6050815110156200057357620003c862000576565b604051806060016040528083604051620003e290620005c3565b620003ee919062000a5d565b604051809103906000f0801580156200040b573d6000803e3d6000fd5b5073ffffffffffffffffffffffffffffffffffffffff168152602001836040516200043690620005c3565b62000442919062000a96565b604051809103906000f0801580156200045f573d6000803e3d6000fd5b5073ffffffffffffffffffffffffffffffffffffffff1681526020018381525090506000819080600181540180825580915050906001820390600052602060002090600302016000909192909190915060008201518160000160006101000a81548173ffffffffffffffffffffffffffffffffffffffff021916908373ffffffffffffffffffffffffffffffffffffffff16021790555060208201518160010160006101000a81548173ffffffffffffffffffffffffffffffffffffffff021916908373ffffffffffffffffffffffffffffffffffffffff16021790555060408201518160020190805190602001906200055b929190620005d1565b50505050600160008154809291906001019190505550505b50565b6040518060600160405280600073ffffffffffffffffffffffffffffffffffffffff168152602001600073ffffffffffffffffffffffffffffffffffffffff168152602001606081525090565b6105ab8062000c1683390190565b828054600181600116156101000203166002900490600052602060002090601f016020900481019282601f106200061457805160ff191683800117855562000645565b8280016001018555821562000645579182015b828111156200064457825182559160200191906001019062000627565b5b50905062000654919062000658565b5090565b6200067d91905b80821115620006795760008160009055506001016200065f565b5090565b90565b600082601f8301126200069257600080fd5b8135620006a9620006a38262000afd565b62000acf565b91508082526020830160208301858383011115620006c657600080fd5b620006d383828462000ba5565b50505092915050565b600082601f830112620006ee57600080fd5b815162000705620006ff8262000afd565b62000acf565b915080825260208301602083018583830111156200072257600080fd5b6200072f83828462000bb4565b50505092915050565b600081359050620007498162000bfb565b92915050565b6000602082840312156200076257600080fd5b600082013567ffffffffffffffff8111156200077d57600080fd5b6200078b8482850162000680565b91505092915050565b60008060408385031215620007a857600080fd5b600083015167ffffffffffffffff811115620007c357600080fd5b620007d185828601620006dc565b925050602083015167ffffffffffffffff811115620007ef57600080fd5b620007fd85828601620006dc565b9150509250929050565b6000602082840312156200081a57600080fd5b60006200082a8482850162000738565b91505092915050565b60006200084183836200090b565b905092915050565b6000620008568262000b3a565b62000862818562000b68565b935083602082028501620008768562000b2a565b8060005b85811015620008b8578484038952815162000896858262000833565b9450620008a38362000b5b565b925060208a019950506001810190506200087a565b50829750879550505050505092915050565b6000620008d78262000b50565b620008e3818562000b8a565b9350620008f581856020860162000bb4565b620009008162000bea565b840191505092915050565b6000620009188262000b45565b62000924818562000b79565b93506200093681856020860162000bb4565b620009418162000bea565b840191505092915050565b60006200095b60048362000b8a565b91507f5f796573000000000000000000000000000000000000000000000000000000006000830152602082019050919050565b60006200099d60038362000b8a565b91507f5f6e6f00000000000000000000000000000000000000000000000000000000006000830152602082019050919050565b60006020820190508181036000830152620009ec818462000849565b905092915050565b6000608082019050818103600083015262000a108187620008ca565b9050818103602083015262000a268186620008ca565b9050818103604083015262000a3c8185620008ca565b9050818103606083015262000a528184620008ca565b905095945050505050565b6000604082019050818103600083015262000a798184620008ca565b9050818103602083015262000a8e816200094c565b905092915050565b6000604082019050818103600083015262000ab28184620008ca565b9050818103602083015262000ac7816200098e565b905092915050565b6000604051905081810181811067ffffffffffffffff8211171562000af357600080fd5b8060405250919050565b600067ffffffffffffffff82111562000b1557600080fd5b601f19601f8301169050602081019050919050565b6000819050602082019050919050565b600081519050919050565b600081519050919050565b600081519050919050565b6000602082019050919050565b600082825260208201905092915050565b600082825260208201905092915050565b600082825260208201905092915050565b6000819050919050565b82818337600083830152505050565b60005b8381101562000bd457808201518184015260208101905062000bb7565b8381111562000be4576000848401525b50505050565b6000601f19601f8301169050919050565b62000c068162000b9b565b811462000c1257600080fd5b5056fe608060405234801561001057600080fd5b506040516105ab3803806105ab833981810160405261003291908101906101a0565b336000806101000a81548173ffffffffffffffffffffffffffffffffffffffff021916908373ffffffffffffffffffffffffffffffffffffffff16021790555081600190805190602001906100889291906100a7565b50806002908051906020019061009f9291906100a7565b505050610298565b828054600181600116156101000203166002900490600052602060002090601f016020900481019282601f106100e857805160ff1916838001178555610116565b82800160010185558215610116579182015b828111156101155782518255916020019190600101906100fa565b5b5090506101239190610127565b5090565b61014991905b8082111561014557600081600090555060010161012d565b5090565b90565b600082601f83011261015d57600080fd5b815161017061016b82610239565b61020c565b9150808252602083016020830185838301111561018c57600080fd5b610197838284610265565b50505092915050565b600080604083850312156101b357600080fd5b600083015167ffffffffffffffff8111156101cd57600080fd5b6101d98582860161014c565b925050602083015167ffffffffffffffff8111156101f657600080fd5b6102028582860161014c565b9150509250929050565b6000604051905081810181811067ffffffffffffffff8211171561022f57600080fd5b8060405250919050565b600067ffffffffffffffff82111561025057600080fd5b601f19601f8301169050602081019050919050565b60005b83811015610283578082015181840152602081019050610268565b83811115610292576000848401525b50505050565b610304806102a76000396000f3fe608060405234801561001057600080fd5b506004361061002b5760003560e01c8063200d2ed214610030575b600080fd5b61003861004f565b60405161004692919061022a565b60405180910390f35b6060806000809054906101000a900473ffffffffffffffffffffffffffffffffffffffff1673ffffffffffffffffffffffffffffffffffffffff163373ffffffffffffffffffffffffffffffffffffffff1614156101ec5760016002818054600181600116156101000203166002900480601f0160208091040260200160405190810160405280929190818152602001828054600181600116156101000203166002900480156101405780601f1061011557610100808354040283529160200191610140565b820191906000526020600020905b81548152906001019060200180831161012357829003601f168201915b50505050509150808054600181600116156101000203166002900480601f0160208091040260200160405190810160405280929190818152602001828054600181600116156101000203166002900480156101dc5780601f106101b1576101008083540402835291602001916101dc565b820191906000526020600020905b8154815290600101906020018083116101bf57829003601f168201915b50505050509050915091506101ed565b5b9091565b60006101fc82610261565b610206818561026c565b935061021681856020860161027d565b61021f816102b0565b840191505092915050565b6000604082019050818103600083015261024481856101f1565b9050818103602083015261025881846101f1565b90509392505050565b600081519050919050565b600082825260208201905092915050565b60005b8381101561029b578082015181840152602081019050610280565b838111156102aa576000848401525b50505050565b6000601f19601f830116905091905056fea365627a7a723158205579cc5b5e39f38595caa03ca4f427729c074cab720bf1cfa1a302d901a5aa9b6c6578706572696d656e74616cf564736f6c63430005100040a365627a7a72315820c16c0ebaa52837c2e604877707141f19dffaffe771e2ed464112a00df8af2d3b6c6578706572696d656e74616cf564736f6c63430005100040",
  "source": "pragma solidity >=0.4.22 <0.8.0;\npragma experimental ABIEncoderV2;\n\ncontract Coin {\n    address backend;\n    string name;\n    string coinType;\n    \n    constructor(string memory _name, string memory _type) public{\n        backend = msg.sender;\n        name = _name;\n        coinType = _type;\n    }\n    \n    function status() view public returns(string memory, string memory) {\n        if (msg.sender == backend){\n            return (name, coinType);\n        }\n    }\n}\n\ncontract DummyBackend {\n    struct Exchange {\n        Coin yesCoin;\n        Coin noCoin;\n        string name;\n    }\n    Exchange[] exchanges;\n    uint count;\n    \n    function setExchange(string memory name) public{\n        if(bytes(name).length < 80){ // name length check.\n            Exchange memory newExchange = Exchange(new Coin(name, \"_yes\"), new Coin(name, \"_no\"), name);\n            exchanges.push(newExchange);\n            count++;\n        }\n    }\n    \n    function showExchanges() view public returns(string[] memory){\n        string[] memory temp = new string[](count);\n        for(uint i; i < count; i++){\n            temp[i] = exchanges[i].name;\n        }\n        return temp;\n    }\n    \n    function showExchangeInDetail(uint index) view public returns(string memory, string memory, string memory, string memory){\n        (string memory x, string memory y) = exchanges[index].yesCoin.status();\n        (string memory a, string memory b) = exchanges[index].noCoin.status();\n        return (x,y,a,b);\n    }\n    \n}\n",
  "sourcePath": "/home/jisoo/pet-projects/Prediction_market/front/dummy/contracts/dummy.sol",
  "compiler": {
    "name": "solc",
    "version": "0.5.16+commit.9c3226ce.Emscripten.clang"
  },
  "schemaVersion": "3.3.1",
  "updatedAt": "2020-11-14T20:32:14.478Z",
  "networkType": "ethereum",
  "devdoc": {
    "methods": {}
  },
  "userdoc": {
    "methods": {}
  }
}